{
  "contractName": "CryptoGame",
  "abi": [
    {
      "inputs": [
        {
          "internalType": "contract GoldCoinToken",
          "name": "tokens",
          "type": "address"
        }
      ],
      "payable": false,
      "stateMutability": "nonpayable",
      "type": "constructor"
    },
    {
      "anonymous": false,
      "inputs": [
        {
          "indexed": false,
          "internalType": "uint256",
          "name": "_myPower",
          "type": "uint256"
        },
        {
          "indexed": false,
          "internalType": "uint256",
          "name": "_aiPower",
          "type": "uint256"
        }
      ],
      "name": "AIFightStatistics",
      "type": "event"
    },
    {
      "anonymous": false,
      "inputs": [
        {
          "indexed": true,
          "internalType": "address",
          "name": "owner",
          "type": "address"
        },
        {
          "indexed": true,
          "internalType": "address",
          "name": "approved",
          "type": "address"
        },
        {
          "indexed": true,
          "internalType": "uint256",
          "name": "tokenId",
          "type": "uint256"
        }
      ],
      "name": "Approval",
      "type": "event"
    },
    {
      "anonymous": false,
      "inputs": [
        {
          "indexed": true,
          "internalType": "address",
          "name": "owner",
          "type": "address"
        },
        {
          "indexed": true,
          "internalType": "address",
          "name": "operator",
          "type": "address"
        },
        {
          "indexed": false,
          "internalType": "bool",
          "name": "approved",
          "type": "bool"
        }
      ],
      "name": "ApprovalForAll",
      "type": "event"
    },
    {
      "anonymous": false,
      "inputs": [
        {
          "indexed": false,
          "internalType": "string",
          "name": "_messege",
          "type": "string"
        }
      ],
      "name": "BusyEvent",
      "type": "event"
    },
    {
      "anonymous": false,
      "inputs": [
        {
          "indexed": true,
          "internalType": "address",
          "name": "from",
          "type": "address"
        },
        {
          "indexed": true,
          "internalType": "address",
          "name": "to",
          "type": "address"
        },
        {
          "indexed": true,
          "internalType": "uint256",
          "name": "tokenId",
          "type": "uint256"
        }
      ],
      "name": "Transfer",
      "type": "event"
    },
    {
      "anonymous": false,
      "inputs": [
        {
          "indexed": false,
          "internalType": "uint256",
          "name": "_winnerId",
          "type": "uint256"
        }
      ],
      "name": "Winner",
      "type": "event"
    },
    {
      "constant": false,
      "inputs": [
        {
          "internalType": "address",
          "name": "to",
          "type": "address"
        },
        {
          "internalType": "uint256",
          "name": "tokenId",
          "type": "uint256"
        }
      ],
      "name": "approve",
      "outputs": [],
      "payable": false,
      "stateMutability": "nonpayable",
      "type": "function"
    },
    {
      "constant": true,
      "inputs": [
        {
          "internalType": "address",
          "name": "owner",
          "type": "address"
        }
      ],
      "name": "balanceOf",
      "outputs": [
        {
          "internalType": "uint256",
          "name": "",
          "type": "uint256"
        }
      ],
      "payable": false,
      "stateMutability": "view",
      "type": "function"
    },
    {
      "constant": true,
      "inputs": [],
      "name": "bank",
      "outputs": [
        {
          "internalType": "contract GoldCoinToken",
          "name": "",
          "type": "address"
        }
      ],
      "payable": false,
      "stateMutability": "view",
      "type": "function"
    },
    {
      "constant": true,
      "inputs": [
        {
          "internalType": "uint256",
          "name": "tokenId",
          "type": "uint256"
        }
      ],
      "name": "getApproved",
      "outputs": [
        {
          "internalType": "address",
          "name": "",
          "type": "address"
        }
      ],
      "payable": false,
      "stateMutability": "view",
      "type": "function"
    },
    {
      "constant": true,
      "inputs": [
        {
          "internalType": "uint256",
          "name": "",
          "type": "uint256"
        }
      ],
      "name": "gladiatorToOwner",
      "outputs": [
        {
          "internalType": "address",
          "name": "",
          "type": "address"
        }
      ],
      "payable": false,
      "stateMutability": "view",
      "type": "function"
    },
    {
      "constant": true,
      "inputs": [
        {
          "internalType": "uint256",
          "name": "",
          "type": "uint256"
        }
      ],
      "name": "gladiators",
      "outputs": [
        {
          "internalType": "string",
          "name": "name",
          "type": "string"
        },
        {
          "internalType": "uint256",
          "name": "tier",
          "type": "uint256"
        },
        {
          "internalType": "uint256",
          "name": "hp",
          "type": "uint256"
        },
        {
          "internalType": "uint256",
          "name": "max_hp",
          "type": "uint256"
        },
        {
          "internalType": "uint256",
          "name": "stamina",
          "type": "uint256"
        },
        {
          "internalType": "uint256",
          "name": "strength",
          "type": "uint256"
        },
        {
          "internalType": "uint256",
          "name": "dexterity",
          "type": "uint256"
        },
        {
          "internalType": "uint256",
          "name": "vigor",
          "type": "uint256"
        },
        {
          "internalType": "uint256",
          "name": "satiation",
          "type": "uint256"
        },
        {
          "internalType": "address",
          "name": "owner",
          "type": "address"
        },
        {
          "internalType": "uint256",
          "name": "cooldownTime",
          "type": "uint256"
        },
        {
          "internalType": "uint256",
          "name": "safetyNetCooldown",
          "type": "uint256"
        },
        {
          "internalType": "uint256",
          "name": "wins",
          "type": "uint256"
        }
      ],
      "payable": false,
      "stateMutability": "view",
      "type": "function"
    },
    {
      "constant": true,
      "inputs": [
        {
          "internalType": "address",
          "name": "owner",
          "type": "address"
        },
        {
          "internalType": "address",
          "name": "operator",
          "type": "address"
        }
      ],
      "name": "isApprovedForAll",
      "outputs": [
        {
          "internalType": "bool",
          "name": "",
          "type": "bool"
        }
      ],
      "payable": false,
      "stateMutability": "view",
      "type": "function"
    },
    {
      "constant": true,
      "inputs": [],
      "name": "numGladiators",
      "outputs": [
        {
          "internalType": "uint256",
          "name": "",
          "type": "uint256"
        }
      ],
      "payable": false,
      "stateMutability": "view",
      "type": "function"
    },
    {
      "constant": true,
      "inputs": [],
      "name": "owner",
      "outputs": [
        {
          "internalType": "address",
          "name": "",
          "type": "address"
        }
      ],
      "payable": false,
      "stateMutability": "view",
      "type": "function"
    },
    {
      "constant": true,
      "inputs": [
        {
          "internalType": "uint256",
          "name": "tokenId",
          "type": "uint256"
        }
      ],
      "name": "ownerOf",
      "outputs": [
        {
          "internalType": "address",
          "name": "",
          "type": "address"
        }
      ],
      "payable": false,
      "stateMutability": "view",
      "type": "function"
    },
    {
      "constant": true,
      "inputs": [
        {
          "internalType": "address",
          "name": "",
          "type": "address"
        }
      ],
      "name": "ownerToGladiator",
      "outputs": [
        {
          "internalType": "uint256",
          "name": "",
          "type": "uint256"
        }
      ],
      "payable": false,
      "stateMutability": "view",
      "type": "function"
    },
    {
      "constant": true,
      "inputs": [
        {
          "internalType": "uint256",
          "name": "a",
          "type": "uint256"
        },
        {
          "internalType": "uint256",
          "name": "b",
          "type": "uint256"
        }
      ],
      "name": "safeAdd",
      "outputs": [
        {
          "internalType": "uint256",
          "name": "c",
          "type": "uint256"
        }
      ],
      "payable": false,
      "stateMutability": "pure",
      "type": "function"
    },
    {
      "constant": true,
      "inputs": [
        {
          "internalType": "uint256",
          "name": "a",
          "type": "uint256"
        },
        {
          "internalType": "uint256",
          "name": "b",
          "type": "uint256"
        }
      ],
      "name": "safeDiv",
      "outputs": [
        {
          "internalType": "uint256",
          "name": "c",
          "type": "uint256"
        }
      ],
      "payable": false,
      "stateMutability": "pure",
      "type": "function"
    },
    {
      "constant": true,
      "inputs": [
        {
          "internalType": "uint256",
          "name": "a",
          "type": "uint256"
        },
        {
          "internalType": "uint256",
          "name": "b",
          "type": "uint256"
        }
      ],
      "name": "safeMul",
      "outputs": [
        {
          "internalType": "uint256",
          "name": "c",
          "type": "uint256"
        }
      ],
      "payable": false,
      "stateMutability": "pure",
      "type": "function"
    },
    {
      "constant": true,
      "inputs": [
        {
          "internalType": "uint256",
          "name": "a",
          "type": "uint256"
        },
        {
          "internalType": "uint256",
          "name": "b",
          "type": "uint256"
        }
      ],
      "name": "safeSub",
      "outputs": [
        {
          "internalType": "uint256",
          "name": "c",
          "type": "uint256"
        }
      ],
      "payable": false,
      "stateMutability": "pure",
      "type": "function"
    },
    {
      "constant": false,
      "inputs": [
        {
          "internalType": "address",
          "name": "from",
          "type": "address"
        },
        {
          "internalType": "address",
          "name": "to",
          "type": "address"
        },
        {
          "internalType": "uint256",
          "name": "tokenId",
          "type": "uint256"
        }
      ],
      "name": "safeTransferFrom",
      "outputs": [],
      "payable": false,
      "stateMutability": "nonpayable",
      "type": "function"
    },
    {
      "constant": false,
      "inputs": [
        {
          "internalType": "address",
          "name": "from",
          "type": "address"
        },
        {
          "internalType": "address",
          "name": "to",
          "type": "address"
        },
        {
          "internalType": "uint256",
          "name": "tokenId",
          "type": "uint256"
        },
        {
          "internalType": "bytes",
          "name": "_data",
          "type": "bytes"
        }
      ],
      "name": "safeTransferFrom",
      "outputs": [],
      "payable": false,
      "stateMutability": "nonpayable",
      "type": "function"
    },
    {
      "constant": false,
      "inputs": [
        {
          "internalType": "address",
          "name": "to",
          "type": "address"
        },
        {
          "internalType": "bool",
          "name": "approved",
          "type": "bool"
        }
      ],
      "name": "setApprovalForAll",
      "outputs": [],
      "payable": false,
      "stateMutability": "nonpayable",
      "type": "function"
    },
    {
      "constant": true,
      "inputs": [
        {
          "internalType": "bytes4",
          "name": "interfaceId",
          "type": "bytes4"
        }
      ],
      "name": "supportsInterface",
      "outputs": [
        {
          "internalType": "bool",
          "name": "",
          "type": "bool"
        }
      ],
      "payable": false,
      "stateMutability": "view",
      "type": "function"
    },
    {
      "constant": false,
      "inputs": [
        {
          "internalType": "address",
          "name": "from",
          "type": "address"
        },
        {
          "internalType": "address",
          "name": "to",
          "type": "address"
        },
        {
          "internalType": "uint256",
          "name": "tokenId",
          "type": "uint256"
        }
      ],
      "name": "transferFrom",
      "outputs": [],
      "payable": false,
      "stateMutability": "nonpayable",
      "type": "function"
    },
    {
      "constant": false,
      "inputs": [
        {
          "internalType": "address",
          "name": "_owner",
          "type": "address"
        },
        {
          "internalType": "string",
          "name": "_name",
          "type": "string"
        },
        {
          "internalType": "uint256",
          "name": "_stamina",
          "type": "uint256"
        },
        {
          "internalType": "uint256",
          "name": "_strength",
          "type": "uint256"
        },
        {
          "internalType": "uint256",
          "name": "_dexterity",
          "type": "uint256"
        },
        {
          "internalType": "uint256",
          "name": "_maxHp",
          "type": "uint256"
        }
      ],
      "name": "recruitGladiator",
      "outputs": [],
      "payable": false,
      "stateMutability": "nonpayable",
      "type": "function"
    },
    {
      "constant": false,
      "inputs": [
        {
          "internalType": "uint256",
          "name": "_gladiatorId",
          "type": "uint256"
        }
      ],
      "name": "eat",
      "outputs": [
        {
          "internalType": "bool",
          "name": "",
          "type": "bool"
        }
      ],
      "payable": false,
      "stateMutability": "nonpayable",
      "type": "function"
    },
    {
      "constant": false,
      "inputs": [
        {
          "internalType": "uint256",
          "name": "_gladiatorId",
          "type": "uint256"
        }
      ],
      "name": "sleep",
      "outputs": [],
      "payable": false,
      "stateMutability": "nonpayable",
      "type": "function"
    },
    {
      "constant": false,
      "inputs": [
        {
          "internalType": "uint256",
          "name": "_gladiatorId",
          "type": "uint256"
        }
      ],
      "name": "muscleTraining",
      "outputs": [],
      "payable": false,
      "stateMutability": "nonpayable",
      "type": "function"
    },
    {
      "constant": false,
      "inputs": [
        {
          "internalType": "uint256",
          "name": "_gladiatorId",
          "type": "uint256"
        }
      ],
      "name": "enduranceTraining",
      "outputs": [],
      "payable": false,
      "stateMutability": "nonpayable",
      "type": "function"
    },
    {
      "constant": false,
      "inputs": [
        {
          "internalType": "uint256",
          "name": "_gladiatorId",
          "type": "uint256"
        }
      ],
      "name": "flexibilityTraining",
      "outputs": [],
      "payable": false,
      "stateMutability": "nonpayable",
      "type": "function"
    },
    {
      "constant": false,
      "inputs": [
        {
          "internalType": "uint256",
          "name": "_gladiatorId",
          "type": "uint256"
        }
      ],
      "name": "fightAI",
      "outputs": [],
      "payable": false,
      "stateMutability": "nonpayable",
      "type": "function"
    },
    {
      "constant": false,
      "inputs": [
        {
          "internalType": "uint256",
          "name": "_gladiatorId1",
          "type": "uint256"
        },
        {
          "internalType": "uint256",
          "name": "_gladiatorId2",
          "type": "uint256"
        }
      ],
      "name": "fight",
      "outputs": [],
      "payable": false,
      "stateMutability": "nonpayable",
      "type": "function"
    }
  ],
  "bytecode": "0x6080604052600060055560006006553480156200001b57600080fd5b5060405162004eed38038062004eed833981810160405260208110156200004157600080fd5b81019080805190602001909291905050506200006a6301ffc9a760e01b6200010b60201b60201c565b620000826380ac58cd60e01b6200010b60201b60201c565b33600760006101000a81548173ffffffffffffffffffffffffffffffffffffffff021916908373ffffffffffffffffffffffffffffffffffffffff16021790555080600960006101000a81548173ffffffffffffffffffffffffffffffffffffffff021916908373ffffffffffffffffffffffffffffffffffffffff1602179055505062000214565b63ffffffff60e01b817bffffffffffffffffffffffffffffffffffffffffffffffffffffffff19161415620001a8576040517f08c379a000000000000000000000000000000000000000000000000000000000815260040180806020018281038252601c8152602001807f4552433136353a20696e76616c696420696e746572666163652069640000000081525060200191505060405180910390fd5b6001600080837bffffffffffffffffffffffffffffffffffffffffffffffffffffffff19167bffffffffffffffffffffffffffffffffffffffffffffffffffffffff1916815260200190815260200160002060006101000a81548160ff02191690831515021790555050565b614cc980620002246000396000f3fe608060405234801561001057600080fd5b50600436106101c45760003560e01c8063a404568c116100f9578063d05c78da11610097578063edf764a311610071578063edf764a3146109cd578063f211789914610af4578063f70dc69d14610b62578063fa9d871314610c65576101c4565b8063d05c78da146108b9578063e6cb901314610905578063e985e9c514610951576101c4565b8063b5931f7c116100d3578063b5931f7c14610712578063b88d4fde1461075e578063bb2880d014610863578063ca39e5ef14610881576101c4565b8063a404568c14610688578063a843bdb1146106b6578063b18bceb4146106e4576101c4565b806370a082311161016657806385e0ebaf1161014057806385e0ebaf1461055c5780638da5cb5b146105a2578063a22cb465146105ec578063a293d1e81461063c576101c4565b806370a08231146104625780637632e0c7146104ba57806376cdb03b14610512576101c4565b806323b872dd116101a257806323b872dd146102ea57806342842e0e1461035857806356681652146103c65780636352211e146103f4576101c4565b806301ffc9a7146101c9578063081812fc1461022e578063095ea7b31461029c575b600080fd5b610214600480360360208110156101df57600080fd5b8101908080357bffffffffffffffffffffffffffffffffffffffffffffffffffffffff19169060200190929190505050610c93565b604051808215151515815260200191505060405180910390f35b61025a6004803603602081101561024457600080fd5b8101908080359060200190929190505050610cfa565b604051808273ffffffffffffffffffffffffffffffffffffffff1673ffffffffffffffffffffffffffffffffffffffff16815260200191505060405180910390f35b6102e8600480360360408110156102b257600080fd5b81019080803573ffffffffffffffffffffffffffffffffffffffff16906020019092919080359060200190929190505050610d49565b005b6103566004803603606081101561030057600080fd5b81019080803573ffffffffffffffffffffffffffffffffffffffff169060200190929190803573ffffffffffffffffffffffffffffffffffffffff16906020019092919080359060200190929190505050610e8a565b005b6103c46004803603606081101561036e57600080fd5b81019080803573ffffffffffffffffffffffffffffffffffffffff169060200190929190803573ffffffffffffffffffffffffffffffffffffffff16906020019092919080359060200190929190505050610f55565b005b6103f2600480360360208110156103dc57600080fd5b8101908080359060200190929190505050610f75565b005b6104206004803603602081101561040a57600080fd5b8101908080359060200190929190505050611494565b604051808273ffffffffffffffffffffffffffffffffffffffff1673ffffffffffffffffffffffffffffffffffffffff16815260200191505060405180910390f35b6104a46004803603602081101561047857600080fd5b81019080803573ffffffffffffffffffffffffffffffffffffffff169060200190929190505050611510565b6040518082815260200191505060405180910390f35b6104fc600480360360208110156104d057600080fd5b81019080803573ffffffffffffffffffffffffffffffffffffffff169060200190929190505050611592565b6040518082815260200191505060405180910390f35b61051a6115aa565b604051808273ffffffffffffffffffffffffffffffffffffffff1673ffffffffffffffffffffffffffffffffffffffff16815260200191505060405180910390f35b6105886004803603602081101561057257600080fd5b81019080803590602001909291905050506115d0565b604051808215151515815260200191505060405180910390f35b6105aa611a9f565b604051808273ffffffffffffffffffffffffffffffffffffffff1673ffffffffffffffffffffffffffffffffffffffff16815260200191505060405180910390f35b61063a6004803603604081101561060257600080fd5b81019080803573ffffffffffffffffffffffffffffffffffffffff169060200190929190803515159060200190929190505050611ac5565b005b6106726004803603604081101561065257600080fd5b810190808035906020019092919080359060200190929190505050611bff565b6040518082815260200191505060405180910390f35b6106b46004803603602081101561069e57600080fd5b8101908080359060200190929190505050611c82565b005b6106e2600480360360208110156106cc57600080fd5b81019080803590602001909291905050506121a1565b005b610710600480360360208110156106fa57600080fd5b8101908080359060200190929190505050612560565b005b6107486004803603604081101561072857600080fd5b810190808035906020019092919080359060200190929190505050612a7f565b6040518082815260200191505060405180910390f35b6108616004803603608081101561077457600080fd5b81019080803573ffffffffffffffffffffffffffffffffffffffff169060200190929190803573ffffffffffffffffffffffffffffffffffffffff16906020019092919080359060200190929190803590602001906401000000008111156107db57600080fd5b8201836020820111156107ed57600080fd5b8035906020019184600183028401116401000000008311171561080f57600080fd5b91908080601f016020809104026020016040519081016040528093929190818152602001838380828437600081840152601f19601f820116905080830192505050505050509192919290505050612b08565b005b61086b612b19565b6040518082815260200191505060405180910390f35b6108b76004803603604081101561089757600080fd5b810190808035906020019092919080359060200190929190505050612b1f565b005b6108ef600480360360408110156108cf57600080fd5b810190808035906020019092919080359060200190929190505050613403565b6040518082815260200191505060405180910390f35b61093b6004803603604081101561091b57600080fd5b810190808035906020019092919080359060200190929190505050613499565b6040518082815260200191505060405180910390f35b6109b36004803603604081101561096757600080fd5b81019080803573ffffffffffffffffffffffffffffffffffffffff169060200190929190803573ffffffffffffffffffffffffffffffffffffffff16906020019092919050505061351c565b604051808215151515815260200191505060405180910390f35b6109f9600480360360208110156109e357600080fd5b81019080803590602001909291905050506135b0565b60405180806020018e81526020018d81526020018c81526020018b81526020018a81526020018981526020018881526020018781526020018673ffffffffffffffffffffffffffffffffffffffff1673ffffffffffffffffffffffffffffffffffffffff16815260200185815260200184815260200183815260200182810382528f818151815260200191508051906020019080838360005b83811015610aad578082015181840152602081019050610a92565b50505050905090810190601f168015610ada5780820380516001836020036101000a031916815260200191505b509e50505050505050505050505050505060405180910390f35b610b2060048036036020811015610b0a57600080fd5b81019080803590602001909291905050506136db565b604051808273ffffffffffffffffffffffffffffffffffffffff1673ffffffffffffffffffffffffffffffffffffffff16815260200191505060405180910390f35b610c63600480360360c0811015610b7857600080fd5b81019080803573ffffffffffffffffffffffffffffffffffffffff16906020019092919080359060200190640100000000811115610bb557600080fd5b820183602082011115610bc757600080fd5b80359060200191846001830284011164010000000083111715610be957600080fd5b91908080601f016020809104026020016040519081016040528093929190818152602001838380828437600081840152601f19601f8201169050808301925050505050505091929192908035906020019092919080359060200190929190803590602001909291908035906020019092919050505061370e565b005b610c9160048036036020811015610c7b57600080fd5b8101908080359060200190929190505050613a95565b005b6000806000837bffffffffffffffffffffffffffffffffffffffffffffffffffffffff19167bffffffffffffffffffffffffffffffffffffffffffffffffffffffff1916815260200190815260200160002060009054906101000a900460ff169050919050565b6000610d0582613f5c565b610d0e57600080fd5b6002600083815260200190815260200160002060009054906101000a900473ffffffffffffffffffffffffffffffffffffffff169050919050565b6000610d5482611494565b90508073ffffffffffffffffffffffffffffffffffffffff168373ffffffffffffffffffffffffffffffffffffffff161415610d8f57600080fd5b8073ffffffffffffffffffffffffffffffffffffffff163373ffffffffffffffffffffffffffffffffffffffff161480610dcf5750610dce813361351c565b5b610dd857600080fd5b826002600084815260200190815260200160002060006101000a81548173ffffffffffffffffffffffffffffffffffffffff021916908373ffffffffffffffffffffffffffffffffffffffff160217905550818373ffffffffffffffffffffffffffffffffffffffff168273ffffffffffffffffffffffffffffffffffffffff167f8c5be1e5ebec7d5bd14f71427d1e84f3dd0314c0f7b2291e5b200ac8c7c3b92560405160405180910390a4505050565b610e943382613fce565b610e9d57600080fd5b600073ffffffffffffffffffffffffffffffffffffffff168273ffffffffffffffffffffffffffffffffffffffff161415610ed757600080fd5b610ee18382614063565b610eeb8382614162565b610ef58282614286565b808273ffffffffffffffffffffffffffffffffffffffff168473ffffffffffffffffffffffffffffffffffffffff167fddf252ad1be2c89b69c2b068fc378daa952ba7f163c4a11628f55a4df523b3ef60405160405180910390a4505050565b610f7083838360405180602001604052806000815250612b08565b505050565b80600a80600960009054906101000a900473ffffffffffffffffffffffffffffffffffffffff1673ffffffffffffffffffffffffffffffffffffffff16631a2b0eeb600a600086815260200190815260200160002060009054906101000a900473ffffffffffffffffffffffffffffffffffffffff166040518263ffffffff1660e01b8152600401808273ffffffffffffffffffffffffffffffffffffffff1673ffffffffffffffffffffffffffffffffffffffff16815260200191505060206040518083038186803b15801561104b57600080fd5b505afa15801561105f573d6000803e3d6000fd5b505050506040513d602081101561107557600080fd5b8101908080519060200190929190505050101561109157600080fd5b826040518060400160405280600d81526020017f4275737920547261696e696e670000000000000000000000000000000000000081525042600883815481106110d657fe5b90600052602060002090600d0201600a015411156110f357600080fd5b7ff021f208e3200c5fa30b2f3e6b0802de43b08a050585bdf778029822b5832117816040518080602001828103825283818151815260200191508051906020019080838360005b8381101561115557808201518184015260208101905061113a565b50505050905090810190601f1680156111825780820380516001836020036101000a031916815260200191505b509250505060405180910390a16111bc6008868154811061119f57fe5b90600052602060002090600d0201600501546001603260016143d5565b600886815481106111c957fe5b90600052602060002090600d02016005018190555061120b600886815481106111ee57fe5b90600052602060002090600d0201600701546014606460006143d5565b6008868154811061121857fe5b90600052602060002090600d02016007018190555061125a6008868154811061123d57fe5b90600052602060002090600d0201600801546014606460006143d5565b6008868154811061126757fe5b90600052602060002090600d0201600801819055506112c66008868154811061128c57fe5b90600052602060002090600d0201600201546005600888815481106112ad57fe5b90600052602060002090600d02016003015460006143d5565b600886815481106112d357fe5b90600052602060002090600d0201600201819055506112f18561442b565b6112fc42603c613499565b6008868154811061130957fe5b90600052602060002090600d0201600a0181905550600960009054906101000a900473ffffffffffffffffffffffffffffffffffffffff1673ffffffffffffffffffffffffffffffffffffffff166323b872dd600a600088815260200190815260200160002060009054906101000a900473ffffffffffffffffffffffffffffffffffffffff16600760009054906101000a900473ffffffffffffffffffffffffffffffffffffffff16600a6040518463ffffffff1660e01b8152600401808473ffffffffffffffffffffffffffffffffffffffff1673ffffffffffffffffffffffffffffffffffffffff1681526020018373ffffffffffffffffffffffffffffffffffffffff1673ffffffffffffffffffffffffffffffffffffffff1681526020018281526020019350505050602060405180830381600087803b15801561145157600080fd5b505af1158015611465573d6000803e3d6000fd5b505050506040513d602081101561147b57600080fd5b8101908080519060200190929190505050505050505050565b6000806001600084815260200190815260200160002060009054906101000a900473ffffffffffffffffffffffffffffffffffffffff169050600073ffffffffffffffffffffffffffffffffffffffff168173ffffffffffffffffffffffffffffffffffffffff16141561150757600080fd5b80915050919050565b60008073ffffffffffffffffffffffffffffffffffffffff168273ffffffffffffffffffffffffffffffffffffffff16141561154b57600080fd5b600360008373ffffffffffffffffffffffffffffffffffffffff1673ffffffffffffffffffffffffffffffffffffffff168152602001908152602001600020549050919050565b600b6020528060005260406000206000915090505481565b600960009054906101000a900473ffffffffffffffffffffffffffffffffffffffff1681565b600081600a80600960009054906101000a900473ffffffffffffffffffffffffffffffffffffffff1673ffffffffffffffffffffffffffffffffffffffff16631a2b0eeb600a600086815260200190815260200160002060009054906101000a900473ffffffffffffffffffffffffffffffffffffffff166040518263ffffffff1660e01b8152600401808273ffffffffffffffffffffffffffffffffffffffff1673ffffffffffffffffffffffffffffffffffffffff16815260200191505060206040518083038186803b1580156116a857600080fd5b505afa1580156116bc573d6000803e3d6000fd5b505050506040513d60208110156116d257600080fd5b810190808051906020019092919050505010156116ee57600080fd5b836040518060400160405280600b81526020017f4275737920456174696e67000000000000000000000000000000000000000000815250426008838154811061173357fe5b90600052602060002090600d0201600a0154111561175057600080fd5b7ff021f208e3200c5fa30b2f3e6b0802de43b08a050585bdf778029822b5832117816040518080602001828103825283818151815260200191508051906020019080838360005b838110156117b2578082015181840152602081019050611797565b50505050905090810190601f1680156117df5780820380516001836020036101000a031916815260200191505b509250505060405180910390a1611819600887815481106117fc57fe5b90600052602060002090600d0201600801546019606460016143d5565b6008878154811061182657fe5b90600052602060002090600d0201600801819055506118686008878154811061184b57fe5b90600052602060002090600d020160070154600a606460006143d5565b6008878154811061187557fe5b90600052602060002090600d0201600701819055506118d46008878154811061189a57fe5b90600052602060002090600d0201600201546005600889815481106118bb57fe5b90600052602060002090600d02016003015460016143d5565b600887815481106118e157fe5b90600052602060002090600d02016002018190555061190142603c613499565b6008878154811061190e57fe5b90600052602060002090600d0201600a0181905550600960009054906101000a900473ffffffffffffffffffffffffffffffffffffffff1673ffffffffffffffffffffffffffffffffffffffff166323b872dd600a600089815260200190815260200160002060009054906101000a900473ffffffffffffffffffffffffffffffffffffffff16600760009054906101000a900473ffffffffffffffffffffffffffffffffffffffff16600a6040518463ffffffff1660e01b8152600401808473ffffffffffffffffffffffffffffffffffffffff1673ffffffffffffffffffffffffffffffffffffffff1681526020018373ffffffffffffffffffffffffffffffffffffffff1673ffffffffffffffffffffffffffffffffffffffff1681526020018281526020019350505050602060405180830381600087803b158015611a5657600080fd5b505af1158015611a6a573d6000803e3d6000fd5b505050506040513d6020811015611a8057600080fd5b8101908080519060200190929190505050506001945050505050919050565b600760009054906101000a900473ffffffffffffffffffffffffffffffffffffffff1681565b3373ffffffffffffffffffffffffffffffffffffffff168273ffffffffffffffffffffffffffffffffffffffff161415611afe57600080fd5b80600460003373ffffffffffffffffffffffffffffffffffffffff1673ffffffffffffffffffffffffffffffffffffffff16815260200190815260200160002060008473ffffffffffffffffffffffffffffffffffffffff1673ffffffffffffffffffffffffffffffffffffffff16815260200190815260200160002060006101000a81548160ff0219169083151502179055508173ffffffffffffffffffffffffffffffffffffffff163373ffffffffffffffffffffffffffffffffffffffff167f17307eab39ab6107e8899845ad3d59bd9653f200f220920489ca2b5937696c3183604051808215151515815260200191505060405180910390a35050565b600082821115611c77576040517f08c379a00000000000000000000000000000000000000000000000000000000081526004018080602001828103825260088152602001807f736166652073756200000000000000000000000000000000000000000000000081525060200191505060405180910390fd5b818303905092915050565b80600a80600960009054906101000a900473ffffffffffffffffffffffffffffffffffffffff1673ffffffffffffffffffffffffffffffffffffffff16631a2b0eeb600a600086815260200190815260200160002060009054906101000a900473ffffffffffffffffffffffffffffffffffffffff166040518263ffffffff1660e01b8152600401808273ffffffffffffffffffffffffffffffffffffffff1673ffffffffffffffffffffffffffffffffffffffff16815260200191505060206040518083038186803b158015611d5857600080fd5b505afa158015611d6c573d6000803e3d6000fd5b505050506040513d6020811015611d8257600080fd5b81019080805190602001909291905050501015611d9e57600080fd5b826040518060400160405280600d81526020017f4275737920547261696e696e67000000000000000000000000000000000000008152504260088381548110611de357fe5b90600052602060002090600d0201600a01541115611e0057600080fd5b7ff021f208e3200c5fa30b2f3e6b0802de43b08a050585bdf778029822b5832117816040518080602001828103825283818151815260200191508051906020019080838360005b83811015611e62578082015181840152602081019050611e47565b50505050905090810190601f168015611e8f5780820380516001836020036101000a031916815260200191505b509250505060405180910390a1611ec960088681548110611eac57fe5b90600052602060002090600d0201600401546001603260016143d5565b60088681548110611ed657fe5b90600052602060002090600d020160040181905550611f1860088681548110611efb57fe5b90600052602060002090600d0201600701546014606460006143d5565b60088681548110611f2557fe5b90600052602060002090600d020160070181905550611f6760088681548110611f4a57fe5b90600052602060002090600d0201600801546014606460006143d5565b60088681548110611f7457fe5b90600052602060002090600d020160080181905550611fd360088681548110611f9957fe5b90600052602060002090600d020160020154600560088881548110611fba57fe5b90600052602060002090600d02016003015460006143d5565b60088681548110611fe057fe5b90600052602060002090600d020160020181905550611ffe8561442b565b61200942603c613499565b6008868154811061201657fe5b90600052602060002090600d0201600a0181905550600960009054906101000a900473ffffffffffffffffffffffffffffffffffffffff1673ffffffffffffffffffffffffffffffffffffffff166323b872dd600a600088815260200190815260200160002060009054906101000a900473ffffffffffffffffffffffffffffffffffffffff16600760009054906101000a900473ffffffffffffffffffffffffffffffffffffffff16600a6040518463ffffffff1660e01b8152600401808473ffffffffffffffffffffffffffffffffffffffff1673ffffffffffffffffffffffffffffffffffffffff1681526020018373ffffffffffffffffffffffffffffffffffffffff1673ffffffffffffffffffffffffffffffffffffffff1681526020018281526020019350505050602060405180830381600087803b15801561215e57600080fd5b505af1158015612172573d6000803e3d6000fd5b505050506040513d602081101561218857600080fd5b8101908080519060200190929190505050505050505050565b60006121de6121cf6064600885815481106121b857fe5b90600052602060002090600d020160010154613403565b6121d96064614479565b613499565b905060006121eb83614509565b90508181111561237457600960009054906101000a900473ffffffffffffffffffffffffffffffffffffffff1673ffffffffffffffffffffffffffffffffffffffff166323b872dd600760009054906101000a900473ffffffffffffffffffffffffffffffffffffffff166008868154811061226357fe5b90600052602060002090600d020160090160009054906101000a900473ffffffffffffffffffffffffffffffffffffffff1660196040518463ffffffff1660e01b8152600401808473ffffffffffffffffffffffffffffffffffffffff1673ffffffffffffffffffffffffffffffffffffffff1681526020018373ffffffffffffffffffffffffffffffffffffffff1673ffffffffffffffffffffffffffffffffffffffff1681526020018281526020019350505050602060405180830381600087803b15801561233357600080fd5b505af1158015612347573d6000803e3d6000fd5b505050506040513d602081101561235d57600080fd5b8101908080519060200190929190505050506124ef565b600960009054906101000a900473ffffffffffffffffffffffffffffffffffffffff1673ffffffffffffffffffffffffffffffffffffffff166323b872dd600885815481106123bf57fe5b90600052602060002090600d020160090160009054906101000a900473ffffffffffffffffffffffffffffffffffffffff16600760009054906101000a900473ffffffffffffffffffffffffffffffffffffffff16600a6040518463ffffffff1660e01b8152600401808473ffffffffffffffffffffffffffffffffffffffff1673ffffffffffffffffffffffffffffffffffffffff1681526020018373ffffffffffffffffffffffffffffffffffffffff1673ffffffffffffffffffffffffffffffffffffffff1681526020018281526020019350505050602060405180830381600087803b1580156124b257600080fd5b505af11580156124c6573d6000803e3d6000fd5b505050506040513d60208110156124dc57600080fd5b8101908080519060200190929190505050505b6124fa42603c613499565b6008848154811061250757fe5b90600052602060002090600d0201600a01819055507f775673b504a8a0c48d0311ac71cf0f78c79e72f95662baefde277a3fb65938528183604051808381526020018281526020019250505060405180910390a1505050565b80600a80600960009054906101000a900473ffffffffffffffffffffffffffffffffffffffff1673ffffffffffffffffffffffffffffffffffffffff16631a2b0eeb600a600086815260200190815260200160002060009054906101000a900473ffffffffffffffffffffffffffffffffffffffff166040518263ffffffff1660e01b8152600401808273ffffffffffffffffffffffffffffffffffffffff1673ffffffffffffffffffffffffffffffffffffffff16815260200191505060206040518083038186803b15801561263657600080fd5b505afa15801561264a573d6000803e3d6000fd5b505050506040513d602081101561266057600080fd5b8101908080519060200190929190505050101561267c57600080fd5b826040518060400160405280600d81526020017f4275737920547261696e696e670000000000000000000000000000000000000081525042600883815481106126c157fe5b90600052602060002090600d0201600a015411156126de57600080fd5b7ff021f208e3200c5fa30b2f3e6b0802de43b08a050585bdf778029822b5832117816040518080602001828103825283818151815260200191508051906020019080838360005b83811015612740578082015181840152602081019050612725565b50505050905090810190601f16801561276d5780820380516001836020036101000a031916815260200191505b509250505060405180910390a16127a76008868154811061278a57fe5b90600052602060002090600d0201600601546001603260016143d5565b600886815481106127b457fe5b90600052602060002090600d0201600601819055506127f6600886815481106127d957fe5b90600052602060002090600d0201600701546014606460006143d5565b6008868154811061280357fe5b90600052602060002090600d0201600701819055506128456008868154811061282857fe5b90600052602060002090600d0201600801546014606460006143d5565b6008868154811061285257fe5b90600052602060002090600d0201600801819055506128b16008868154811061287757fe5b90600052602060002090600d02016002015460056008888154811061289857fe5b90600052602060002090600d02016003015460006143d5565b600886815481106128be57fe5b90600052602060002090600d0201600201819055506128dc8561442b565b6128e742603c613499565b600886815481106128f457fe5b90600052602060002090600d0201600a0181905550600960009054906101000a900473ffffffffffffffffffffffffffffffffffffffff1673ffffffffffffffffffffffffffffffffffffffff166323b872dd600a600088815260200190815260200160002060009054906101000a900473ffffffffffffffffffffffffffffffffffffffff16600760009054906101000a900473ffffffffffffffffffffffffffffffffffffffff16600a6040518463ffffffff1660e01b8152600401808473ffffffffffffffffffffffffffffffffffffffff1673ffffffffffffffffffffffffffffffffffffffff1681526020018373ffffffffffffffffffffffffffffffffffffffff1673ffffffffffffffffffffffffffffffffffffffff1681526020018281526020019350505050602060405180830381600087803b158015612a3c57600080fd5b505af1158015612a50573d6000803e3d6000fd5b505050506040513d6020811015612a6657600080fd5b8101908080519060200190929190505050505050505050565b6000808211612af6576040517f08c379a00000000000000000000000000000000000000000000000000000000081526004018080602001828103825260088152602001807f736166652064697600000000000000000000000000000000000000000000000081525060200191505060405180910390fd5b818381612aff57fe5b04905092915050565b612b13848484610e8a565b50505050565b60065481565b806040518060400160405280601081526020017f4f70706f6e656e742049732042757379000000000000000000000000000000008152504260088381548110612b6457fe5b90600052602060002090600d0201600a01541115612b8157600080fd5b7ff021f208e3200c5fa30b2f3e6b0802de43b08a050585bdf778029822b5832117816040518080602001828103825283818151815260200191508051906020019080838360005b83811015612be3578082015181840152602081019050612bc8565b50505050905090810190601f168015612c105780820380516001836020036101000a031916815260200191505b509250505060405180910390a14260088481548110612c2b57fe5b90600052602060002090600d0201600b015411158015612c87575060088381548110612c5357fe5b90600052602060002090600d02016001015460088581548110612c7257fe5b90600052602060002090600d02016001015411155b612c9057600080fd5b612c9983614509565b612ca285614509565b111561312157612cb342603c613499565b60088481548110612cc057fe5b90600052602060002090600d0201600b01819055506000612d0060088681548110612ce757fe5b90600052602060002090600d0201600c01546001613499565b905060088581548110612d0f57fe5b90600052602060002090600d020160010154811415612f3d57600060088681548110612d3757fe5b90600052602060002090600d0201600c0181905550612d7560088681548110612d5c57fe5b90600052602060002090600d0201600101546001613499565b60088681548110612d8257fe5b90600052602060002090600d020160010181905550600960009054906101000a900473ffffffffffffffffffffffffffffffffffffffff1673ffffffffffffffffffffffffffffffffffffffff166323b872dd600760009054906101000a900473ffffffffffffffffffffffffffffffffffffffff1660088881548110612e0557fe5b90600052602060002090600d020160090160009054906101000a900473ffffffffffffffffffffffffffffffffffffffff16612e6060088a81548110612e4757fe5b90600052602060002090600d0201600101546005613403565b6040518463ffffffff1660e01b8152600401808473ffffffffffffffffffffffffffffffffffffffff1673ffffffffffffffffffffffffffffffffffffffff1681526020018373ffffffffffffffffffffffffffffffffffffffff1673ffffffffffffffffffffffffffffffffffffffff1681526020018281526020019350505050602060405180830381600087803b158015612efc57600080fd5b505af1158015612f10573d6000803e3d6000fd5b505050506040513d6020811015612f2657600080fd5b810190808051906020019092919050505050612f61565b8060088681548110612f4b57fe5b90600052602060002090600d0201600c01819055505b612f6a8561458b565b600960009054906101000a900473ffffffffffffffffffffffffffffffffffffffff1673ffffffffffffffffffffffffffffffffffffffff166323b872dd600760009054906101000a900473ffffffffffffffffffffffffffffffffffffffff1660088881548110612fd857fe5b90600052602060002090600d020160090160009054906101000a900473ffffffffffffffffffffffffffffffffffffffff16600a6040518463ffffffff1660e01b8152600401808473ffffffffffffffffffffffffffffffffffffffff1673ffffffffffffffffffffffffffffffffffffffff1681526020018373ffffffffffffffffffffffffffffffffffffffff1673ffffffffffffffffffffffffffffffffffffffff1681526020018281526020019350505050602060405180830381600087803b1580156130a857600080fd5b505af11580156130bc573d6000803e3d6000fd5b505050506040513d60208110156130d257600080fd5b8101908080519060200190929190505050507fbb3d2435d73ea44ac623b225c6c58edec133edbcc0326a6f1e9d1d5b438252ff856040518082815260200191505060405180910390a1506133d0565b6000600a905060006008868154811061313657fe5b90600052602060002090600d0201600c015414156131c95760016008868154811061315d57fe5b90600052602060002090600d020160010154146131c45761319d6008868154811061318457fe5b90600052602060002090600d0201600101546001611bff565b600886815481106131aa57fe5b90600052602060002090600d020160010181905550600090505b613215565b6131f2600886815481106131d957fe5b90600052602060002090600d0201600c01546001611bff565b600886815481106131ff57fe5b90600052602060002090600d0201600c01819055505b61321e8561466f565b600960009054906101000a900473ffffffffffffffffffffffffffffffffffffffff1673ffffffffffffffffffffffffffffffffffffffff166323b872dd6008878154811061326957fe5b90600052602060002090600d020160090160009054906101000a900473ffffffffffffffffffffffffffffffffffffffff16600760009054906101000a900473ffffffffffffffffffffffffffffffffffffffff16846040518463ffffffff1660e01b8152600401808473ffffffffffffffffffffffffffffffffffffffff1673ffffffffffffffffffffffffffffffffffffffff1681526020018373ffffffffffffffffffffffffffffffffffffffff1673ffffffffffffffffffffffffffffffffffffffff1681526020018281526020019350505050602060405180830381600087803b15801561335b57600080fd5b505af115801561336f573d6000803e3d6000fd5b505050506040513d602081101561338557600080fd5b8101908080519060200190929190505050507fbb3d2435d73ea44ac623b225c6c58edec133edbcc0326a6f1e9d1d5b438252ff846040518082815260200191505060405180910390a1505b6133db42603c613499565b600885815481106133e857fe5b90600052602060002090600d0201600a018190555050505050565b60008183029050600083148061342157508183828161341e57fe5b04145b613493576040517f08c379a00000000000000000000000000000000000000000000000000000000081526004018080602001828103825260088152602001807f73616665204d756c00000000000000000000000000000000000000000000000081525060200191505060405180910390fd5b92915050565b6000818301905082811015613516576040517f08c379a00000000000000000000000000000000000000000000000000000000081526004018080602001828103825260088152602001807f736166652061646400000000000000000000000000000000000000000000000081525060200191505060405180910390fd5b92915050565b6000600460008473ffffffffffffffffffffffffffffffffffffffff1673ffffffffffffffffffffffffffffffffffffffff16815260200190815260200160002060008373ffffffffffffffffffffffffffffffffffffffff1673ffffffffffffffffffffffffffffffffffffffff16815260200190815260200160002060009054906101000a900460ff16905092915050565b600881815481106135bd57fe5b90600052602060002090600d0201600091509050806000018054600181600116156101000203166002900480601f0160208091040260200160405190810160405280929190818152602001828054600181600116156101000203166002900480156136695780601f1061363e57610100808354040283529160200191613669565b820191906000526020600020905b81548152906001019060200180831161364c57829003601f168201915b5050505050908060010154908060020154908060030154908060040154908060050154908060060154908060070154908060080154908060090160009054906101000a900473ffffffffffffffffffffffffffffffffffffffff169080600a01549080600b01549080600c015490508d565b600a6020528060005260406000206000915054906101000a900473ffffffffffffffffffffffffffffffffffffffff1681565b600060016008604051806101a001604052808981526020016001815260200161374161373b876002612a7f565b87614771565b81526020018581526020018881526020018781526020018681526020016137686064614479565b81526020016137776064614479565b81526020018a73ffffffffffffffffffffffffffffffffffffffff16815260200142815260200142815260200160008152509080600181540180825580915050906001820390600052602060002090600d02016000909192909190915060008201518160000190805190602001906137f0929190614bef565b506020820151816001015560408201518160020155606082015181600301556080820151816004015560a0820151816005015560c0820151816006015560e0820151816007015561010082015181600801556101208201518160090160006101000a81548173ffffffffffffffffffffffffffffffffffffffff021916908373ffffffffffffffffffffffffffffffffffffffff16021790555061014082015181600a015561016082015181600b015561018082015181600c0155505003905086600a600083815260200190815260200160002060006101000a81548173ffffffffffffffffffffffffffffffffffffffff021916908373ffffffffffffffffffffffffffffffffffffffff16021790555080600b60008973ffffffffffffffffffffffffffffffffffffffff1673ffffffffffffffffffffffffffffffffffffffff16815260200190815260200160002081905550600960009054906101000a900473ffffffffffffffffffffffffffffffffffffffff1673ffffffffffffffffffffffffffffffffffffffff166323b872dd600760009054906101000a900473ffffffffffffffffffffffffffffffffffffffff168960326040518463ffffffff1660e01b8152600401808473ffffffffffffffffffffffffffffffffffffffff1673ffffffffffffffffffffffffffffffffffffffff1681526020018373ffffffffffffffffffffffffffffffffffffffff1673ffffffffffffffffffffffffffffffffffffffff1681526020018281526020019350505050602060405180830381600087803b158015613a4657600080fd5b505af1158015613a5a573d6000803e3d6000fd5b505050506040513d6020811015613a7057600080fd5b810190808051906020019092919050505050613a8c878261481c565b50505050505050565b80600a80600960009054906101000a900473ffffffffffffffffffffffffffffffffffffffff1673ffffffffffffffffffffffffffffffffffffffff16631a2b0eeb600a600086815260200190815260200160002060009054906101000a900473ffffffffffffffffffffffffffffffffffffffff166040518263ffffffff1660e01b8152600401808273ffffffffffffffffffffffffffffffffffffffff1673ffffffffffffffffffffffffffffffffffffffff16815260200191505060206040518083038186803b158015613b6b57600080fd5b505afa158015613b7f573d6000803e3d6000fd5b505050506040513d6020811015613b9557600080fd5b81019080805190602001909291905050501015613bb157600080fd5b826040518060400160405280600d81526020017f4275737920536c656570696e67000000000000000000000000000000000000008152504260088381548110613bf657fe5b90600052602060002090600d0201600a01541115613c1357600080fd5b7ff021f208e3200c5fa30b2f3e6b0802de43b08a050585bdf778029822b5832117816040518080602001828103825283818151815260200191508051906020019080838360005b83811015613c75578082015181840152602081019050613c5a565b50505050905090810190601f168015613ca25780820380516001836020036101000a031916815260200191505b509250505060405180910390a1613cdc60088681548110613cbf57fe5b90600052602060002090600d0201600701546019606460016143d5565b60088681548110613ce957fe5b90600052602060002090600d020160070181905550613d2b60088681548110613d0e57fe5b90600052602060002090600d020160080154600a606460006143d5565b60088681548110613d3857fe5b90600052602060002090600d020160080181905550613d9760088681548110613d5d57fe5b90600052602060002090600d020160020154601460088881548110613d7e57fe5b90600052602060002090600d02016003015460016143d5565b60088681548110613da457fe5b90600052602060002090600d020160020181905550613dc442603c613499565b60088681548110613dd157fe5b90600052602060002090600d0201600a0181905550600960009054906101000a900473ffffffffffffffffffffffffffffffffffffffff1673ffffffffffffffffffffffffffffffffffffffff166323b872dd600a600088815260200190815260200160002060009054906101000a900473ffffffffffffffffffffffffffffffffffffffff16600760009054906101000a900473ffffffffffffffffffffffffffffffffffffffff16600a6040518463ffffffff1660e01b8152600401808473ffffffffffffffffffffffffffffffffffffffff1673ffffffffffffffffffffffffffffffffffffffff1681526020018373ffffffffffffffffffffffffffffffffffffffff1673ffffffffffffffffffffffffffffffffffffffff1681526020018281526020019350505050602060405180830381600087803b158015613f1957600080fd5b505af1158015613f2d573d6000803e3d6000fd5b505050506040513d6020811015613f4357600080fd5b8101908080519060200190929190505050505050505050565b6000806001600084815260200190815260200160002060009054906101000a900473ffffffffffffffffffffffffffffffffffffffff169050600073ffffffffffffffffffffffffffffffffffffffff168173ffffffffffffffffffffffffffffffffffffffff161415915050919050565b600080613fda83611494565b90508073ffffffffffffffffffffffffffffffffffffffff168473ffffffffffffffffffffffffffffffffffffffff16148061404957508373ffffffffffffffffffffffffffffffffffffffff1661403184610cfa565b73ffffffffffffffffffffffffffffffffffffffff16145b8061405a5750614059818561351c565b5b91505092915050565b8173ffffffffffffffffffffffffffffffffffffffff1661408382611494565b73ffffffffffffffffffffffffffffffffffffffff16146140a357600080fd5b600073ffffffffffffffffffffffffffffffffffffffff166002600083815260200190815260200160002060009054906101000a900473ffffffffffffffffffffffffffffffffffffffff1673ffffffffffffffffffffffffffffffffffffffff161461415e5760006002600083815260200190815260200160002060006101000a81548173ffffffffffffffffffffffffffffffffffffffff021916908373ffffffffffffffffffffffffffffffffffffffff1602179055505b5050565b8173ffffffffffffffffffffffffffffffffffffffff1661418282611494565b73ffffffffffffffffffffffffffffffffffffffff16146141a257600080fd5b6141ec600360008473ffffffffffffffffffffffffffffffffffffffff1673ffffffffffffffffffffffffffffffffffffffff168152602001908152602001600020546001611bff565b600360008473ffffffffffffffffffffffffffffffffffffffff1673ffffffffffffffffffffffffffffffffffffffff1681526020019081526020016000208190555060006001600083815260200190815260200160002060006101000a81548173ffffffffffffffffffffffffffffffffffffffff021916908373ffffffffffffffffffffffffffffffffffffffff1602179055505050565b600073ffffffffffffffffffffffffffffffffffffffff166001600083815260200190815260200160002060009054906101000a900473ffffffffffffffffffffffffffffffffffffffff1673ffffffffffffffffffffffffffffffffffffffff16146142f257600080fd5b816001600083815260200190815260200160002060006101000a81548173ffffffffffffffffffffffffffffffffffffffff021916908373ffffffffffffffffffffffffffffffffffffffff16021790555061438e600360008473ffffffffffffffffffffffffffffffffffffffff1673ffffffffffffffffffffffffffffffffffffffff168152602001908152602001600020546001613499565b600360008473ffffffffffffffffffffffffffffffffffffffff1673ffffffffffffffffffffffffffffffffffffffff168152602001908152602001600020819055505050565b600081156144055760006143e98686613499565b9050838111156143fc5783915050614423565b80915050614423565b838510156144165760009050614423565b6144208585611bff565b90505b949350505050565b6144546008828154811061443b57fe5b90600052602060002090600d0201600301546002613499565b6008828154811061446157fe5b90600052602060002090600d02016003018190555050565b60006144886005546001613499565b600581905550814233600554604051602001808481526020018373ffffffffffffffffffffffffffffffffffffffff1673ffffffffffffffffffffffffffffffffffffffff1660601b815260140182815260200193505050506040516020818303038152906040528051906020012060001c8161450157fe5b069050919050565b60008061458061453f6008858154811061451f57fe5b90600052602060002090600d02016002015461453a866148c0565b613403565b61457b61455c61454e87614949565b614557886149b1565b613403565b61457661456888614a9c565b61457189614b04565b613403565b613499565b613499565b905080915050919050565b6145b46008828154811061459b57fe5b90600052602060002090600d0201600201546004612a7f565b600882815481106145c157fe5b90600052602060002090600d0201600201819055506145ff600882815481106145e657fe5b90600052602060002090600d0201600801546003612a7f565b6008828154811061460c57fe5b90600052602060002090600d02016008018190555061464a6008828154811061463157fe5b90600052602060002090600d0201600701546003612a7f565b6008828154811061465757fe5b90600052602060002090600d02016007018190555050565b6146a261469b6008838154811061468257fe5b90600052602060002090600d0201600201546002612a7f565b6002612a7f565b600882815481106146af57fe5b90600052602060002090600d0201600201819055506146f76146f0600883815481106146d757fe5b90600052602060002090600d0201600801546002612a7f565b6003612a7f565b6008828154811061470457fe5b90600052602060002090600d02016008018190555061474c6147456008838154811061472c57fe5b90600052602060002090600d0201600701546002612a7f565b6002612a7f565b6008828154811061475957fe5b90600052602060002090600d02016007018190555050565b60008061477e8385611bff565b4233600554604051602001808481526020018373ffffffffffffffffffffffffffffffffffffffff1673ffffffffffffffffffffffffffffffffffffffff1660601b815260140182815260200193505050506040516020818303038152906040528051906020012060001c816147f057fe5b0690506147fd8185613499565b905061480c6005546001613499565b6005819055508091505092915050565b600073ffffffffffffffffffffffffffffffffffffffff168273ffffffffffffffffffffffffffffffffffffffff16141561485657600080fd5b6148608282614286565b808273ffffffffffffffffffffffffffffffffffffffff16600073ffffffffffffffffffffffffffffffffffffffff167fddf252ad1be2c89b69c2b068fc378daa952ba7f163c4a11628f55a4df523b3ef60405160405180910390a45050565b6000600a600883815481106148d157fe5b90600052602060002090600d02016002015410156148f25760009050614944565b600882815481106148ff57fe5b90600052602060002090600d0201600301546008838154811061491e57fe5b90600052602060002090600d020160020154141561493f5760029050614944565b600190505b919050565b6000806149a66149786008858154811061495f57fe5b90600052602060002090600d0201600401546003613403565b6149a16008868154811061498857fe5b90600052602060002090600d0201600601546002613403565b613499565b905080915050919050565b60006005600883815481106149c257fe5b90600052602060002090600d02016007015410156149e35760009050614a97565b6005600883815481106149f257fe5b90600052602060002090600d02016007015410158015614a305750603260088381548110614a1c57fe5b90600052602060002090600d020160070154105b80614a845750604b60088381548110614a4557fe5b90600052602060002090600d020160070154118015614a835750606460088381548110614a6e57fe5b90600052602060002090600d02016007015411155b5b15614a925760019050614a97565b600290505b919050565b600080614af9614acb60088581548110614ab257fe5b90600052602060002090600d0201600501546003613403565b614af460088681548110614adb57fe5b90600052602060002090600d0201600601546002613403565b613499565b905080915050919050565b6000600a60088381548110614b1557fe5b90600052602060002090600d0201600801541015614b365760009050614bea565b600a60088381548110614b4557fe5b90600052602060002090600d02016008015410158015614b835750603c60088381548110614b6f57fe5b90600052602060002090600d020160080154105b80614bd75750605060088381548110614b9857fe5b90600052602060002090600d020160080154118015614bd65750606460088381548110614bc157fe5b90600052602060002090600d02016008015411155b5b15614be55760019050614bea565b600290505b919050565b828054600181600116156101000203166002900490600052602060002090601f016020900481019282601f10614c3057805160ff1916838001178555614c5e565b82800160010185558215614c5e579182015b82811115614c5d578251825591602001919060010190614c42565b5b509050614c6b9190614c6f565b5090565b614c9191905b80821115614c8d576000816000905550600101614c75565b5090565b9056fea265627a7a72315820a0e0a7018988a255665f46e6b0c2e112d3ea5876b1406d19a593a99dc278860c64736f6c63430005100032",
  "source": "pragma solidity ^0.5.0;\r\n\r\nimport \"./ERC721.sol\";\r\nimport \"./GoldCoinToken.sol\";\r\n\r\ncontract CryptoGame is ERC721 {\r\n    // constants\r\n    uint256 constant MIN_AMOUNT = 5;\r\n    uint256 constant LOW_AMOUNT = 10;\r\n    uint256 constant STANDARD_AMOUNT = 20;\r\n    uint256 constant HIGH_AMOUNT = 25;\r\n\r\n    uint256 constant MAX_STAMINA = 50;\r\n    uint256 constant MAX_STRENGTH = 50;\r\n    uint256 constant MAX_DEXTERITY = 50;\r\n    uint256 constant MAX_VIGOR = 100;\r\n    uint256 constant MAX_SATIATION = 100;\r\n\r\n    // every action cooldown is the same for the sake of simplicity\r\n    uint256 constant ACTION_COOLDOWN = 1 minutes;\r\n    uint256 constant TRAINING_COST = 10;\r\n\r\n    struct Gladiator {\r\n        string name;\r\n        uint256 tier; // gladiators can fight other players' gladiators whose on the same tier\r\n        uint256 hp;\r\n        uint256 max_hp;\r\n        uint256 stamina;\r\n        uint256 strength;\r\n        uint256 dexterity;\r\n        uint256 vigor;\r\n        uint256 satiation;\r\n        address owner; // needed for mapping issues when there're 0 or 1 gladiator recruited\r\n        uint256 cooldownTime; // keeps track when the gladiator can perform a new action\r\n        uint256 safetyNetCooldown; // safety net so loosing gladiator wont be able to be abused by other players\r\n        uint256 wins; // number of wins the gladiators has in the current tier\r\n    }\r\n\r\n    uint256 randNonce = 0;\r\n    uint256 public numGladiators = 0;\r\n    address public owner;\r\n\r\n    Gladiator[] public gladiators;\r\n    GoldCoinToken public bank;\r\n\r\n    mapping(uint256 => address) public gladiatorToOwner;\r\n    mapping(address => uint256) public ownerToGladiator;\r\n\r\n    event BusyEvent(string _messege); // when the gladiator is performing an action\r\n    event Winner(uint256 _winnerId); // invoked when a player challenges another player\r\n    event AIFightStatistics(uint256 _myPower, uint256 _aiPower); // when challenging the AI\r\n\r\n    // checks if the gladiators' boss has enough funds to perform an action\r\n    modifier canAfford(uint256 _id, uint256 _cost) {\r\n        require(bank.thebalanceOf(gladiatorToOwner[_id]) >= _cost);\r\n        _;\r\n    }\r\n\r\n    // checks if a gladiator is resting from an action\r\n    modifier isBusy(uint256 _id, string memory _message) {\r\n        require(gladiators[_id].cooldownTime <= now);\r\n        emit BusyEvent(_message);\r\n        _;\r\n    }\r\n\r\n    constructor(GoldCoinToken tokens) public {\r\n        owner = msg.sender;\r\n        bank = tokens;\r\n    }\r\n\r\n    function randMod(uint256 _modulus) internal returns (uint256) {\r\n        randNonce = safeAdd(randNonce, 1);\r\n        return\r\n            uint256(keccak256(abi.encodePacked(now, msg.sender, randNonce))) %\r\n            _modulus;\r\n    }\r\n\r\n    function randomInRange(uint256 _low, uint256 _high)\r\n        internal\r\n        returns (uint256)\r\n    {\r\n        uint256 randomnumber =\r\n            uint256(keccak256(abi.encodePacked(now, msg.sender, randNonce))) %\r\n                safeSub(_high, _low);\r\n        randomnumber = safeAdd(randomnumber, _low);\r\n        randNonce = safeAdd(randNonce, 1);\r\n        return randomnumber;\r\n    }\r\n\r\n    // get statistics from frontend by the user and create a new gladiator instance, then map it\r\n    function recruitGladiator(\r\n        address _owner,\r\n        string memory _name,\r\n        uint256 _stamina,\r\n        uint256 _strength,\r\n        uint256 _dexterity,\r\n        uint256 _maxHp\r\n    ) public {\r\n        uint256 id =\r\n            gladiators.push(\r\n                Gladiator(\r\n                    _name,\r\n                    1,\r\n                    randomInRange(safeDiv(_maxHp, 2), _maxHp),\r\n                    _maxHp,\r\n                    _stamina,\r\n                    _strength,\r\n                    _dexterity,\r\n                    randMod(100),\r\n                    randMod(100),\r\n                    _owner,\r\n                    now,\r\n                    now,\r\n                    0\r\n                )\r\n            ) - 1;\r\n        gladiatorToOwner[id] = _owner;\r\n        ownerToGladiator[_owner] = id;\r\n        bank.transferFrom(owner, _owner, 50);\r\n        _mint(_owner, id);\r\n    }\r\n\r\n    // new functions:\r\n    function updateMaxHP(uint256 _gladiatorId) internal {\r\n        gladiators[_gladiatorId].max_hp = safeAdd(\r\n            gladiators[_gladiatorId].max_hp,\r\n            2\r\n        );\r\n    }\r\n\r\n    // makes sure that when gladiators' attribute is about to be updates - it won't go over the set limit\r\n    function checkLimitsOfStat(\r\n        uint256 stat,\r\n        uint256 amount,\r\n        uint256 max,\r\n        bool isAddition\r\n    ) internal view returns (uint256) {\r\n        if (isAddition) {\r\n            uint256 res = safeAdd(stat, amount);\r\n            if (res > max) {\r\n                return max;\r\n            } else {\r\n                return res;\r\n            }\r\n        } else {\r\n            if (stat < amount) {\r\n                return 0;\r\n            } else {\r\n                return safeSub(stat, amount);\r\n            }\r\n        }\r\n    }\r\n\r\n    // eat action: +satiation +hp -vigor\r\n    function eat(uint256 _gladiatorId)\r\n        external\r\n        canAfford(_gladiatorId, TRAINING_COST)\r\n        isBusy(_gladiatorId, \"Busy Eating\")\r\n        returns (bool)\r\n    {\r\n        gladiators[_gladiatorId].satiation = checkLimitsOfStat(\r\n            gladiators[_gladiatorId].satiation,\r\n            HIGH_AMOUNT,\r\n            MAX_SATIATION,\r\n            true\r\n        );\r\n\r\n        gladiators[_gladiatorId].vigor = checkLimitsOfStat(\r\n            gladiators[_gladiatorId].vigor,\r\n            LOW_AMOUNT,\r\n            MAX_VIGOR,\r\n            false\r\n        );\r\n\r\n        gladiators[_gladiatorId].hp = checkLimitsOfStat(\r\n            gladiators[_gladiatorId].hp,\r\n            MIN_AMOUNT,\r\n            gladiators[_gladiatorId].max_hp,\r\n            true\r\n        );\r\n\r\n        gladiators[_gladiatorId].cooldownTime = safeAdd(now, ACTION_COOLDOWN);\r\n        bank.transferFrom(gladiatorToOwner[_gladiatorId], owner, TRAINING_COST);\r\n        return true;\r\n    }\r\n\r\n    // sleep action +vigor +hp -satiation\r\n    function sleep(uint256 _gladiatorId)\r\n        external\r\n        canAfford(_gladiatorId, TRAINING_COST)\r\n        isBusy(_gladiatorId, \"Busy Sleeping\")\r\n    {\r\n        gladiators[_gladiatorId].vigor = checkLimitsOfStat(\r\n            gladiators[_gladiatorId].vigor,\r\n            HIGH_AMOUNT,\r\n            MAX_VIGOR,\r\n            true\r\n        );\r\n\r\n        gladiators[_gladiatorId].satiation = checkLimitsOfStat(\r\n            gladiators[_gladiatorId].satiation,\r\n            LOW_AMOUNT,\r\n            MAX_SATIATION,\r\n            false\r\n        );\r\n\r\n        gladiators[_gladiatorId].hp = checkLimitsOfStat(\r\n            gladiators[_gladiatorId].hp,\r\n            STANDARD_AMOUNT,\r\n            gladiators[_gladiatorId].max_hp,\r\n            true\r\n        );\r\n\r\n        gladiators[_gladiatorId].cooldownTime = safeAdd(now, ACTION_COOLDOWN);\r\n        bank.transferFrom(gladiatorToOwner[_gladiatorId], owner, TRAINING_COST);\r\n    }\r\n\r\n    // +strength +maxhp -vigor -satiation -hp\r\n    function muscleTraining(uint256 _gladiatorId)\r\n        external\r\n        canAfford(_gladiatorId, TRAINING_COST)\r\n        isBusy(_gladiatorId, \"Busy Training\")\r\n    {\r\n        gladiators[_gladiatorId].strength = checkLimitsOfStat(\r\n            gladiators[_gladiatorId].strength,\r\n            1,\r\n            MAX_STRENGTH,\r\n            true\r\n        );\r\n\r\n        gladiators[_gladiatorId].vigor = checkLimitsOfStat(\r\n            gladiators[_gladiatorId].vigor,\r\n            STANDARD_AMOUNT,\r\n            MAX_VIGOR,\r\n            false\r\n        );\r\n\r\n        gladiators[_gladiatorId].satiation = checkLimitsOfStat(\r\n            gladiators[_gladiatorId].satiation,\r\n            STANDARD_AMOUNT,\r\n            MAX_SATIATION,\r\n            false\r\n        );\r\n\r\n        gladiators[_gladiatorId].hp = checkLimitsOfStat(\r\n            gladiators[_gladiatorId].hp,\r\n            MIN_AMOUNT,\r\n            gladiators[_gladiatorId].max_hp,\r\n            false\r\n        );\r\n\r\n        updateMaxHP(_gladiatorId);\r\n        gladiators[_gladiatorId].cooldownTime = safeAdd(now, ACTION_COOLDOWN);\r\n        bank.transferFrom(gladiatorToOwner[_gladiatorId], owner, TRAINING_COST);\r\n    }\r\n\r\n    // +stamina +maxhp -vigor -satiation -hp\r\n    function enduranceTraining(uint256 _gladiatorId)\r\n        external\r\n        canAfford(_gladiatorId, TRAINING_COST)\r\n        isBusy(_gladiatorId, \"Busy Training\")\r\n    {\r\n        gladiators[_gladiatorId].stamina = checkLimitsOfStat(\r\n            gladiators[_gladiatorId].stamina,\r\n            1,\r\n            MAX_STAMINA,\r\n            true\r\n        );\r\n\r\n        gladiators[_gladiatorId].vigor = checkLimitsOfStat(\r\n            gladiators[_gladiatorId].vigor,\r\n            STANDARD_AMOUNT,\r\n            MAX_VIGOR,\r\n            false\r\n        );\r\n\r\n        gladiators[_gladiatorId].satiation = checkLimitsOfStat(\r\n            gladiators[_gladiatorId].satiation,\r\n            STANDARD_AMOUNT,\r\n            MAX_SATIATION,\r\n            false\r\n        );\r\n\r\n        gladiators[_gladiatorId].hp = checkLimitsOfStat(\r\n            gladiators[_gladiatorId].hp,\r\n            MIN_AMOUNT,\r\n            gladiators[_gladiatorId].max_hp,\r\n            false\r\n        );\r\n\r\n        updateMaxHP(_gladiatorId);\r\n\r\n        gladiators[_gladiatorId].cooldownTime = safeAdd(now, ACTION_COOLDOWN);\r\n        bank.transferFrom(gladiatorToOwner[_gladiatorId], owner, TRAINING_COST);\r\n    }\r\n\r\n    // +dexterity +maxhp -vigor -satiation -hp\r\n    function flexibilityTraining(uint256 _gladiatorId)\r\n        external\r\n        canAfford(_gladiatorId, TRAINING_COST)\r\n        isBusy(_gladiatorId, \"Busy Training\")\r\n    {\r\n        gladiators[_gladiatorId].dexterity = checkLimitsOfStat(\r\n            gladiators[_gladiatorId].dexterity,\r\n            1,\r\n            MAX_DEXTERITY,\r\n            true\r\n        );\r\n\r\n        gladiators[_gladiatorId].vigor = checkLimitsOfStat(\r\n            gladiators[_gladiatorId].vigor,\r\n            STANDARD_AMOUNT,\r\n            MAX_VIGOR,\r\n            false\r\n        );\r\n\r\n        gladiators[_gladiatorId].satiation = checkLimitsOfStat(\r\n            gladiators[_gladiatorId].satiation,\r\n            STANDARD_AMOUNT,\r\n            MAX_SATIATION,\r\n            false\r\n        );\r\n\r\n        gladiators[_gladiatorId].hp = checkLimitsOfStat(\r\n            gladiators[_gladiatorId].hp,\r\n            MIN_AMOUNT,\r\n            gladiators[_gladiatorId].max_hp,\r\n            false\r\n        );\r\n        updateMaxHP(_gladiatorId);\r\n        gladiators[_gladiatorId].cooldownTime = safeAdd(now, ACTION_COOLDOWN);\r\n        bank.transferFrom(gladiatorToOwner[_gladiatorId], owner, 10);\r\n    }\r\n\r\n    // when calculating power of gladiator, apply modifier based on health\r\n    function hpStatusModifier(uint256 _gladiatorId)\r\n        internal\r\n        view\r\n        returns (uint256)\r\n    {\r\n        if (gladiators[_gladiatorId].hp < 10) {\r\n            // below 10 -> no benefit to power.\r\n            return 0;\r\n        } else if (\r\n            gladiators[_gladiatorId].hp == gladiators[_gladiatorId].max_hp\r\n        ) {\r\n            // double benefit\r\n            return 2;\r\n        } else {\r\n            // normal benefit\r\n            return 1;\r\n        }\r\n    }\r\n\r\n    // when calculating power of gladiator, apply modifier based on vigor\r\n    // maximum benefit when 50 < vigor < 75\r\n    function vigorStatus(uint256 _gladiatorId) internal view returns (uint256) {\r\n        if (gladiators[_gladiatorId].vigor < 5) {\r\n            // The Gladiator is exhausted -> no benefit to power.\r\n            return 0;\r\n        } else if (\r\n            (gladiators[_gladiatorId].vigor >= 5 &&\r\n                gladiators[_gladiatorId].vigor < 50) ||\r\n            (gladiators[_gladiatorId].vigor > 75 &&\r\n                gladiators[_gladiatorId].vigor <= 100)\r\n        ) {\r\n            // fatigue or hypersomnia/oversleeping\r\n            return 1;\r\n        } else {\r\n            // optimal wakefulness\r\n            return 2;\r\n        }\r\n    }\r\n\r\n    // when calculating power of gladiator, apply modifier based on vigor\r\n    // maximum benefit 60 6050 < satiation < 80\r\n    function satiationStatus(uint256 _gladiatorId)\r\n        internal\r\n        view\r\n        returns (uint256)\r\n    {\r\n        if (gladiators[_gladiatorId].satiation < 10) {\r\n            // The Gladiator is famished -> no benefit to power.\r\n            return 0;\r\n        } else if (\r\n            (gladiators[_gladiatorId].satiation >= 10 &&\r\n                gladiators[_gladiatorId].satiation < 60) ||\r\n            (gladiators[_gladiatorId].satiation > 80 &&\r\n                gladiators[_gladiatorId].satiation <= 100)\r\n        ) {\r\n            // undereating or overeating\r\n            return 1;\r\n        } else {\r\n            // optimal food consumption\r\n            return 2;\r\n        }\r\n    }\r\n\r\n    // defence is calulated from stamina and dexterity\r\n    function calcDef(uint256 _gladiatorId) internal view returns (uint256) {\r\n        uint256 def =\r\n            safeAdd(\r\n                safeMul(gladiators[_gladiatorId].stamina, 3),\r\n                safeMul(gladiators[_gladiatorId].dexterity, 2)\r\n            );\r\n        return def;\r\n    }\r\n\r\n    // attack is calulated from strength and dexterity\r\n    function calcAtt(uint256 _gladiatorId) internal view returns (uint256) {\r\n        uint256 att =\r\n            safeAdd(\r\n                safeMul(gladiators[_gladiatorId].strength, 3),\r\n                safeMul(gladiators[_gladiatorId].dexterity, 2)\r\n            );\r\n        return att;\r\n    }\r\n\r\n    // power is calculater from combination of defence, attack, hp, satiation and vigor values\r\n    function calcPower(uint256 _gladiatorId) internal view returns (uint256) {\r\n        uint256 power =\r\n            safeAdd(\r\n                safeMul(\r\n                    gladiators[_gladiatorId].hp,\r\n                    hpStatusModifier(_gladiatorId)\r\n                ),\r\n                safeAdd(\r\n                    safeMul(calcDef(_gladiatorId), vigorStatus(_gladiatorId)),\r\n                    safeMul(\r\n                        calcAtt(_gladiatorId),\r\n                        satiationStatus(_gladiatorId)\r\n                    )\r\n                )\r\n            );\r\n        return power;\r\n    }\r\n\r\n    // reduce stats of gladiator when winning against another players' gladiator\r\n    function handleStatsFromVictory(uint256 _gladiatorId) internal {\r\n        gladiators[_gladiatorId].hp = safeDiv(gladiators[_gladiatorId].hp, 4);\r\n        gladiators[_gladiatorId].satiation = safeDiv(\r\n            gladiators[_gladiatorId].satiation,\r\n            3\r\n        );\r\n        gladiators[_gladiatorId].vigor = safeDiv(\r\n            gladiators[_gladiatorId].vigor,\r\n            3\r\n        );\r\n    }\r\n\r\n    // reduce stats of gladiator when losing against another players' gladiator\r\n    function handleStatsFromLoss(uint256 _gladiatorId) internal {\r\n        gladiators[_gladiatorId].hp = safeDiv(\r\n            safeDiv(gladiators[_gladiatorId].hp, 2),\r\n            2\r\n        );\r\n        gladiators[_gladiatorId].satiation = safeDiv(\r\n            safeDiv(gladiators[_gladiatorId].satiation, 2),\r\n            3\r\n        );\r\n        gladiators[_gladiatorId].vigor = safeDiv(\r\n            safeDiv(gladiators[_gladiatorId].vigor, 2),\r\n            2\r\n        );\r\n    }\r\n\r\n    // challenging an AI with a simulated gladiators' power value based on the players' gladiator tier\r\n    function fightAI(uint256 _gladiatorId) external {\r\n        uint256 aiPower =\r\n            safeAdd(safeMul(100, gladiators[_gladiatorId].tier), randMod(100));\r\n\r\n        uint256 gladPower = calcPower(_gladiatorId);\r\n        // Compare the power of both gladiators.\r\n        if (gladPower > aiPower) {\r\n            bank.transferFrom(owner, gladiators[_gladiatorId].owner, 25);\r\n        } else {\r\n            bank.transferFrom(gladiators[_gladiatorId].owner, owner, 10);\r\n        }\r\n        gladiators[_gladiatorId].cooldownTime = safeAdd(now, ACTION_COOLDOWN);\r\n        emit AIFightStatistics(gladPower, aiPower);\r\n    }\r\n\r\n    // invoked when challenging another players' gladiator\r\n    function fight(uint256 _gladiatorId1, uint256 _gladiatorId2)\r\n        external\r\n        isBusy(_gladiatorId2, \"Opponent Is Busy\")\r\n    {\r\n        // check if both are in the same tier and if opponents' gladiator recently lost\r\n        require(\r\n            gladiators[_gladiatorId2].safetyNetCooldown <= now &&\r\n                gladiators[_gladiatorId1].tier <= gladiators[_gladiatorId2].tier\r\n        );\r\n\r\n        // Compare the power of both gladiators.\r\n        if (calcPower(_gladiatorId1) > calcPower(_gladiatorId2)) {\r\n            // invoking players' gladiator won\r\n            gladiators[_gladiatorId2].safetyNetCooldown = safeAdd(\r\n                now,\r\n                ACTION_COOLDOWN\r\n            );\r\n\r\n            // increase num of wins, if equal to current tier - advance in tier and reset num of wins, give extra reward when rising in tiers\r\n            // to advance in tiers numWins == current_tier, i.e 3 wins in tier 3 are needed to advance to tier 4\r\n            uint256 numWins = safeAdd(gladiators[_gladiatorId1].wins, 1);\r\n            if (numWins == gladiators[_gladiatorId1].tier) {\r\n                gladiators[_gladiatorId1].wins = 0;\r\n                gladiators[_gladiatorId1].tier = safeAdd(\r\n                    gladiators[_gladiatorId1].tier,\r\n                    1\r\n                );\r\n                bank.transferFrom(\r\n                    owner,\r\n                    gladiators[_gladiatorId1].owner,\r\n                    safeMul(gladiators[_gladiatorId1].tier, 5)\r\n                );\r\n            } else {\r\n                gladiators[_gladiatorId1].wins = numWins;\r\n            }\r\n\r\n            handleStatsFromVictory(_gladiatorId1);\r\n            bank.transferFrom(owner, gladiators[_gladiatorId1].owner, 10);\r\n            emit Winner(_gladiatorId1);\r\n        } else {\r\n            // opponent wins\r\n\r\n            // if num of wins in the tier is 0 and player losses, demoted to lower tier and doesn't lose gold coins\r\n            // otherwise reduce the num of wins in current tier and lose gold coins\r\n            uint256 lossAmount = 10;\r\n            if (gladiators[_gladiatorId1].wins == 0) {\r\n                if (gladiators[_gladiatorId1].tier != 1) {\r\n                    gladiators[_gladiatorId1].tier = safeSub(\r\n                        gladiators[_gladiatorId1].tier,\r\n                        1\r\n                    );\r\n                    lossAmount = 0;\r\n                }\r\n            } else {\r\n                gladiators[_gladiatorId1].wins = safeSub(\r\n                    gladiators[_gladiatorId1].wins,\r\n                    1\r\n                );\r\n            }\r\n\r\n            handleStatsFromLoss(_gladiatorId1);\r\n            bank.transferFrom(\r\n                gladiators[_gladiatorId1].owner,\r\n                owner,\r\n                lossAmount\r\n            );\r\n            emit Winner(_gladiatorId2);\r\n        }\r\n        gladiators[_gladiatorId1].cooldownTime = safeAdd(now, ACTION_COOLDOWN);\r\n    }\r\n}\r\n",
  "sourcePath": "D:/Homework/Y4S1/Blockchain/Projects/HTTYG/GladShop/contracts/CryptoGame.sol",
  "compiler": {
    "name": "solc",
    "version": "0.5.16+commit.9c3226ce.Emscripten.clang"
  },
  "schemaVersion": "3.3.3",
  "updatedAt": "2021-02-13T20:44:15.022Z",
  "networkType": "ethereum",
  "devdoc": {
    "methods": {}
  },
  "userdoc": {
    "methods": {}
  }
}