{
  "contractName": "CryptoGame",
  "abi": [
    {
      "inputs": [
        {
          "internalType": "contract ERC20",
          "name": "tokens",
          "type": "address"
        }
      ],
      "payable": false,
      "stateMutability": "nonpayable",
      "type": "constructor"
    },
    {
      "anonymous": false,
      "inputs": [
        {
          "indexed": false,
          "internalType": "uint256",
          "name": "_myPower",
          "type": "uint256"
        },
        {
          "indexed": false,
          "internalType": "uint256",
          "name": "_aiPower",
          "type": "uint256"
        }
      ],
      "name": "AIFightStatistics",
      "type": "event"
    },
    {
      "anonymous": false,
      "inputs": [
        {
          "indexed": true,
          "internalType": "address",
          "name": "owner",
          "type": "address"
        },
        {
          "indexed": true,
          "internalType": "address",
          "name": "approved",
          "type": "address"
        },
        {
          "indexed": true,
          "internalType": "uint256",
          "name": "tokenId",
          "type": "uint256"
        }
      ],
      "name": "Approval",
      "type": "event"
    },
    {
      "anonymous": false,
      "inputs": [
        {
          "indexed": true,
          "internalType": "address",
          "name": "owner",
          "type": "address"
        },
        {
          "indexed": true,
          "internalType": "address",
          "name": "operator",
          "type": "address"
        },
        {
          "indexed": false,
          "internalType": "bool",
          "name": "approved",
          "type": "bool"
        }
      ],
      "name": "ApprovalForAll",
      "type": "event"
    },
    {
      "anonymous": false,
      "inputs": [
        {
          "indexed": false,
          "internalType": "string",
          "name": "_messege",
          "type": "string"
        }
      ],
      "name": "BusyEvent",
      "type": "event"
    },
    {
      "anonymous": false,
      "inputs": [
        {
          "indexed": true,
          "internalType": "address",
          "name": "from",
          "type": "address"
        },
        {
          "indexed": true,
          "internalType": "address",
          "name": "to",
          "type": "address"
        },
        {
          "indexed": true,
          "internalType": "uint256",
          "name": "tokenId",
          "type": "uint256"
        }
      ],
      "name": "Transfer",
      "type": "event"
    },
    {
      "anonymous": false,
      "inputs": [
        {
          "indexed": false,
          "internalType": "uint256",
          "name": "_winnerId",
          "type": "uint256"
        }
      ],
      "name": "Winner",
      "type": "event"
    },
    {
      "constant": false,
      "inputs": [
        {
          "internalType": "address",
          "name": "to",
          "type": "address"
        },
        {
          "internalType": "uint256",
          "name": "tokenId",
          "type": "uint256"
        }
      ],
      "name": "approve",
      "outputs": [],
      "payable": false,
      "stateMutability": "nonpayable",
      "type": "function"
    },
    {
      "constant": true,
      "inputs": [],
      "name": "arenaTime",
      "outputs": [
        {
          "internalType": "uint256",
          "name": "",
          "type": "uint256"
        }
      ],
      "payable": false,
      "stateMutability": "view",
      "type": "function"
    },
    {
      "constant": true,
      "inputs": [
        {
          "internalType": "address",
          "name": "owner",
          "type": "address"
        }
      ],
      "name": "balanceOf",
      "outputs": [
        {
          "internalType": "uint256",
          "name": "",
          "type": "uint256"
        }
      ],
      "payable": false,
      "stateMutability": "view",
      "type": "function"
    },
    {
      "constant": true,
      "inputs": [],
      "name": "bank",
      "outputs": [
        {
          "internalType": "contract ERC20",
          "name": "",
          "type": "address"
        }
      ],
      "payable": false,
      "stateMutability": "view",
      "type": "function"
    },
    {
      "constant": true,
      "inputs": [
        {
          "internalType": "uint256",
          "name": "tokenId",
          "type": "uint256"
        }
      ],
      "name": "getApproved",
      "outputs": [
        {
          "internalType": "address",
          "name": "",
          "type": "address"
        }
      ],
      "payable": false,
      "stateMutability": "view",
      "type": "function"
    },
    {
      "constant": true,
      "inputs": [],
      "name": "gladiatorBot",
      "outputs": [
        {
          "internalType": "string",
          "name": "name",
          "type": "string"
        },
        {
          "internalType": "uint256",
          "name": "tier",
          "type": "uint256"
        },
        {
          "internalType": "uint256",
          "name": "hp",
          "type": "uint256"
        },
        {
          "internalType": "uint256",
          "name": "max_hp",
          "type": "uint256"
        },
        {
          "internalType": "uint256",
          "name": "stamina",
          "type": "uint256"
        },
        {
          "internalType": "uint256",
          "name": "strength",
          "type": "uint256"
        },
        {
          "internalType": "uint256",
          "name": "dexterity",
          "type": "uint256"
        },
        {
          "internalType": "uint256",
          "name": "vigor",
          "type": "uint256"
        },
        {
          "internalType": "uint256",
          "name": "satiation",
          "type": "uint256"
        },
        {
          "internalType": "address",
          "name": "boss",
          "type": "address"
        },
        {
          "internalType": "uint256",
          "name": "cooldownTime",
          "type": "uint256"
        },
        {
          "internalType": "uint256",
          "name": "safetyNetCooldown",
          "type": "uint256"
        },
        {
          "internalType": "uint256",
          "name": "wins",
          "type": "uint256"
        }
      ],
      "payable": false,
      "stateMutability": "view",
      "type": "function"
    },
    {
      "constant": true,
      "inputs": [
        {
          "internalType": "uint256",
          "name": "",
          "type": "uint256"
        }
      ],
      "name": "gladiatorToOwner",
      "outputs": [
        {
          "internalType": "address",
          "name": "",
          "type": "address"
        }
      ],
      "payable": false,
      "stateMutability": "view",
      "type": "function"
    },
    {
      "constant": true,
      "inputs": [
        {
          "internalType": "uint256",
          "name": "",
          "type": "uint256"
        }
      ],
      "name": "gladiators",
      "outputs": [
        {
          "internalType": "string",
          "name": "name",
          "type": "string"
        },
        {
          "internalType": "uint256",
          "name": "tier",
          "type": "uint256"
        },
        {
          "internalType": "uint256",
          "name": "hp",
          "type": "uint256"
        },
        {
          "internalType": "uint256",
          "name": "max_hp",
          "type": "uint256"
        },
        {
          "internalType": "uint256",
          "name": "stamina",
          "type": "uint256"
        },
        {
          "internalType": "uint256",
          "name": "strength",
          "type": "uint256"
        },
        {
          "internalType": "uint256",
          "name": "dexterity",
          "type": "uint256"
        },
        {
          "internalType": "uint256",
          "name": "vigor",
          "type": "uint256"
        },
        {
          "internalType": "uint256",
          "name": "satiation",
          "type": "uint256"
        },
        {
          "internalType": "address",
          "name": "boss",
          "type": "address"
        },
        {
          "internalType": "uint256",
          "name": "cooldownTime",
          "type": "uint256"
        },
        {
          "internalType": "uint256",
          "name": "safetyNetCooldown",
          "type": "uint256"
        },
        {
          "internalType": "uint256",
          "name": "wins",
          "type": "uint256"
        }
      ],
      "payable": false,
      "stateMutability": "view",
      "type": "function"
    },
    {
      "constant": true,
      "inputs": [
        {
          "internalType": "uint256",
          "name": "",
          "type": "uint256"
        }
      ],
      "name": "gladiatorsForArena",
      "outputs": [
        {
          "internalType": "string",
          "name": "name",
          "type": "string"
        },
        {
          "internalType": "uint256",
          "name": "tier",
          "type": "uint256"
        },
        {
          "internalType": "uint256",
          "name": "hp",
          "type": "uint256"
        },
        {
          "internalType": "uint256",
          "name": "max_hp",
          "type": "uint256"
        },
        {
          "internalType": "uint256",
          "name": "stamina",
          "type": "uint256"
        },
        {
          "internalType": "uint256",
          "name": "strength",
          "type": "uint256"
        },
        {
          "internalType": "uint256",
          "name": "dexterity",
          "type": "uint256"
        },
        {
          "internalType": "uint256",
          "name": "vigor",
          "type": "uint256"
        },
        {
          "internalType": "uint256",
          "name": "satiation",
          "type": "uint256"
        },
        {
          "internalType": "address",
          "name": "boss",
          "type": "address"
        },
        {
          "internalType": "uint256",
          "name": "cooldownTime",
          "type": "uint256"
        },
        {
          "internalType": "uint256",
          "name": "safetyNetCooldown",
          "type": "uint256"
        },
        {
          "internalType": "uint256",
          "name": "wins",
          "type": "uint256"
        }
      ],
      "payable": false,
      "stateMutability": "view",
      "type": "function"
    },
    {
      "constant": true,
      "inputs": [
        {
          "internalType": "address",
          "name": "owner",
          "type": "address"
        },
        {
          "internalType": "address",
          "name": "operator",
          "type": "address"
        }
      ],
      "name": "isApprovedForAll",
      "outputs": [
        {
          "internalType": "bool",
          "name": "",
          "type": "bool"
        }
      ],
      "payable": false,
      "stateMutability": "view",
      "type": "function"
    },
    {
      "constant": true,
      "inputs": [],
      "name": "numGladiators",
      "outputs": [
        {
          "internalType": "uint256",
          "name": "",
          "type": "uint256"
        }
      ],
      "payable": false,
      "stateMutability": "view",
      "type": "function"
    },
    {
      "constant": true,
      "inputs": [],
      "name": "owner",
      "outputs": [
        {
          "internalType": "address",
          "name": "",
          "type": "address"
        }
      ],
      "payable": false,
      "stateMutability": "view",
      "type": "function"
    },
    {
      "constant": true,
      "inputs": [
        {
          "internalType": "uint256",
          "name": "tokenId",
          "type": "uint256"
        }
      ],
      "name": "ownerOf",
      "outputs": [
        {
          "internalType": "address",
          "name": "",
          "type": "address"
        }
      ],
      "payable": false,
      "stateMutability": "view",
      "type": "function"
    },
    {
      "constant": true,
      "inputs": [
        {
          "internalType": "address",
          "name": "",
          "type": "address"
        }
      ],
      "name": "ownerToGladiator",
      "outputs": [
        {
          "internalType": "uint256",
          "name": "",
          "type": "uint256"
        }
      ],
      "payable": false,
      "stateMutability": "view",
      "type": "function"
    },
    {
      "constant": true,
      "inputs": [
        {
          "internalType": "uint256",
          "name": "a",
          "type": "uint256"
        },
        {
          "internalType": "uint256",
          "name": "b",
          "type": "uint256"
        }
      ],
      "name": "safeAdd",
      "outputs": [
        {
          "internalType": "uint256",
          "name": "c",
          "type": "uint256"
        }
      ],
      "payable": false,
      "stateMutability": "pure",
      "type": "function"
    },
    {
      "constant": true,
      "inputs": [
        {
          "internalType": "uint256",
          "name": "a",
          "type": "uint256"
        },
        {
          "internalType": "uint256",
          "name": "b",
          "type": "uint256"
        }
      ],
      "name": "safeDiv",
      "outputs": [
        {
          "internalType": "uint256",
          "name": "c",
          "type": "uint256"
        }
      ],
      "payable": false,
      "stateMutability": "pure",
      "type": "function"
    },
    {
      "constant": true,
      "inputs": [
        {
          "internalType": "uint256",
          "name": "a",
          "type": "uint256"
        },
        {
          "internalType": "uint256",
          "name": "b",
          "type": "uint256"
        }
      ],
      "name": "safeMul",
      "outputs": [
        {
          "internalType": "uint256",
          "name": "c",
          "type": "uint256"
        }
      ],
      "payable": false,
      "stateMutability": "pure",
      "type": "function"
    },
    {
      "constant": true,
      "inputs": [
        {
          "internalType": "uint256",
          "name": "a",
          "type": "uint256"
        },
        {
          "internalType": "uint256",
          "name": "b",
          "type": "uint256"
        }
      ],
      "name": "safeSub",
      "outputs": [
        {
          "internalType": "uint256",
          "name": "c",
          "type": "uint256"
        }
      ],
      "payable": false,
      "stateMutability": "pure",
      "type": "function"
    },
    {
      "constant": false,
      "inputs": [
        {
          "internalType": "address",
          "name": "from",
          "type": "address"
        },
        {
          "internalType": "address",
          "name": "to",
          "type": "address"
        },
        {
          "internalType": "uint256",
          "name": "tokenId",
          "type": "uint256"
        }
      ],
      "name": "safeTransferFrom",
      "outputs": [],
      "payable": false,
      "stateMutability": "nonpayable",
      "type": "function"
    },
    {
      "constant": false,
      "inputs": [
        {
          "internalType": "address",
          "name": "from",
          "type": "address"
        },
        {
          "internalType": "address",
          "name": "to",
          "type": "address"
        },
        {
          "internalType": "uint256",
          "name": "tokenId",
          "type": "uint256"
        },
        {
          "internalType": "bytes",
          "name": "_data",
          "type": "bytes"
        }
      ],
      "name": "safeTransferFrom",
      "outputs": [],
      "payable": false,
      "stateMutability": "nonpayable",
      "type": "function"
    },
    {
      "constant": false,
      "inputs": [
        {
          "internalType": "address",
          "name": "to",
          "type": "address"
        },
        {
          "internalType": "bool",
          "name": "approved",
          "type": "bool"
        }
      ],
      "name": "setApprovalForAll",
      "outputs": [],
      "payable": false,
      "stateMutability": "nonpayable",
      "type": "function"
    },
    {
      "constant": true,
      "inputs": [
        {
          "internalType": "bytes4",
          "name": "interfaceId",
          "type": "bytes4"
        }
      ],
      "name": "supportsInterface",
      "outputs": [
        {
          "internalType": "bool",
          "name": "",
          "type": "bool"
        }
      ],
      "payable": false,
      "stateMutability": "view",
      "type": "function"
    },
    {
      "constant": false,
      "inputs": [
        {
          "internalType": "address",
          "name": "from",
          "type": "address"
        },
        {
          "internalType": "address",
          "name": "to",
          "type": "address"
        },
        {
          "internalType": "uint256",
          "name": "tokenId",
          "type": "uint256"
        }
      ],
      "name": "transferFrom",
      "outputs": [],
      "payable": false,
      "stateMutability": "nonpayable",
      "type": "function"
    },
    {
      "constant": false,
      "inputs": [
        {
          "internalType": "address",
          "name": "_owner",
          "type": "address"
        },
        {
          "internalType": "string",
          "name": "_name",
          "type": "string"
        },
        {
          "internalType": "uint256",
          "name": "_stamina",
          "type": "uint256"
        },
        {
          "internalType": "uint256",
          "name": "_strength",
          "type": "uint256"
        },
        {
          "internalType": "uint256",
          "name": "_dexterity",
          "type": "uint256"
        },
        {
          "internalType": "uint256",
          "name": "_maxHp",
          "type": "uint256"
        }
      ],
      "name": "recruitGladiator",
      "outputs": [],
      "payable": false,
      "stateMutability": "nonpayable",
      "type": "function"
    },
    {
      "constant": true,
      "inputs": [
        {
          "internalType": "address",
          "name": "_owner",
          "type": "address"
        }
      ],
      "name": "getGladiatorsByOwner",
      "outputs": [
        {
          "internalType": "uint256[]",
          "name": "",
          "type": "uint256[]"
        }
      ],
      "payable": false,
      "stateMutability": "view",
      "type": "function"
    },
    {
      "constant": false,
      "inputs": [
        {
          "internalType": "uint256",
          "name": "score",
          "type": "uint256"
        },
        {
          "internalType": "uint256",
          "name": "amount",
          "type": "uint256"
        },
        {
          "internalType": "uint256",
          "name": "max",
          "type": "uint256"
        },
        {
          "internalType": "bool",
          "name": "isAddition",
          "type": "bool"
        }
      ],
      "name": "checkLimits",
      "outputs": [
        {
          "internalType": "uint256",
          "name": "",
          "type": "uint256"
        }
      ],
      "payable": false,
      "stateMutability": "nonpayable",
      "type": "function"
    },
    {
      "constant": false,
      "inputs": [
        {
          "internalType": "uint256",
          "name": "_gladiatorId",
          "type": "uint256"
        }
      ],
      "name": "eat",
      "outputs": [
        {
          "internalType": "bool",
          "name": "",
          "type": "bool"
        }
      ],
      "payable": false,
      "stateMutability": "nonpayable",
      "type": "function"
    },
    {
      "constant": false,
      "inputs": [
        {
          "internalType": "uint256",
          "name": "_gladiatorId",
          "type": "uint256"
        }
      ],
      "name": "sleep",
      "outputs": [],
      "payable": false,
      "stateMutability": "nonpayable",
      "type": "function"
    },
    {
      "constant": false,
      "inputs": [
        {
          "internalType": "uint256",
          "name": "_gladiatorId",
          "type": "uint256"
        }
      ],
      "name": "muscleTraining",
      "outputs": [],
      "payable": false,
      "stateMutability": "nonpayable",
      "type": "function"
    },
    {
      "constant": false,
      "inputs": [
        {
          "internalType": "uint256",
          "name": "_gladiatorId",
          "type": "uint256"
        }
      ],
      "name": "enduranceTraining",
      "outputs": [],
      "payable": false,
      "stateMutability": "nonpayable",
      "type": "function"
    },
    {
      "constant": false,
      "inputs": [
        {
          "internalType": "uint256",
          "name": "_gladiatorId",
          "type": "uint256"
        }
      ],
      "name": "flexibilityTraining",
      "outputs": [],
      "payable": false,
      "stateMutability": "nonpayable",
      "type": "function"
    },
    {
      "constant": false,
      "inputs": [
        {
          "internalType": "uint256",
          "name": "_gladiatorId",
          "type": "uint256"
        }
      ],
      "name": "fightAI",
      "outputs": [],
      "payable": false,
      "stateMutability": "nonpayable",
      "type": "function"
    },
    {
      "constant": false,
      "inputs": [
        {
          "internalType": "uint256",
          "name": "_gladiatorId1",
          "type": "uint256"
        },
        {
          "internalType": "uint256",
          "name": "_gladiatorId2",
          "type": "uint256"
        }
      ],
      "name": "fight",
      "outputs": [],
      "payable": false,
      "stateMutability": "nonpayable",
      "type": "function"
    }
  ],
  "bytecode": "0x6080604052600060055560006006553480156200001b57600080fd5b506040516200524238038062005242833981810160405260208110156200004157600080fd5b81019080805190602001909291905050506200006a6301ffc9a760e01b6200011560201b60201c565b620000826380ac58cd60e01b6200011560201b60201c565b33600760006101000a81548173ffffffffffffffffffffffffffffffffffffffff021916908373ffffffffffffffffffffffffffffffffffffffff16021790555080601860006101000a81548173ffffffffffffffffffffffffffffffffffffffff021916908373ffffffffffffffffffffffffffffffffffffffff16021790555060784201600881905550506200021e565b63ffffffff60e01b817bffffffffffffffffffffffffffffffffffffffffffffffffffffffff19161415620001b2576040517f08c379a000000000000000000000000000000000000000000000000000000000815260040180806020018281038252601c8152602001807f4552433136353a20696e76616c696420696e746572666163652069640000000081525060200191505060405180910390fd5b6001600080837bffffffffffffffffffffffffffffffffffffffffffffffffffffffff19167bffffffffffffffffffffffffffffffffffffffffffffffffffffffff1916815260200190815260200160002060006101000a81548160ff02191690831515021790555050565b615014806200022e6000396000f3fe608060405234801561001057600080fd5b50600436106101fb5760003560e01c8063a22cb4651161011a578063ca39e5ef116100ad578063e985e9c51161007c578063e985e9c514610ccb578063edf764a314610d47578063f211789914610e6e578063f70dc69d14610edc578063fa9d871314610fdf576101fb565b8063ca39e5ef14610ad4578063d05c78da14610b0c578063de114fa414610b58578063e6cb901314610c7f576101fb565b8063b18bceb4116100e9578063b18bceb414610937578063b5931f7c14610965578063b88d4fde146109b1578063bb2880d014610ab6576101fb565b8063a22cb4651461083f578063a293d1e81461088f578063a404568c146108db578063a843bdb114610909576101fb565b806356681652116101925780637632e0c7116101615780637632e0c71461070d57806376cdb03b1461076557806385e0ebaf146107af5780638da5cb5b146107f5576101fb565b806356681652146105805780636352211e146105ae578063672f0c4b1461061c57806370a08231146106b5576101fb565b806323b872dd116101ce57806323b872dd1461033f578063333aef31146103ad5780633d57b68b146104b057806342842e0e14610512576101fb565b806301ffc9a714610200578063081812fc14610265578063095ea7b3146102d357806321327b8d14610321575b600080fd5b61024b6004803603602081101561021657600080fd5b8101908080357bffffffffffffffffffffffffffffffffffffffffffffffffffffffff1916906020019092919050505061100d565b604051808215151515815260200191505060405180910390f35b6102916004803603602081101561027b57600080fd5b8101908080359060200190929190505050611074565b604051808273ffffffffffffffffffffffffffffffffffffffff1673ffffffffffffffffffffffffffffffffffffffff16815260200191505060405180910390f35b61031f600480360360408110156102e957600080fd5b81019080803573ffffffffffffffffffffffffffffffffffffffff169060200190929190803590602001909291905050506110c3565b005b610329611204565b6040518082815260200191505060405180910390f35b6103ab6004803603606081101561035557600080fd5b81019080803573ffffffffffffffffffffffffffffffffffffffff169060200190929190803573ffffffffffffffffffffffffffffffffffffffff1690602001909291908035906020019092919050505061120a565b005b6103b56112d5565b60405180806020018e81526020018d81526020018c81526020018b81526020018a81526020018981526020018881526020018781526020018673ffffffffffffffffffffffffffffffffffffffff1673ffffffffffffffffffffffffffffffffffffffff16815260200185815260200184815260200183815260200182810382528f818151815260200191508051906020019080838360005b8381101561046957808201518184015260208101905061044e565b50505050905090810190601f1680156104965780820380516001836020036101000a031916815260200191505b509e50505050505050505050505050505060405180910390f35b6104fc600480360360808110156104c657600080fd5b810190808035906020019092919080359060200190929190803590602001909291908035151590602001909291905050506113e1565b6040518082815260200191505060405180910390f35b61057e6004803603606081101561052857600080fd5b81019080803573ffffffffffffffffffffffffffffffffffffffff169060200190929190803573ffffffffffffffffffffffffffffffffffffffff16906020019092919080359060200190929190505050611437565b005b6105ac6004803603602081101561059657600080fd5b8101908080359060200190929190505050611457565b005b6105da600480360360208110156105c457600080fd5b8101908080359060200190929190505050611969565b604051808273ffffffffffffffffffffffffffffffffffffffff1673ffffffffffffffffffffffffffffffffffffffff16815260200191505060405180910390f35b61065e6004803603602081101561063257600080fd5b81019080803573ffffffffffffffffffffffffffffffffffffffff1690602001909291905050506119e5565b6040518080602001828103825283818151815260200191508051906020019060200280838360005b838110156106a1578082015181840152602081019050610686565b505050509050019250505060405180910390f35b6106f7600480360360208110156106cb57600080fd5b81019080803573ffffffffffffffffffffffffffffffffffffffff169060200190929190505050611ae2565b6040518082815260200191505060405180910390f35b61074f6004803603602081101561072357600080fd5b81019080803573ffffffffffffffffffffffffffffffffffffffff169060200190929190505050611b64565b6040518082815260200191505060405180910390f35b61076d611b7c565b604051808273ffffffffffffffffffffffffffffffffffffffff1673ffffffffffffffffffffffffffffffffffffffff16815260200191505060405180910390f35b6107db600480360360208110156107c557600080fd5b8101908080359060200190929190505050611ba2565b604051808215151515815260200191505060405180910390f35b6107fd61206a565b604051808273ffffffffffffffffffffffffffffffffffffffff1673ffffffffffffffffffffffffffffffffffffffff16815260200191505060405180910390f35b61088d6004803603604081101561085557600080fd5b81019080803573ffffffffffffffffffffffffffffffffffffffff169060200190929190803515159060200190929190505050612090565b005b6108c5600480360360408110156108a557600080fd5b8101908080359060200190929190803590602001909291905050506121ca565b6040518082815260200191505060405180910390f35b610907600480360360208110156108f157600080fd5b810190808035906020019092919050505061224d565b005b6109356004803603602081101561091f57600080fd5b810190808035906020019092919050505061275d565b005b6109636004803603602081101561094d57600080fd5b8101908080359060200190929190505050612b07565b005b61099b6004803603604081101561097b57600080fd5b810190808035906020019092919080359060200190929190505050613016565b6040518082815260200191505060405180910390f35b610ab4600480360360808110156109c757600080fd5b81019080803573ffffffffffffffffffffffffffffffffffffffff169060200190929190803573ffffffffffffffffffffffffffffffffffffffff1690602001909291908035906020019092919080359060200190640100000000811115610a2e57600080fd5b820183602082011115610a4057600080fd5b80359060200191846001830284011164010000000083111715610a6257600080fd5b91908080601f016020809104026020016040519081016040528093929190818152602001838380828437600081840152601f19601f82011690508083019250505050505050919291929050505061309f565b005b610abe6130b0565b6040518082815260200191505060405180910390f35b610b0a60048036036040811015610aea57600080fd5b8101908080359060200190929190803590602001909291905050506130b6565b005b610b4260048036036040811015610b2257600080fd5b81019080803590602001909291908035906020019092919050505061396f565b6040518082815260200191505060405180910390f35b610b8460048036036020811015610b6e57600080fd5b8101908080359060200190929190505050613a05565b60405180806020018e81526020018d81526020018c81526020018b81526020018a81526020018981526020018881526020018781526020018673ffffffffffffffffffffffffffffffffffffffff1673ffffffffffffffffffffffffffffffffffffffff16815260200185815260200184815260200183815260200182810382528f818151815260200191508051906020019080838360005b83811015610c38578082015181840152602081019050610c1d565b50505050905090810190601f168015610c655780820380516001836020036101000a031916815260200191505b509e50505050505050505050505050505060405180910390f35b610cb560048036036040811015610c9557600080fd5b810190808035906020019092919080359060200190929190505050613b30565b6040518082815260200191505060405180910390f35b610d2d60048036036040811015610ce157600080fd5b81019080803573ffffffffffffffffffffffffffffffffffffffff169060200190929190803573ffffffffffffffffffffffffffffffffffffffff169060200190929190505050613bb3565b604051808215151515815260200191505060405180910390f35b610d7360048036036020811015610d5d57600080fd5b8101908080359060200190929190505050613c47565b60405180806020018e81526020018d81526020018c81526020018b81526020018a81526020018981526020018881526020018781526020018673ffffffffffffffffffffffffffffffffffffffff1673ffffffffffffffffffffffffffffffffffffffff16815260200185815260200184815260200183815260200182810382528f818151815260200191508051906020019080838360005b83811015610e27578082015181840152602081019050610e0c565b50505050905090810190601f168015610e545780820380516001836020036101000a031916815260200191505b509e50505050505050505050505050505060405180910390f35b610e9a60048036036020811015610e8457600080fd5b8101908080359060200190929190505050613d72565b604051808273ffffffffffffffffffffffffffffffffffffffff1673ffffffffffffffffffffffffffffffffffffffff16815260200191505060405180910390f35b610fdd600480360360c0811015610ef257600080fd5b81019080803573ffffffffffffffffffffffffffffffffffffffff16906020019092919080359060200190640100000000811115610f2f57600080fd5b820183602082011115610f4157600080fd5b80359060200191846001830284011164010000000083111715610f6357600080fd5b91908080601f016020809104026020016040519081016040528093929190818152602001838380828437600081840152601f19601f82011690508083019250505050505050919291929080359060200190929190803590602001909291908035906020019092919080359060200190929190505050613da5565b005b61100b60048036036020811015610ff557600080fd5b810190808035906020019092919050505061412c565b005b6000806000837bffffffffffffffffffffffffffffffffffffffffffffffffffffffff19167bffffffffffffffffffffffffffffffffffffffffffffffffffffffff1916815260200190815260200160002060009054906101000a900460ff169050919050565b600061107f826145ef565b61108857600080fd5b6002600083815260200190815260200160002060009054906101000a900473ffffffffffffffffffffffffffffffffffffffff169050919050565b60006110ce82611969565b90508073ffffffffffffffffffffffffffffffffffffffff168373ffffffffffffffffffffffffffffffffffffffff16141561110957600080fd5b8073ffffffffffffffffffffffffffffffffffffffff163373ffffffffffffffffffffffffffffffffffffffff16148061114957506111488133613bb3565b5b61115257600080fd5b826002600084815260200190815260200160002060006101000a81548173ffffffffffffffffffffffffffffffffffffffff021916908373ffffffffffffffffffffffffffffffffffffffff160217905550818373ffffffffffffffffffffffffffffffffffffffff168273ffffffffffffffffffffffffffffffffffffffff167f8c5be1e5ebec7d5bd14f71427d1e84f3dd0314c0f7b2291e5b200ac8c7c3b92560405160405180910390a4505050565b60085481565b6112143382614661565b61121d57600080fd5b600073ffffffffffffffffffffffffffffffffffffffff168273ffffffffffffffffffffffffffffffffffffffff16141561125757600080fd5b61126183826146f6565b61126b83826147f5565b6112758282614919565b808273ffffffffffffffffffffffffffffffffffffffff168473ffffffffffffffffffffffffffffffffffffffff167fddf252ad1be2c89b69c2b068fc378daa952ba7f163c4a11628f55a4df523b3ef60405160405180910390a4505050565b600b806000018054600181600116156101000203166002900480601f01602080910402602001604051908101604052809291908181526020018280546001816001161561010002031660029004801561136f5780601f106113445761010080835404028352916020019161136f565b820191906000526020600020905b81548152906001019060200180831161135257829003601f168201915b5050505050908060010154908060020154908060030154908060040154908060050154908060060154908060070154908060080154908060090160009054906101000a900473ffffffffffffffffffffffffffffffffffffffff169080600a01549080600b01549080600c015490508d565b600081156114115760006113f58686613b30565b905083811115611408578391505061142f565b8091505061142f565b83851015611422576000905061142f565b61142c85856121ca565b90505b949350505050565b6114528383836040518060200160405280600081525061309f565b505050565b80600a80601860009054906101000a900473ffffffffffffffffffffffffffffffffffffffff1673ffffffffffffffffffffffffffffffffffffffff16631a2b0eeb6019600086815260200190815260200160002060009054906101000a900473ffffffffffffffffffffffffffffffffffffffff166040518263ffffffff1660e01b8152600401808273ffffffffffffffffffffffffffffffffffffffff1673ffffffffffffffffffffffffffffffffffffffff16815260200191505060206040518083038186803b15801561152d57600080fd5b505afa158015611541573d6000803e3d6000fd5b505050506040513d602081101561155757600080fd5b8101908080519060200190929190505050101561157357600080fd5b826040518060400160405280600d81526020017f4275737920547261696e696e670000000000000000000000000000000000000081525042600983815481106115b857fe5b90600052602060002090600d0201600a015411156115d557600080fd5b7ff021f208e3200c5fa30b2f3e6b0802de43b08a050585bdf778029822b5832117816040518080602001828103825283818151815260200191508051906020019080838360005b8381101561163757808201518184015260208101905061161c565b50505050905090810190601f1680156116645780820380516001836020036101000a031916815260200191505b509250505060405180910390a161169e6009868154811061168157fe5b90600052602060002090600d0201600501546001603260016113e1565b600986815481106116ab57fe5b90600052602060002090600d0201600501819055506116ed600986815481106116d057fe5b90600052602060002090600d0201600701546014606460006113e1565b600986815481106116fa57fe5b90600052602060002090600d02016007018190555061173c6009868154811061171f57fe5b90600052602060002090600d0201600801546014606460006113e1565b6009868154811061174957fe5b90600052602060002090600d0201600801819055506117a86009868154811061176e57fe5b90600052602060002090600d02016002015460056009888154811061178f57fe5b90600052602060002090600d02016003015460006113e1565b600986815481106117b557fe5b90600052602060002090600d020160020181905550600f60b4420101600986815481106117de57fe5b90600052602060002090600d0201600a0181905550601860009054906101000a900473ffffffffffffffffffffffffffffffffffffffff1673ffffffffffffffffffffffffffffffffffffffff166323b872dd6019600088815260200190815260200160002060009054906101000a900473ffffffffffffffffffffffffffffffffffffffff16600760009054906101000a900473ffffffffffffffffffffffffffffffffffffffff16600a6040518463ffffffff1660e01b8152600401808473ffffffffffffffffffffffffffffffffffffffff1673ffffffffffffffffffffffffffffffffffffffff1681526020018373ffffffffffffffffffffffffffffffffffffffff1673ffffffffffffffffffffffffffffffffffffffff1681526020018281526020019350505050602060405180830381600087803b15801561192657600080fd5b505af115801561193a573d6000803e3d6000fd5b505050506040513d602081101561195057600080fd5b8101908080519060200190929190505050505050505050565b6000806001600084815260200190815260200160002060009054906101000a900473ffffffffffffffffffffffffffffffffffffffff169050600073ffffffffffffffffffffffffffffffffffffffff168173ffffffffffffffffffffffffffffffffffffffff1614156119dc57600080fd5b80915050919050565b606080600980549050604051908082528060200260200182016040528015611a1c5781602001602082028038833980820191505090505b509050600080905060008090505b600980549050811015611ad7578473ffffffffffffffffffffffffffffffffffffffff166019600083815260200190815260200160002060009054906101000a900473ffffffffffffffffffffffffffffffffffffffff1673ffffffffffffffffffffffffffffffffffffffff161415611ac55780838381518110611aab57fe5b602002602001018181525050611ac2826001613b30565b91505b611ad0816001613b30565b9050611a2a565b508192505050919050565b60008073ffffffffffffffffffffffffffffffffffffffff168273ffffffffffffffffffffffffffffffffffffffff161415611b1d57600080fd5b600360008373ffffffffffffffffffffffffffffffffffffffff1673ffffffffffffffffffffffffffffffffffffffff168152602001908152602001600020549050919050565b601a6020528060005260406000206000915090505481565b601860009054906101000a900473ffffffffffffffffffffffffffffffffffffffff1681565b600081600a80601860009054906101000a900473ffffffffffffffffffffffffffffffffffffffff1673ffffffffffffffffffffffffffffffffffffffff16631a2b0eeb6019600086815260200190815260200160002060009054906101000a900473ffffffffffffffffffffffffffffffffffffffff166040518263ffffffff1660e01b8152600401808273ffffffffffffffffffffffffffffffffffffffff1673ffffffffffffffffffffffffffffffffffffffff16815260200191505060206040518083038186803b158015611c7a57600080fd5b505afa158015611c8e573d6000803e3d6000fd5b505050506040513d6020811015611ca457600080fd5b81019080805190602001909291905050501015611cc057600080fd5b836040518060400160405280600b81526020017f4275737920456174696e670000000000000000000000000000000000000000008152504260098381548110611d0557fe5b90600052602060002090600d0201600a01541115611d2257600080fd5b7ff021f208e3200c5fa30b2f3e6b0802de43b08a050585bdf778029822b5832117816040518080602001828103825283818151815260200191508051906020019080838360005b83811015611d84578082015181840152602081019050611d69565b50505050905090810190601f168015611db15780820380516001836020036101000a031916815260200191505b509250505060405180910390a1611deb60098781548110611dce57fe5b90600052602060002090600d0201600801546019606460016113e1565b60098781548110611df857fe5b90600052602060002090600d020160080181905550611e3a60098781548110611e1d57fe5b90600052602060002090600d020160070154600a606460006113e1565b60098781548110611e4757fe5b90600052602060002090600d020160070181905550611ea660098781548110611e6c57fe5b90600052602060002090600d020160020154600560098981548110611e8d57fe5b90600052602060002090600d02016003015460016113e1565b60098781548110611eb357fe5b90600052602060002090600d020160020181905550603c420160098781548110611ed957fe5b90600052602060002090600d0201600a0181905550601860009054906101000a900473ffffffffffffffffffffffffffffffffffffffff1673ffffffffffffffffffffffffffffffffffffffff166323b872dd6019600089815260200190815260200160002060009054906101000a900473ffffffffffffffffffffffffffffffffffffffff16600760009054906101000a900473ffffffffffffffffffffffffffffffffffffffff16600a6040518463ffffffff1660e01b8152600401808473ffffffffffffffffffffffffffffffffffffffff1673ffffffffffffffffffffffffffffffffffffffff1681526020018373ffffffffffffffffffffffffffffffffffffffff1673ffffffffffffffffffffffffffffffffffffffff1681526020018281526020019350505050602060405180830381600087803b15801561202157600080fd5b505af1158015612035573d6000803e3d6000fd5b505050506040513d602081101561204b57600080fd5b8101908080519060200190929190505050506001945050505050919050565b600760009054906101000a900473ffffffffffffffffffffffffffffffffffffffff1681565b3373ffffffffffffffffffffffffffffffffffffffff168273ffffffffffffffffffffffffffffffffffffffff1614156120c957600080fd5b80600460003373ffffffffffffffffffffffffffffffffffffffff1673ffffffffffffffffffffffffffffffffffffffff16815260200190815260200160002060008473ffffffffffffffffffffffffffffffffffffffff1673ffffffffffffffffffffffffffffffffffffffff16815260200190815260200160002060006101000a81548160ff0219169083151502179055508173ffffffffffffffffffffffffffffffffffffffff163373ffffffffffffffffffffffffffffffffffffffff167f17307eab39ab6107e8899845ad3d59bd9653f200f220920489ca2b5937696c3183604051808215151515815260200191505060405180910390a35050565b600082821115612242576040517f08c379a00000000000000000000000000000000000000000000000000000000081526004018080602001828103825260088152602001807f736166652073756200000000000000000000000000000000000000000000000081525060200191505060405180910390fd5b818303905092915050565b80600a80601860009054906101000a900473ffffffffffffffffffffffffffffffffffffffff1673ffffffffffffffffffffffffffffffffffffffff16631a2b0eeb6019600086815260200190815260200160002060009054906101000a900473ffffffffffffffffffffffffffffffffffffffff166040518263ffffffff1660e01b8152600401808273ffffffffffffffffffffffffffffffffffffffff1673ffffffffffffffffffffffffffffffffffffffff16815260200191505060206040518083038186803b15801561232357600080fd5b505afa158015612337573d6000803e3d6000fd5b505050506040513d602081101561234d57600080fd5b8101908080519060200190929190505050101561236957600080fd5b826040518060400160405280600d81526020017f4275737920547261696e696e670000000000000000000000000000000000000081525042600983815481106123ae57fe5b90600052602060002090600d0201600a015411156123cb57600080fd5b7ff021f208e3200c5fa30b2f3e6b0802de43b08a050585bdf778029822b5832117816040518080602001828103825283818151815260200191508051906020019080838360005b8381101561242d578082015181840152602081019050612412565b50505050905090810190601f16801561245a5780820380516001836020036101000a031916815260200191505b509250505060405180910390a16124946009868154811061247757fe5b90600052602060002090600d0201600401546001603260016113e1565b600986815481106124a157fe5b90600052602060002090600d0201600401819055506124e3600986815481106124c657fe5b90600052602060002090600d0201600701546014606460006113e1565b600986815481106124f057fe5b90600052602060002090600d0201600701819055506125326009868154811061251557fe5b90600052602060002090600d0201600801546014606460006113e1565b6009868154811061253f57fe5b90600052602060002090600d02016008018190555061259e6009868154811061256457fe5b90600052602060002090600d02016002015460056009888154811061258557fe5b90600052602060002090600d02016003015460006113e1565b600986815481106125ab57fe5b90600052602060002090600d02016002018190555061012c4201600986815481106125d257fe5b90600052602060002090600d0201600a0181905550601860009054906101000a900473ffffffffffffffffffffffffffffffffffffffff1673ffffffffffffffffffffffffffffffffffffffff166323b872dd6019600088815260200190815260200160002060009054906101000a900473ffffffffffffffffffffffffffffffffffffffff16600760009054906101000a900473ffffffffffffffffffffffffffffffffffffffff16600a6040518463ffffffff1660e01b8152600401808473ffffffffffffffffffffffffffffffffffffffff1673ffffffffffffffffffffffffffffffffffffffff1681526020018373ffffffffffffffffffffffffffffffffffffffff1673ffffffffffffffffffffffffffffffffffffffff1681526020018281526020019350505050602060405180830381600087803b15801561271a57600080fd5b505af115801561272e573d6000803e3d6000fd5b505050506040513d602081101561274457600080fd5b8101908080519060200190929190505050505050505050565b60006127696064614a68565b6009838154811061277657fe5b90600052602060002090600d020160010154606402019050600061279983614af7565b90508181111561292257601860009054906101000a900473ffffffffffffffffffffffffffffffffffffffff1673ffffffffffffffffffffffffffffffffffffffff166323b872dd600760009054906101000a900473ffffffffffffffffffffffffffffffffffffffff166009868154811061281157fe5b90600052602060002090600d020160090160009054906101000a900473ffffffffffffffffffffffffffffffffffffffff1660196040518463ffffffff1660e01b8152600401808473ffffffffffffffffffffffffffffffffffffffff1673ffffffffffffffffffffffffffffffffffffffff1681526020018373ffffffffffffffffffffffffffffffffffffffff1673ffffffffffffffffffffffffffffffffffffffff1681526020018281526020019350505050602060405180830381600087803b1580156128e157600080fd5b505af11580156128f5573d6000803e3d6000fd5b505050506040513d602081101561290b57600080fd5b810190808051906020019092919050505050612a9d565b601860009054906101000a900473ffffffffffffffffffffffffffffffffffffffff1673ffffffffffffffffffffffffffffffffffffffff166323b872dd6009858154811061296d57fe5b90600052602060002090600d020160090160009054906101000a900473ffffffffffffffffffffffffffffffffffffffff16600760009054906101000a900473ffffffffffffffffffffffffffffffffffffffff16600a6040518463ffffffff1660e01b8152600401808473ffffffffffffffffffffffffffffffffffffffff1673ffffffffffffffffffffffffffffffffffffffff1681526020018373ffffffffffffffffffffffffffffffffffffffff1673ffffffffffffffffffffffffffffffffffffffff1681526020018281526020019350505050602060405180830381600087803b158015612a6057600080fd5b505af1158015612a74573d6000803e3d6000fd5b505050506040513d6020811015612a8a57600080fd5b8101908080519060200190929190505050505b6014420160098481548110612aae57fe5b90600052602060002090600d0201600a01819055507f775673b504a8a0c48d0311ac71cf0f78c79e72f95662baefde277a3fb65938528183604051808381526020018281526020019250505060405180910390a1505050565b80600a80601860009054906101000a900473ffffffffffffffffffffffffffffffffffffffff1673ffffffffffffffffffffffffffffffffffffffff16631a2b0eeb6019600086815260200190815260200160002060009054906101000a900473ffffffffffffffffffffffffffffffffffffffff166040518263ffffffff1660e01b8152600401808273ffffffffffffffffffffffffffffffffffffffff1673ffffffffffffffffffffffffffffffffffffffff16815260200191505060206040518083038186803b158015612bdd57600080fd5b505afa158015612bf1573d6000803e3d6000fd5b505050506040513d6020811015612c0757600080fd5b81019080805190602001909291905050501015612c2357600080fd5b826040518060400160405280600d81526020017f4275737920547261696e696e67000000000000000000000000000000000000008152504260098381548110612c6857fe5b90600052602060002090600d0201600a01541115612c8557600080fd5b7ff021f208e3200c5fa30b2f3e6b0802de43b08a050585bdf778029822b5832117816040518080602001828103825283818151815260200191508051906020019080838360005b83811015612ce7578082015181840152602081019050612ccc565b50505050905090810190601f168015612d145780820380516001836020036101000a031916815260200191505b509250505060405180910390a1612d4e60098681548110612d3157fe5b90600052602060002090600d0201600601546001603260016113e1565b60098681548110612d5b57fe5b90600052602060002090600d020160060181905550612d9d60098681548110612d8057fe5b90600052602060002090600d0201600701546014606460006113e1565b60098681548110612daa57fe5b90600052602060002090600d020160070181905550612dec60098681548110612dcf57fe5b90600052602060002090600d0201600801546014606460006113e1565b60098681548110612df957fe5b90600052602060002090600d020160080181905550612e5860098681548110612e1e57fe5b90600052602060002090600d020160020154600560098881548110612e3f57fe5b90600052602060002090600d02016003015460006113e1565b60098681548110612e6557fe5b90600052602060002090600d0201600201819055506078420160098681548110612e8b57fe5b90600052602060002090600d0201600a0181905550601860009054906101000a900473ffffffffffffffffffffffffffffffffffffffff1673ffffffffffffffffffffffffffffffffffffffff166323b872dd6019600088815260200190815260200160002060009054906101000a900473ffffffffffffffffffffffffffffffffffffffff16600760009054906101000a900473ffffffffffffffffffffffffffffffffffffffff16600a6040518463ffffffff1660e01b8152600401808473ffffffffffffffffffffffffffffffffffffffff1673ffffffffffffffffffffffffffffffffffffffff1681526020018373ffffffffffffffffffffffffffffffffffffffff1673ffffffffffffffffffffffffffffffffffffffff1681526020018281526020019350505050602060405180830381600087803b158015612fd357600080fd5b505af1158015612fe7573d6000803e3d6000fd5b505050506040513d6020811015612ffd57600080fd5b8101908080519060200190929190505050505050505050565b600080821161308d576040517f08c379a00000000000000000000000000000000000000000000000000000000081526004018080602001828103825260088152602001807f736166652064697600000000000000000000000000000000000000000000000081525060200191505060405180910390fd5b81838161309657fe5b04905092915050565b6130aa84848461120a565b50505050565b60065481565b806040518060400160405280601081526020017f4f70706f6e656e7420497320427573790000000000000000000000000000000081525042600983815481106130fb57fe5b90600052602060002090600d0201600a0154111561311857600080fd5b7ff021f208e3200c5fa30b2f3e6b0802de43b08a050585bdf778029822b5832117816040518080602001828103825283818151815260200191508051906020019080838360005b8381101561317a57808201518184015260208101905061315f565b50505050905090810190601f1680156131a75780820380516001836020036101000a031916815260200191505b509250505060405180910390a142600984815481106131c257fe5b90600052602060002090600d0201600b01541115801561321e5750600983815481106131ea57fe5b90600052602060002090600d0201600101546009858154811061320957fe5b90600052602060002090600d02016001015411155b61322757600080fd5b61323083614af7565b61323985614af7565b111561369457601e42016009848154811061325057fe5b90600052602060002090600d0201600b018190555060006132906009868154811061327757fe5b90600052602060002090600d0201600c01546001613b30565b90506009858154811061329f57fe5b90600052602060002090600d0201600101548114156134b0576000600986815481106132c757fe5b90600052602060002090600d0201600c0181905550600985815481106132e957fe5b90600052602060002090600d020160010160008154809291906001019190505550601860009054906101000a900473ffffffffffffffffffffffffffffffffffffffff1673ffffffffffffffffffffffffffffffffffffffff166323b872dd600760009054906101000a900473ffffffffffffffffffffffffffffffffffffffff166009888154811061337857fe5b90600052602060002090600d020160090160009054906101000a900473ffffffffffffffffffffffffffffffffffffffff166133d360098a815481106133ba57fe5b90600052602060002090600d020160010154600561396f565b6040518463ffffffff1660e01b8152600401808473ffffffffffffffffffffffffffffffffffffffff1673ffffffffffffffffffffffffffffffffffffffff1681526020018373ffffffffffffffffffffffffffffffffffffffff1673ffffffffffffffffffffffffffffffffffffffff1681526020018281526020019350505050602060405180830381600087803b15801561346f57600080fd5b505af1158015613483573d6000803e3d6000fd5b505050506040513d602081101561349957600080fd5b8101908080519060200190929190505050506134d4565b80600986815481106134be57fe5b90600052602060002090600d0201600c01819055505b6134dd85614b57565b601860009054906101000a900473ffffffffffffffffffffffffffffffffffffffff1673ffffffffffffffffffffffffffffffffffffffff166323b872dd600760009054906101000a900473ffffffffffffffffffffffffffffffffffffffff166009888154811061354b57fe5b90600052602060002090600d020160090160009054906101000a900473ffffffffffffffffffffffffffffffffffffffff16600a6040518463ffffffff1660e01b8152600401808473ffffffffffffffffffffffffffffffffffffffff1673ffffffffffffffffffffffffffffffffffffffff1681526020018373ffffffffffffffffffffffffffffffffffffffff1673ffffffffffffffffffffffffffffffffffffffff1681526020018281526020019350505050602060405180830381600087803b15801561361b57600080fd5b505af115801561362f573d6000803e3d6000fd5b505050506040513d602081101561364557600080fd5b8101908080519060200190929190505050507fbb3d2435d73ea44ac623b225c6c58edec133edbcc0326a6f1e9d1d5b438252ff856040518082815260200191505060405180910390a150613943565b6000600a90506000600986815481106136a957fe5b90600052602060002090600d0201600c0154141561373c576001600986815481106136d057fe5b90600052602060002090600d0201600101541461373757613710600986815481106136f757fe5b90600052602060002090600d02016001015460016121ca565b6009868154811061371d57fe5b90600052602060002090600d020160010181905550600090505b613788565b6137656009868154811061374c57fe5b90600052602060002090600d0201600c015460016121ca565b6009868154811061377257fe5b90600052602060002090600d0201600c01819055505b61379185614c3b565b601860009054906101000a900473ffffffffffffffffffffffffffffffffffffffff1673ffffffffffffffffffffffffffffffffffffffff166323b872dd600987815481106137dc57fe5b90600052602060002090600d020160090160009054906101000a900473ffffffffffffffffffffffffffffffffffffffff16600760009054906101000a900473ffffffffffffffffffffffffffffffffffffffff16846040518463ffffffff1660e01b8152600401808473ffffffffffffffffffffffffffffffffffffffff1673ffffffffffffffffffffffffffffffffffffffff1681526020018373ffffffffffffffffffffffffffffffffffffffff1673ffffffffffffffffffffffffffffffffffffffff1681526020018281526020019350505050602060405180830381600087803b1580156138ce57600080fd5b505af11580156138e2573d6000803e3d6000fd5b505050506040513d60208110156138f857600080fd5b8101908080519060200190929190505050507fbb3d2435d73ea44ac623b225c6c58edec133edbcc0326a6f1e9d1d5b438252ff846040518082815260200191505060405180910390a1505b601442016009858154811061395457fe5b90600052602060002090600d0201600a018190555050505050565b60008183029050600083148061398d57508183828161398a57fe5b04145b6139ff576040517f08c379a00000000000000000000000000000000000000000000000000000000081526004018080602001828103825260088152602001807f73616665204d756c00000000000000000000000000000000000000000000000081525060200191505060405180910390fd5b92915050565b600a8181548110613a1257fe5b90600052602060002090600d0201600091509050806000018054600181600116156101000203166002900480601f016020809104026020016040519081016040528092919081815260200182805460018160011615610100020316600290048015613abe5780601f10613a9357610100808354040283529160200191613abe565b820191906000526020600020905b815481529060010190602001808311613aa157829003601f168201915b5050505050908060010154908060020154908060030154908060040154908060050154908060060154908060070154908060080154908060090160009054906101000a900473ffffffffffffffffffffffffffffffffffffffff169080600a01549080600b01549080600c015490508d565b6000818301905082811015613bad576040517f08c379a00000000000000000000000000000000000000000000000000000000081526004018080602001828103825260088152602001807f736166652061646400000000000000000000000000000000000000000000000081525060200191505060405180910390fd5b92915050565b6000600460008473ffffffffffffffffffffffffffffffffffffffff1673ffffffffffffffffffffffffffffffffffffffff16815260200190815260200160002060008373ffffffffffffffffffffffffffffffffffffffff1673ffffffffffffffffffffffffffffffffffffffff16815260200190815260200160002060009054906101000a900460ff16905092915050565b60098181548110613c5457fe5b90600052602060002090600d0201600091509050806000018054600181600116156101000203166002900480601f016020809104026020016040519081016040528092919081815260200182805460018160011615610100020316600290048015613d005780601f10613cd557610100808354040283529160200191613d00565b820191906000526020600020905b815481529060010190602001808311613ce357829003601f168201915b5050505050908060010154908060020154908060030154908060040154908060050154908060060154908060070154908060080154908060090160009054906101000a900473ffffffffffffffffffffffffffffffffffffffff169080600a01549080600b01549080600c015490508d565b60196020528060005260406000206000915054906101000a900473ffffffffffffffffffffffffffffffffffffffff1681565b600060016009604051806101a0016040528089815260200160018152602001613dd8613dd2876002613016565b87613b30565b8152602001858152602001888152602001878152602001868152602001613dff6064614a68565b8152602001613e0e6064614a68565b81526020018a73ffffffffffffffffffffffffffffffffffffffff16815260200142815260200142815260200160008152509080600181540180825580915050906001820390600052602060002090600d0201600090919290919091506000820151816000019080519060200190613e87929190614f3a565b506020820151816001015560408201518160020155606082015181600301556080820151816004015560a0820151816005015560c0820151816006015560e0820151816007015561010082015181600801556101208201518160090160006101000a81548173ffffffffffffffffffffffffffffffffffffffff021916908373ffffffffffffffffffffffffffffffffffffffff16021790555061014082015181600a015561016082015181600b015561018082015181600c01555050039050866019600083815260200190815260200160002060006101000a81548173ffffffffffffffffffffffffffffffffffffffff021916908373ffffffffffffffffffffffffffffffffffffffff16021790555080601a60008973ffffffffffffffffffffffffffffffffffffffff1673ffffffffffffffffffffffffffffffffffffffff16815260200190815260200160002081905550601860009054906101000a900473ffffffffffffffffffffffffffffffffffffffff1673ffffffffffffffffffffffffffffffffffffffff166323b872dd600760009054906101000a900473ffffffffffffffffffffffffffffffffffffffff168960326040518463ffffffff1660e01b8152600401808473ffffffffffffffffffffffffffffffffffffffff1673ffffffffffffffffffffffffffffffffffffffff1681526020018373ffffffffffffffffffffffffffffffffffffffff1673ffffffffffffffffffffffffffffffffffffffff1681526020018281526020019350505050602060405180830381600087803b1580156140dd57600080fd5b505af11580156140f1573d6000803e3d6000fd5b505050506040513d602081101561410757600080fd5b8101908080519060200190929190505050506141238782614d3d565b50505050505050565b80600a80601860009054906101000a900473ffffffffffffffffffffffffffffffffffffffff1673ffffffffffffffffffffffffffffffffffffffff16631a2b0eeb6019600086815260200190815260200160002060009054906101000a900473ffffffffffffffffffffffffffffffffffffffff166040518263ffffffff1660e01b8152600401808273ffffffffffffffffffffffffffffffffffffffff1673ffffffffffffffffffffffffffffffffffffffff16815260200191505060206040518083038186803b15801561420257600080fd5b505afa158015614216573d6000803e3d6000fd5b505050506040513d602081101561422c57600080fd5b8101908080519060200190929190505050101561424857600080fd5b826040518060400160405280600d81526020017f4275737920536c656570696e6700000000000000000000000000000000000000815250426009838154811061428d57fe5b90600052602060002090600d0201600a015411156142aa57600080fd5b7ff021f208e3200c5fa30b2f3e6b0802de43b08a050585bdf778029822b5832117816040518080602001828103825283818151815260200191508051906020019080838360005b8381101561430c5780820151818401526020810190506142f1565b50505050905090810190601f1680156143395780820380516001836020036101000a031916815260200191505b509250505060405180910390a16143736009868154811061435657fe5b90600052602060002090600d0201600701546019606460016113e1565b6009868154811061438057fe5b90600052602060002090600d0201600701819055506143c2600986815481106143a557fe5b90600052602060002090600d020160080154600a606460006113e1565b600986815481106143cf57fe5b90600052602060002090600d02016008018190555061442e600986815481106143f457fe5b90600052602060002090600d02016002015460146009888154811061441557fe5b90600052602060002090600d02016003015460016113e1565b6009868154811061443b57fe5b90600052602060002090600d020160020181905550601e603c4201016009868154811061446457fe5b90600052602060002090600d0201600a0181905550601860009054906101000a900473ffffffffffffffffffffffffffffffffffffffff1673ffffffffffffffffffffffffffffffffffffffff166323b872dd6019600088815260200190815260200160002060009054906101000a900473ffffffffffffffffffffffffffffffffffffffff16600760009054906101000a900473ffffffffffffffffffffffffffffffffffffffff16600a6040518463ffffffff1660e01b8152600401808473ffffffffffffffffffffffffffffffffffffffff1673ffffffffffffffffffffffffffffffffffffffff1681526020018373ffffffffffffffffffffffffffffffffffffffff1673ffffffffffffffffffffffffffffffffffffffff1681526020018281526020019350505050602060405180830381600087803b1580156145ac57600080fd5b505af11580156145c0573d6000803e3d6000fd5b505050506040513d60208110156145d657600080fd5b8101908080519060200190929190505050505050505050565b6000806001600084815260200190815260200160002060009054906101000a900473ffffffffffffffffffffffffffffffffffffffff169050600073ffffffffffffffffffffffffffffffffffffffff168173ffffffffffffffffffffffffffffffffffffffff161415915050919050565b60008061466d83611969565b90508073ffffffffffffffffffffffffffffffffffffffff168473ffffffffffffffffffffffffffffffffffffffff1614806146dc57508373ffffffffffffffffffffffffffffffffffffffff166146c484611074565b73ffffffffffffffffffffffffffffffffffffffff16145b806146ed57506146ec8185613bb3565b5b91505092915050565b8173ffffffffffffffffffffffffffffffffffffffff1661471682611969565b73ffffffffffffffffffffffffffffffffffffffff161461473657600080fd5b600073ffffffffffffffffffffffffffffffffffffffff166002600083815260200190815260200160002060009054906101000a900473ffffffffffffffffffffffffffffffffffffffff1673ffffffffffffffffffffffffffffffffffffffff16146147f15760006002600083815260200190815260200160002060006101000a81548173ffffffffffffffffffffffffffffffffffffffff021916908373ffffffffffffffffffffffffffffffffffffffff1602179055505b5050565b8173ffffffffffffffffffffffffffffffffffffffff1661481582611969565b73ffffffffffffffffffffffffffffffffffffffff161461483557600080fd5b61487f600360008473ffffffffffffffffffffffffffffffffffffffff1673ffffffffffffffffffffffffffffffffffffffff1681526020019081526020016000205460016121ca565b600360008473ffffffffffffffffffffffffffffffffffffffff1673ffffffffffffffffffffffffffffffffffffffff1681526020019081526020016000208190555060006001600083815260200190815260200160002060006101000a81548173ffffffffffffffffffffffffffffffffffffffff021916908373ffffffffffffffffffffffffffffffffffffffff1602179055505050565b600073ffffffffffffffffffffffffffffffffffffffff166001600083815260200190815260200160002060009054906101000a900473ffffffffffffffffffffffffffffffffffffffff1673ffffffffffffffffffffffffffffffffffffffff161461498557600080fd5b816001600083815260200190815260200160002060006101000a81548173ffffffffffffffffffffffffffffffffffffffff021916908373ffffffffffffffffffffffffffffffffffffffff160217905550614a21600360008473ffffffffffffffffffffffffffffffffffffffff1673ffffffffffffffffffffffffffffffffffffffff168152602001908152602001600020546001613b30565b600360008473ffffffffffffffffffffffffffffffffffffffff1673ffffffffffffffffffffffffffffffffffffffff168152602001908152602001600020819055505050565b6000600560008154809291906001019190505550814233600554604051602001808481526020018373ffffffffffffffffffffffffffffffffffffffff1673ffffffffffffffffffffffffffffffffffffffff1660601b815260140182815260200193505050506040516020818303038152906040528051906020012060001c81614aef57fe5b069050919050565b600080614b4c614b2d60098581548110614b0d57fe5b90600052602060002090600d020160020154614b2886614de1565b61396f565b614b47614b3986614e6a565b614b4287614ed2565b613b30565b613b30565b905080915050919050565b614b8060098281548110614b6757fe5b90600052602060002090600d0201600201546004613016565b60098281548110614b8d57fe5b90600052602060002090600d020160020181905550614bcb60098281548110614bb257fe5b90600052602060002090600d0201600801546003613016565b60098281548110614bd857fe5b90600052602060002090600d020160080181905550614c1660098281548110614bfd57fe5b90600052602060002090600d0201600701546003613016565b60098281548110614c2357fe5b90600052602060002090600d02016007018190555050565b614c6e614c6760098381548110614c4e57fe5b90600052602060002090600d0201600201546002613016565b6002613016565b60098281548110614c7b57fe5b90600052602060002090600d020160020181905550614cc3614cbc60098381548110614ca357fe5b90600052602060002090600d0201600801546002613016565b6003613016565b60098281548110614cd057fe5b90600052602060002090600d020160080181905550614d18614d1160098381548110614cf857fe5b90600052602060002090600d0201600701546002613016565b6002613016565b60098281548110614d2557fe5b90600052602060002090600d02016007018190555050565b600073ffffffffffffffffffffffffffffffffffffffff168273ffffffffffffffffffffffffffffffffffffffff161415614d7757600080fd5b614d818282614919565b808273ffffffffffffffffffffffffffffffffffffffff16600073ffffffffffffffffffffffffffffffffffffffff167fddf252ad1be2c89b69c2b068fc378daa952ba7f163c4a11628f55a4df523b3ef60405160405180910390a45050565b6000600a60098381548110614df257fe5b90600052602060002090600d0201600201541015614e135760009050614e65565b60098281548110614e2057fe5b90600052602060002090600d02016003015460098381548110614e3f57fe5b90600052602060002090600d0201600201541415614e605760029050614e65565b600190505b919050565b600080614ec7614e9960098581548110614e8057fe5b90600052602060002090600d020160040154600361396f565b614ec260098681548110614ea957fe5b90600052602060002090600d020160060154600261396f565b613b30565b905080915050919050565b600080614f2f614f0160098581548110614ee857fe5b90600052602060002090600d020160050154600361396f565b614f2a60098681548110614f1157fe5b90600052602060002090600d020160060154600261396f565b613b30565b905080915050919050565b828054600181600116156101000203166002900490600052602060002090601f016020900481019282601f10614f7b57805160ff1916838001178555614fa9565b82800160010185558215614fa9579182015b82811115614fa8578251825591602001919060010190614f8d565b5b509050614fb69190614fba565b5090565b614fdc91905b80821115614fd8576000816000905550600101614fc0565b5090565b9056fea265627a7a72315820bb5e9f6cd1ab54c636564baedb4b71f3916c6ad05dc1baa66d75791859c72f7764736f6c63430005100032",
  "source": "pragma solidity ^0.5.0;\r\n\r\nimport \"./ERC721.sol\";\r\nimport \"./ERC20.sol\";\r\n\r\ncontract CryptoGame is ERC721 {\r\n    uint256 constant MIN_AMOUNT = 5;\r\n    uint256 constant LOW_AMOUNT = 10;\r\n    uint256 constant STANDARD_AMOUNT = 20;\r\n    uint256 constant HIGH_AMOUNT = 25;\r\n\r\n    uint256 constant MAX_STAMINA = 50;\r\n    uint256 constant MAX_STRENGTH = 50;\r\n    uint256 constant MAX_DEXTERITY = 50;\r\n    uint256 constant MAX_VIGOR = 100;\r\n    uint256 constant MAX_SATIATION = 100;\r\n\r\n    struct Gladiator {\r\n        string name;\r\n        uint256 tier;\r\n        uint256 hp;\r\n        uint256 max_hp;\r\n        uint256 stamina;\r\n        uint256 strength;\r\n        uint256 dexterity;\r\n        uint256 vigor;\r\n        uint256 satiation;\r\n        address boss;\r\n        uint256 cooldownTime;\r\n        uint256 safetyNetCooldown;\r\n        uint256 wins;\r\n    }\r\n\r\n    uint256 randNonce = 0;\r\n    uint256 public numGladiators = 0;\r\n    address public owner;\r\n    uint256 public arenaTime;\r\n\r\n    Gladiator[] public gladiators;\r\n    Gladiator[] public gladiatorsForArena;\r\n    Gladiator public gladiatorBot;\r\n    ERC20 public bank;\r\n\r\n    mapping(uint256 => address) public gladiatorToOwner;\r\n    mapping(address => uint256) public ownerToGladiator;\r\n\r\n    event BusyEvent(string _messege);\r\n    event Winner(uint256 _winnerId);\r\n    event AIFightStatistics(uint256 _myPower, uint256 _aiPower);\r\n\r\n    modifier onlyOwnerOf(address _owner) {\r\n        require(msg.sender == _owner);\r\n        _;\r\n    }\r\n\r\n    modifier onlyOwner(address _owner) {\r\n        require(owner == _owner);\r\n        _;\r\n    }\r\n\r\n    modifier canAfford(uint256 _id, uint256 _cost) {\r\n        require(bank.thebalanceOf(gladiatorToOwner[_id]) >= _cost);\r\n        _;\r\n    }\r\n\r\n    modifier isBusy(uint256 _id, string memory _message) {\r\n        require(gladiators[_id].cooldownTime <= now);\r\n        emit BusyEvent(_message);\r\n        _;\r\n    }\r\n\r\n    constructor(ERC20 tokens) public {\r\n        owner = msg.sender;\r\n        bank = tokens;\r\n        arenaTime = now + 2 minutes;\r\n    }\r\n\r\n    function randMod(uint256 _modulus) internal returns (uint256) {\r\n        randNonce++;\r\n        return\r\n            uint256(keccak256(abi.encodePacked(now, msg.sender, randNonce))) %\r\n            _modulus;\r\n    }\r\n\r\n    function recruitGladiator(\r\n        address _owner,\r\n        string memory _name,\r\n        uint256 _stamina,\r\n        uint256 _strength,\r\n        uint256 _dexterity,\r\n        uint256 _maxHp\r\n    ) public {\r\n        uint256 id =\r\n            gladiators.push(\r\n                Gladiator(\r\n                    _name,\r\n                    1,\r\n                    safeAdd(safeDiv(_maxHp, 2), _maxHp),\r\n                    _maxHp,\r\n                    _stamina,\r\n                    _strength,\r\n                    _dexterity,\r\n                    randMod(100),\r\n                    randMod(100),\r\n                    _owner,\r\n                    now,\r\n                    now,\r\n                    0\r\n                )\r\n            ) - 1;\r\n        gladiatorToOwner[id] = _owner;\r\n        ownerToGladiator[_owner] = id;\r\n        bank.transferFrom(owner, _owner, 50);\r\n        _mint(_owner, id);\r\n    }\r\n\r\n    function getGladiatorsByOwner(address _owner)\r\n        public\r\n        view\r\n        returns (uint256[] memory)\r\n    {\r\n        uint256[] memory result = new uint256[](gladiators.length);\r\n        uint256 counter = 0;\r\n        for (uint256 i = 0; i < gladiators.length; i = safeAdd(i, 1)) {\r\n            if (gladiatorToOwner[i] == _owner) {\r\n                result[counter] = i;\r\n                counter = safeAdd(counter, 1);\r\n            }\r\n        }\r\n        return result;\r\n    }\r\n\r\n    // new functions:\r\n    function updateMaxHP(uint256 _gladiatorId) internal {\r\n        gladiators[_gladiatorId].max_hp = safeAdd(\r\n            100,\r\n            safeAdd(\r\n                gladiators[_gladiatorId].dexterity,\r\n                safeAdd(\r\n                    gladiators[_gladiatorId].strength,\r\n                    safeMul(gladiators[_gladiatorId].stamina, 3)\r\n                )\r\n            )\r\n        );\r\n    }\r\n\r\n    function checkLimits(\r\n        uint256 score,\r\n        uint256 amount,\r\n        uint256 max,\r\n        bool isAddition\r\n    ) public returns (uint256) {\r\n        if (isAddition) {\r\n            uint256 res = safeAdd(score, amount);\r\n            if (res > max) {\r\n                return max;\r\n            } else {\r\n                return res;\r\n            }\r\n        } else {\r\n            if (score < amount) {\r\n                return 0;\r\n            } else {\r\n                return safeSub(score, amount);\r\n            }\r\n        }\r\n    }\r\n\r\n    function eat(uint256 _gladiatorId)\r\n        external\r\n        canAfford(_gladiatorId, 10)\r\n        isBusy(_gladiatorId, \"Busy Eating\")\r\n        returns (bool)\r\n    {\r\n        // cost - ingame currency\r\n        // time - add a hour for each use.\r\n        //require(gladiators[_gladiatorId].cooldownTime <= now);\r\n        gladiators[_gladiatorId].satiation = checkLimits(\r\n            gladiators[_gladiatorId].satiation,\r\n            HIGH_AMOUNT,\r\n            MAX_SATIATION,\r\n            true\r\n        );\r\n\r\n        gladiators[_gladiatorId].vigor = checkLimits(\r\n            gladiators[_gladiatorId].vigor,\r\n            LOW_AMOUNT,\r\n            MAX_VIGOR,\r\n            false\r\n        );\r\n\r\n        gladiators[_gladiatorId].hp = checkLimits(\r\n            gladiators[_gladiatorId].hp,\r\n            MIN_AMOUNT,\r\n            gladiators[_gladiatorId].max_hp,\r\n            true\r\n        );\r\n\r\n        gladiators[_gladiatorId].cooldownTime = now + 1 minutes;\r\n        bank.transferFrom(gladiatorToOwner[_gladiatorId], owner, 10);\r\n        return true;\r\n    }\r\n\r\n    function sleep(uint256 _gladiatorId)\r\n        external\r\n        canAfford(_gladiatorId, 10)\r\n        isBusy(_gladiatorId, \"Busy Sleeping\")\r\n    {\r\n        // cost - ingame currency\r\n        // time - add a hour for each use.\r\n\r\n        gladiators[_gladiatorId].vigor = checkLimits(\r\n            gladiators[_gladiatorId].vigor,\r\n            HIGH_AMOUNT,\r\n            MAX_VIGOR,\r\n            true\r\n        );\r\n\r\n        gladiators[_gladiatorId].satiation = checkLimits(\r\n            gladiators[_gladiatorId].satiation,\r\n            LOW_AMOUNT,\r\n            MAX_SATIATION,\r\n            false\r\n        );\r\n\r\n        gladiators[_gladiatorId].hp = checkLimits(\r\n            gladiators[_gladiatorId].hp,\r\n            STANDARD_AMOUNT,\r\n            gladiators[_gladiatorId].max_hp,\r\n            true\r\n        );\r\n\r\n        gladiators[_gladiatorId].cooldownTime = now + 1 minutes + 30 seconds;\r\n        bank.transferFrom(gladiatorToOwner[_gladiatorId], owner, 10);\r\n    }\r\n\r\n    // Strength\r\n    function muscleTraining(uint256 _gladiatorId)\r\n        external\r\n        canAfford(_gladiatorId, 10)\r\n        isBusy(_gladiatorId, \"Busy Training\")\r\n    {\r\n        // cost - ingame currency\r\n        // time - add a hour for each use.\r\n\r\n        gladiators[_gladiatorId].strength = checkLimits(\r\n            gladiators[_gladiatorId].strength,\r\n            1,\r\n            MAX_STRENGTH,\r\n            true\r\n        );\r\n\r\n        gladiators[_gladiatorId].vigor = checkLimits(\r\n            gladiators[_gladiatorId].vigor,\r\n            STANDARD_AMOUNT,\r\n            MAX_VIGOR,\r\n            false\r\n        );\r\n\r\n        gladiators[_gladiatorId].satiation = checkLimits(\r\n            gladiators[_gladiatorId].satiation,\r\n            STANDARD_AMOUNT,\r\n            MAX_SATIATION,\r\n            false\r\n        );\r\n\r\n        gladiators[_gladiatorId].hp = checkLimits(\r\n            gladiators[_gladiatorId].hp,\r\n            MIN_AMOUNT,\r\n            gladiators[_gladiatorId].max_hp,\r\n            false\r\n        );\r\n\r\n        gladiators[_gladiatorId].cooldownTime = now + 3 minutes + 15 seconds;\r\n        bank.transferFrom(gladiatorToOwner[_gladiatorId], owner, 10);\r\n    }\r\n\r\n    // Stamina\r\n    function enduranceTraining(uint256 _gladiatorId)\r\n        external\r\n        canAfford(_gladiatorId, 10)\r\n        isBusy(_gladiatorId, \"Busy Training\")\r\n    {\r\n        // cost - ingame currency\r\n        // time - add a hour for each use.\r\n\r\n        gladiators[_gladiatorId].stamina = checkLimits(\r\n            gladiators[_gladiatorId].stamina,\r\n            1,\r\n            MAX_STAMINA,\r\n            true\r\n        );\r\n\r\n        gladiators[_gladiatorId].vigor = checkLimits(\r\n            gladiators[_gladiatorId].vigor,\r\n            STANDARD_AMOUNT,\r\n            MAX_VIGOR,\r\n            false\r\n        );\r\n\r\n        gladiators[_gladiatorId].satiation = checkLimits(\r\n            gladiators[_gladiatorId].satiation,\r\n            STANDARD_AMOUNT,\r\n            MAX_SATIATION,\r\n            false\r\n        );\r\n\r\n        gladiators[_gladiatorId].hp = checkLimits(\r\n            gladiators[_gladiatorId].hp,\r\n            MIN_AMOUNT,\r\n            gladiators[_gladiatorId].max_hp,\r\n            false\r\n        );\r\n\r\n        gladiators[_gladiatorId].cooldownTime = now + 5 minutes;\r\n        bank.transferFrom(gladiatorToOwner[_gladiatorId], owner, 10);\r\n    }\r\n\r\n    // Dexterity\r\n    function flexibilityTraining(uint256 _gladiatorId)\r\n        external\r\n        canAfford(_gladiatorId, 10)\r\n        isBusy(_gladiatorId, \"Busy Training\")\r\n    {\r\n        // cost - ingame currency\r\n        // time - add a hour for each use.\r\n        gladiators[_gladiatorId].dexterity = checkLimits(\r\n            gladiators[_gladiatorId].dexterity,\r\n            1,\r\n            MAX_DEXTERITY,\r\n            true\r\n        );\r\n\r\n        gladiators[_gladiatorId].vigor = checkLimits(\r\n            gladiators[_gladiatorId].vigor,\r\n            STANDARD_AMOUNT,\r\n            MAX_VIGOR,\r\n            false\r\n        );\r\n\r\n        gladiators[_gladiatorId].satiation = checkLimits(\r\n            gladiators[_gladiatorId].satiation,\r\n            STANDARD_AMOUNT,\r\n            MAX_SATIATION,\r\n            false\r\n        );\r\n\r\n        gladiators[_gladiatorId].hp = checkLimits(\r\n            gladiators[_gladiatorId].hp,\r\n            MIN_AMOUNT,\r\n            gladiators[_gladiatorId].max_hp,\r\n            false\r\n        );\r\n\r\n        gladiators[_gladiatorId].cooldownTime = now + 2 minutes;\r\n        bank.transferFrom(gladiatorToOwner[_gladiatorId], owner, 10);\r\n    }\r\n\r\n    function hpStatusModifier(uint256 _gladiatorId) internal returns (uint256) {\r\n        if (gladiators[_gladiatorId].hp < 10) {\r\n            // below 10 -> no benefit to power.\r\n            return 0;\r\n        } else if (\r\n            gladiators[_gladiatorId].hp == gladiators[_gladiatorId].max_hp\r\n        ) {\r\n            // double benefit\r\n            return 2;\r\n        } else {\r\n            // normal benefit\r\n            return 1;\r\n        }\r\n    }\r\n\r\n    function vigorStatus(uint256 _gladiatorId) internal returns (uint256) {\r\n        if (gladiators[_gladiatorId].vigor < 5) {\r\n            // The Gladiator is exhausted -> no benefit to power.\r\n            return 0;\r\n        } else if (\r\n            (gladiators[_gladiatorId].vigor >= 5 &&\r\n                gladiators[_gladiatorId].vigor < 50) ||\r\n            (gladiators[_gladiatorId].vigor > 75 &&\r\n                gladiators[_gladiatorId].vigor <= 100)\r\n        ) {\r\n            // fatigue or hypersomnia/oversleeping\r\n            return 1;\r\n        } else {\r\n            // optimal wakefulness\r\n            return 2;\r\n        }\r\n    }\r\n\r\n    function satiationStatus(uint256 _gladiatorId) internal returns (uint256) {\r\n        if (gladiators[_gladiatorId].hp < 10) {\r\n            // The Gladiator is famished -> no benefit to power.\r\n            return 0;\r\n        } else if (\r\n            (gladiators[_gladiatorId].vigor >= 10 &&\r\n                gladiators[_gladiatorId].vigor < 60) ||\r\n            (gladiators[_gladiatorId].vigor > 80 &&\r\n                gladiators[_gladiatorId].vigor <= 100)\r\n        ) {\r\n            // undereating or overeating\r\n            return 1;\r\n        } else {\r\n            // optimal food consumption\r\n            return 2;\r\n        }\r\n    }\r\n\r\n    function calcDef(uint256 _gladiatorId) internal returns (uint256) {\r\n        uint256 def =\r\n            safeAdd(\r\n                safeMul(gladiators[_gladiatorId].stamina, 3),\r\n                safeMul(gladiators[_gladiatorId].dexterity, 2)\r\n            );\r\n        return def;\r\n    }\r\n\r\n    function calcAtt(uint256 _gladiatorId) internal returns (uint256) {\r\n        uint256 att =\r\n            safeAdd(\r\n                safeMul(gladiators[_gladiatorId].strength, 3),\r\n                safeMul(gladiators[_gladiatorId].dexterity, 2)\r\n            );\r\n        return att;\r\n    }\r\n\r\n    function calcPower(uint256 _gladiatorId) internal returns (uint256) {\r\n        uint256 power =\r\n            safeAdd(\r\n                safeMul(\r\n                    gladiators[_gladiatorId].hp,\r\n                    hpStatusModifier(_gladiatorId)\r\n                ),\r\n                safeAdd(calcDef(_gladiatorId), calcAtt(_gladiatorId))\r\n            );\r\n        return power;\r\n    }\r\n\r\n    function handleStatsFromVictory(uint256 _gladiatorId) internal {\r\n        gladiators[_gladiatorId].hp = safeDiv(gladiators[_gladiatorId].hp, 4);\r\n        gladiators[_gladiatorId].satiation = safeDiv(\r\n            gladiators[_gladiatorId].satiation,\r\n            3\r\n        );\r\n        gladiators[_gladiatorId].vigor = safeDiv(\r\n            gladiators[_gladiatorId].vigor,\r\n            3\r\n        );\r\n    }\r\n\r\n    function handleStatsFromLoss(uint256 _gladiatorId) internal {\r\n        gladiators[_gladiatorId].hp = safeDiv(\r\n            safeDiv(gladiators[_gladiatorId].hp, 2),\r\n            2\r\n        );\r\n        gladiators[_gladiatorId].satiation = safeDiv(\r\n            safeDiv(gladiators[_gladiatorId].satiation, 2),\r\n            3\r\n        );\r\n        gladiators[_gladiatorId].vigor = safeDiv(\r\n            safeDiv(gladiators[_gladiatorId].vigor, 2),\r\n            2\r\n        );\r\n    }\r\n\r\n    function fightAI(uint256 _gladiatorId) external {\r\n        uint256 aiPower = 100 * gladiators[_gladiatorId].tier + randMod(100);\r\n        uint256 gladPower = calcPower(_gladiatorId);\r\n        // Compare the power of both gladiators.\r\n        if (gladPower > aiPower) {\r\n            bank.transferFrom(owner, gladiators[_gladiatorId].boss, 25);\r\n        } else {\r\n            bank.transferFrom(gladiators[_gladiatorId].boss, owner, 10);\r\n        }\r\n        gladiators[_gladiatorId].cooldownTime = now + 20 seconds;\r\n        emit AIFightStatistics(gladPower, aiPower);\r\n    }\r\n\r\n    function fight(uint256 _gladiatorId1, uint256 _gladiatorId2)\r\n        external\r\n        isBusy(_gladiatorId2, \"Opponent Is Busy\")\r\n    {\r\n        require(\r\n            gladiators[_gladiatorId2].safetyNetCooldown <= now &&\r\n                gladiators[_gladiatorId1].tier <= gladiators[_gladiatorId2].tier\r\n        );\r\n\r\n        // Compare the power of both gladiators.\r\n        if (calcPower(_gladiatorId1) > calcPower(_gladiatorId2)) {\r\n            gladiators[_gladiatorId2].safetyNetCooldown = now + 30 seconds;\r\n\r\n            uint256 numWins = safeAdd(gladiators[_gladiatorId1].wins, 1);\r\n            if (numWins == gladiators[_gladiatorId1].tier) {\r\n                gladiators[_gladiatorId1].wins = 0;\r\n                gladiators[_gladiatorId1].tier++;\r\n                bank.transferFrom(\r\n                    owner,\r\n                    gladiators[_gladiatorId1].boss,\r\n                    safeMul(gladiators[_gladiatorId1].tier, 5)\r\n                );\r\n            } else {\r\n                gladiators[_gladiatorId1].wins = numWins;\r\n            }\r\n\r\n            handleStatsFromVictory(_gladiatorId1);\r\n            bank.transferFrom(owner, gladiators[_gladiatorId1].boss, 10);\r\n            emit Winner(_gladiatorId1);\r\n        } else {\r\n            // player 2 wins!\r\n            uint256 lossAmount = 10;\r\n            if (gladiators[_gladiatorId1].wins == 0) {\r\n                if (gladiators[_gladiatorId1].tier != 1) {\r\n                    gladiators[_gladiatorId1].tier = safeSub(\r\n                        gladiators[_gladiatorId1].tier,\r\n                        1\r\n                    );\r\n                    lossAmount = 0;\r\n                }\r\n            } else {\r\n                gladiators[_gladiatorId1].wins = safeSub(\r\n                    gladiators[_gladiatorId1].wins,\r\n                    1\r\n                );\r\n            }\r\n\r\n            handleStatsFromLoss(_gladiatorId1);\r\n            bank.transferFrom(\r\n                gladiators[_gladiatorId1].boss,\r\n                owner,\r\n                lossAmount\r\n            );\r\n            emit Winner(_gladiatorId2);\r\n        }\r\n        gladiators[_gladiatorId1].cooldownTime = now + 20 seconds;\r\n    }\r\n\r\n    function randomInRange(uint256 _low, uint256 _high)\r\n        internal\r\n        returns (uint256)\r\n    {\r\n        uint256 randomnumber =\r\n            uint256(keccak256(abi.encodePacked(now, msg.sender, randNonce))) %\r\n                (_high - _low);\r\n        randomnumber = randomnumber + _low;\r\n        randNonce++;\r\n        return randomnumber;\r\n    }\r\n}\r\n",
  "sourcePath": "D:/Homework/Y4S1/Blockchain/Projects/GladShop/contracts/CryptoGame.sol",
  "compiler": {
    "name": "solc",
    "version": "0.5.16+commit.9c3226ce.Emscripten.clang"
  },
  "schemaVersion": "3.3.3",
  "updatedAt": "2021-02-10T17:55:56.729Z",
  "networkType": "ethereum",
  "devdoc": {
    "methods": {}
  },
  "userdoc": {
    "methods": {}
  }
}