{
  "contractName": "CryptoGame",
  "abi": [
    {
      "inputs": [
        {
          "internalType": "contract ERC20",
          "name": "tokens",
          "type": "address"
        }
      ],
      "payable": false,
      "stateMutability": "nonpayable",
      "type": "constructor"
    },
    {
      "anonymous": false,
      "inputs": [
        {
          "indexed": true,
          "internalType": "address",
          "name": "owner",
          "type": "address"
        },
        {
          "indexed": true,
          "internalType": "address",
          "name": "approved",
          "type": "address"
        },
        {
          "indexed": true,
          "internalType": "uint256",
          "name": "tokenId",
          "type": "uint256"
        }
      ],
      "name": "Approval",
      "type": "event"
    },
    {
      "anonymous": false,
      "inputs": [
        {
          "indexed": true,
          "internalType": "address",
          "name": "owner",
          "type": "address"
        },
        {
          "indexed": true,
          "internalType": "address",
          "name": "operator",
          "type": "address"
        },
        {
          "indexed": false,
          "internalType": "bool",
          "name": "approved",
          "type": "bool"
        }
      ],
      "name": "ApprovalForAll",
      "type": "event"
    },
    {
      "anonymous": false,
      "inputs": [
        {
          "indexed": true,
          "internalType": "address",
          "name": "from",
          "type": "address"
        },
        {
          "indexed": true,
          "internalType": "address",
          "name": "to",
          "type": "address"
        },
        {
          "indexed": true,
          "internalType": "uint256",
          "name": "tokenId",
          "type": "uint256"
        }
      ],
      "name": "Transfer",
      "type": "event"
    },
    {
      "anonymous": false,
      "inputs": [
        {
          "indexed": false,
          "internalType": "uint256",
          "name": "_winnerId",
          "type": "uint256"
        }
      ],
      "name": "Winner",
      "type": "event"
    },
    {
      "constant": false,
      "inputs": [
        {
          "internalType": "address",
          "name": "to",
          "type": "address"
        },
        {
          "internalType": "uint256",
          "name": "tokenId",
          "type": "uint256"
        }
      ],
      "name": "approve",
      "outputs": [],
      "payable": false,
      "stateMutability": "nonpayable",
      "type": "function"
    },
    {
      "constant": true,
      "inputs": [],
      "name": "arenaTime",
      "outputs": [
        {
          "internalType": "uint256",
          "name": "",
          "type": "uint256"
        }
      ],
      "payable": false,
      "stateMutability": "view",
      "type": "function"
    },
    {
      "constant": true,
      "inputs": [
        {
          "internalType": "address",
          "name": "owner",
          "type": "address"
        }
      ],
      "name": "balanceOf",
      "outputs": [
        {
          "internalType": "uint256",
          "name": "",
          "type": "uint256"
        }
      ],
      "payable": false,
      "stateMutability": "view",
      "type": "function"
    },
    {
      "constant": true,
      "inputs": [],
      "name": "bank",
      "outputs": [
        {
          "internalType": "contract ERC20",
          "name": "",
          "type": "address"
        }
      ],
      "payable": false,
      "stateMutability": "view",
      "type": "function"
    },
    {
      "constant": true,
      "inputs": [
        {
          "internalType": "uint256",
          "name": "tokenId",
          "type": "uint256"
        }
      ],
      "name": "getApproved",
      "outputs": [
        {
          "internalType": "address",
          "name": "",
          "type": "address"
        }
      ],
      "payable": false,
      "stateMutability": "view",
      "type": "function"
    },
    {
      "constant": true,
      "inputs": [
        {
          "internalType": "uint256",
          "name": "",
          "type": "uint256"
        }
      ],
      "name": "gladiatorToOwner",
      "outputs": [
        {
          "internalType": "address",
          "name": "",
          "type": "address"
        }
      ],
      "payable": false,
      "stateMutability": "view",
      "type": "function"
    },
    {
      "constant": true,
      "inputs": [
        {
          "internalType": "uint256",
          "name": "",
          "type": "uint256"
        }
      ],
      "name": "gladiators",
      "outputs": [
        {
          "internalType": "string",
          "name": "name",
          "type": "string"
        },
        {
          "internalType": "uint256",
          "name": "level",
          "type": "uint256"
        },
        {
          "internalType": "uint256",
          "name": "hp",
          "type": "uint256"
        },
        {
          "internalType": "uint256",
          "name": "max_hp",
          "type": "uint256"
        },
        {
          "internalType": "uint256",
          "name": "stamina",
          "type": "uint256"
        },
        {
          "internalType": "uint256",
          "name": "strength",
          "type": "uint256"
        },
        {
          "internalType": "uint256",
          "name": "dexterity",
          "type": "uint256"
        },
        {
          "internalType": "uint256",
          "name": "vigor",
          "type": "uint256"
        },
        {
          "internalType": "uint256",
          "name": "satiation",
          "type": "uint256"
        },
        {
          "internalType": "address",
          "name": "boss",
          "type": "address"
        },
        {
          "internalType": "uint256",
          "name": "cooldownTime",
          "type": "uint256"
        }
      ],
      "payable": false,
      "stateMutability": "view",
      "type": "function"
    },
    {
      "constant": true,
      "inputs": [
        {
          "internalType": "uint256",
          "name": "",
          "type": "uint256"
        }
      ],
      "name": "gladiatorsForArena",
      "outputs": [
        {
          "internalType": "string",
          "name": "name",
          "type": "string"
        },
        {
          "internalType": "uint256",
          "name": "level",
          "type": "uint256"
        },
        {
          "internalType": "uint256",
          "name": "hp",
          "type": "uint256"
        },
        {
          "internalType": "uint256",
          "name": "max_hp",
          "type": "uint256"
        },
        {
          "internalType": "uint256",
          "name": "stamina",
          "type": "uint256"
        },
        {
          "internalType": "uint256",
          "name": "strength",
          "type": "uint256"
        },
        {
          "internalType": "uint256",
          "name": "dexterity",
          "type": "uint256"
        },
        {
          "internalType": "uint256",
          "name": "vigor",
          "type": "uint256"
        },
        {
          "internalType": "uint256",
          "name": "satiation",
          "type": "uint256"
        },
        {
          "internalType": "address",
          "name": "boss",
          "type": "address"
        },
        {
          "internalType": "uint256",
          "name": "cooldownTime",
          "type": "uint256"
        }
      ],
      "payable": false,
      "stateMutability": "view",
      "type": "function"
    },
    {
      "constant": true,
      "inputs": [
        {
          "internalType": "address",
          "name": "owner",
          "type": "address"
        },
        {
          "internalType": "address",
          "name": "operator",
          "type": "address"
        }
      ],
      "name": "isApprovedForAll",
      "outputs": [
        {
          "internalType": "bool",
          "name": "",
          "type": "bool"
        }
      ],
      "payable": false,
      "stateMutability": "view",
      "type": "function"
    },
    {
      "constant": true,
      "inputs": [],
      "name": "numGladiators",
      "outputs": [
        {
          "internalType": "uint256",
          "name": "",
          "type": "uint256"
        }
      ],
      "payable": false,
      "stateMutability": "view",
      "type": "function"
    },
    {
      "constant": true,
      "inputs": [],
      "name": "owner",
      "outputs": [
        {
          "internalType": "address",
          "name": "",
          "type": "address"
        }
      ],
      "payable": false,
      "stateMutability": "view",
      "type": "function"
    },
    {
      "constant": true,
      "inputs": [
        {
          "internalType": "uint256",
          "name": "tokenId",
          "type": "uint256"
        }
      ],
      "name": "ownerOf",
      "outputs": [
        {
          "internalType": "address",
          "name": "",
          "type": "address"
        }
      ],
      "payable": false,
      "stateMutability": "view",
      "type": "function"
    },
    {
      "constant": true,
      "inputs": [
        {
          "internalType": "address",
          "name": "",
          "type": "address"
        }
      ],
      "name": "ownerToGladiator",
      "outputs": [
        {
          "internalType": "uint256",
          "name": "",
          "type": "uint256"
        }
      ],
      "payable": false,
      "stateMutability": "view",
      "type": "function"
    },
    {
      "constant": true,
      "inputs": [
        {
          "internalType": "uint256",
          "name": "a",
          "type": "uint256"
        },
        {
          "internalType": "uint256",
          "name": "b",
          "type": "uint256"
        }
      ],
      "name": "safeAdd",
      "outputs": [
        {
          "internalType": "uint256",
          "name": "c",
          "type": "uint256"
        }
      ],
      "payable": false,
      "stateMutability": "pure",
      "type": "function"
    },
    {
      "constant": true,
      "inputs": [
        {
          "internalType": "uint256",
          "name": "a",
          "type": "uint256"
        },
        {
          "internalType": "uint256",
          "name": "b",
          "type": "uint256"
        }
      ],
      "name": "safeDiv",
      "outputs": [
        {
          "internalType": "uint256",
          "name": "c",
          "type": "uint256"
        }
      ],
      "payable": false,
      "stateMutability": "pure",
      "type": "function"
    },
    {
      "constant": true,
      "inputs": [
        {
          "internalType": "uint256",
          "name": "a",
          "type": "uint256"
        },
        {
          "internalType": "uint256",
          "name": "b",
          "type": "uint256"
        }
      ],
      "name": "safeMul",
      "outputs": [
        {
          "internalType": "uint256",
          "name": "c",
          "type": "uint256"
        }
      ],
      "payable": false,
      "stateMutability": "pure",
      "type": "function"
    },
    {
      "constant": true,
      "inputs": [
        {
          "internalType": "uint256",
          "name": "a",
          "type": "uint256"
        },
        {
          "internalType": "uint256",
          "name": "b",
          "type": "uint256"
        }
      ],
      "name": "safeSub",
      "outputs": [
        {
          "internalType": "uint256",
          "name": "c",
          "type": "uint256"
        }
      ],
      "payable": false,
      "stateMutability": "pure",
      "type": "function"
    },
    {
      "constant": false,
      "inputs": [
        {
          "internalType": "address",
          "name": "from",
          "type": "address"
        },
        {
          "internalType": "address",
          "name": "to",
          "type": "address"
        },
        {
          "internalType": "uint256",
          "name": "tokenId",
          "type": "uint256"
        }
      ],
      "name": "safeTransferFrom",
      "outputs": [],
      "payable": false,
      "stateMutability": "nonpayable",
      "type": "function"
    },
    {
      "constant": false,
      "inputs": [
        {
          "internalType": "address",
          "name": "from",
          "type": "address"
        },
        {
          "internalType": "address",
          "name": "to",
          "type": "address"
        },
        {
          "internalType": "uint256",
          "name": "tokenId",
          "type": "uint256"
        },
        {
          "internalType": "bytes",
          "name": "_data",
          "type": "bytes"
        }
      ],
      "name": "safeTransferFrom",
      "outputs": [],
      "payable": false,
      "stateMutability": "nonpayable",
      "type": "function"
    },
    {
      "constant": false,
      "inputs": [
        {
          "internalType": "address",
          "name": "to",
          "type": "address"
        },
        {
          "internalType": "bool",
          "name": "approved",
          "type": "bool"
        }
      ],
      "name": "setApprovalForAll",
      "outputs": [],
      "payable": false,
      "stateMutability": "nonpayable",
      "type": "function"
    },
    {
      "constant": true,
      "inputs": [
        {
          "internalType": "bytes4",
          "name": "interfaceId",
          "type": "bytes4"
        }
      ],
      "name": "supportsInterface",
      "outputs": [
        {
          "internalType": "bool",
          "name": "",
          "type": "bool"
        }
      ],
      "payable": false,
      "stateMutability": "view",
      "type": "function"
    },
    {
      "constant": false,
      "inputs": [
        {
          "internalType": "address",
          "name": "from",
          "type": "address"
        },
        {
          "internalType": "address",
          "name": "to",
          "type": "address"
        },
        {
          "internalType": "uint256",
          "name": "tokenId",
          "type": "uint256"
        }
      ],
      "name": "transferFrom",
      "outputs": [],
      "payable": false,
      "stateMutability": "nonpayable",
      "type": "function"
    },
    {
      "constant": false,
      "inputs": [
        {
          "internalType": "address",
          "name": "_owner",
          "type": "address"
        }
      ],
      "name": "getMyGladiator",
      "outputs": [
        {
          "internalType": "uint256",
          "name": "",
          "type": "uint256"
        }
      ],
      "payable": false,
      "stateMutability": "nonpayable",
      "type": "function"
    },
    {
      "constant": false,
      "inputs": [
        {
          "internalType": "address",
          "name": "_owner",
          "type": "address"
        },
        {
          "internalType": "string",
          "name": "_name",
          "type": "string"
        },
        {
          "internalType": "uint256",
          "name": "_stamina",
          "type": "uint256"
        },
        {
          "internalType": "uint256",
          "name": "_strength",
          "type": "uint256"
        },
        {
          "internalType": "uint256",
          "name": "_dexterity",
          "type": "uint256"
        },
        {
          "internalType": "uint256",
          "name": "_maxHp",
          "type": "uint256"
        }
      ],
      "name": "recruitGladiator",
      "outputs": [],
      "payable": false,
      "stateMutability": "nonpayable",
      "type": "function"
    },
    {
      "constant": true,
      "inputs": [
        {
          "internalType": "address",
          "name": "_owner",
          "type": "address"
        }
      ],
      "name": "getGladiatorsByOwner",
      "outputs": [
        {
          "internalType": "uint256[]",
          "name": "",
          "type": "uint256[]"
        }
      ],
      "payable": false,
      "stateMutability": "view",
      "type": "function"
    },
    {
      "constant": false,
      "inputs": [
        {
          "internalType": "uint256",
          "name": "_gladiatorId",
          "type": "uint256"
        }
      ],
      "name": "updateMaxHP",
      "outputs": [],
      "payable": false,
      "stateMutability": "nonpayable",
      "type": "function"
    },
    {
      "constant": false,
      "inputs": [
        {
          "internalType": "uint256",
          "name": "score",
          "type": "uint256"
        },
        {
          "internalType": "uint256",
          "name": "amount",
          "type": "uint256"
        },
        {
          "internalType": "uint256",
          "name": "max",
          "type": "uint256"
        },
        {
          "internalType": "bool",
          "name": "isAddition",
          "type": "bool"
        }
      ],
      "name": "checkLimits",
      "outputs": [
        {
          "internalType": "uint256",
          "name": "",
          "type": "uint256"
        }
      ],
      "payable": false,
      "stateMutability": "nonpayable",
      "type": "function"
    },
    {
      "constant": false,
      "inputs": [
        {
          "internalType": "uint256",
          "name": "_gladiatorId",
          "type": "uint256"
        }
      ],
      "name": "eat",
      "outputs": [
        {
          "internalType": "bool",
          "name": "",
          "type": "bool"
        }
      ],
      "payable": false,
      "stateMutability": "nonpayable",
      "type": "function"
    },
    {
      "constant": false,
      "inputs": [
        {
          "internalType": "uint256",
          "name": "_gladiatorId",
          "type": "uint256"
        }
      ],
      "name": "sleep",
      "outputs": [],
      "payable": false,
      "stateMutability": "nonpayable",
      "type": "function"
    },
    {
      "constant": false,
      "inputs": [
        {
          "internalType": "uint256",
          "name": "_gladiatorId",
          "type": "uint256"
        }
      ],
      "name": "muscleTraining",
      "outputs": [],
      "payable": false,
      "stateMutability": "nonpayable",
      "type": "function"
    },
    {
      "constant": false,
      "inputs": [
        {
          "internalType": "uint256",
          "name": "_gladiatorId",
          "type": "uint256"
        }
      ],
      "name": "enduranceTraining",
      "outputs": [],
      "payable": false,
      "stateMutability": "nonpayable",
      "type": "function"
    },
    {
      "constant": false,
      "inputs": [
        {
          "internalType": "uint256",
          "name": "_gladiatorId",
          "type": "uint256"
        }
      ],
      "name": "flexibilityTraining",
      "outputs": [],
      "payable": false,
      "stateMutability": "nonpayable",
      "type": "function"
    },
    {
      "constant": false,
      "inputs": [
        {
          "internalType": "uint256",
          "name": "_gladiatorId",
          "type": "uint256"
        }
      ],
      "name": "hpStatusModifier",
      "outputs": [
        {
          "internalType": "uint256",
          "name": "",
          "type": "uint256"
        }
      ],
      "payable": false,
      "stateMutability": "nonpayable",
      "type": "function"
    },
    {
      "constant": false,
      "inputs": [
        {
          "internalType": "uint256",
          "name": "_gladiatorId",
          "type": "uint256"
        }
      ],
      "name": "vigorStatus",
      "outputs": [
        {
          "internalType": "uint256",
          "name": "",
          "type": "uint256"
        }
      ],
      "payable": false,
      "stateMutability": "nonpayable",
      "type": "function"
    },
    {
      "constant": false,
      "inputs": [
        {
          "internalType": "uint256",
          "name": "_gladiatorId",
          "type": "uint256"
        }
      ],
      "name": "satiationStatus",
      "outputs": [
        {
          "internalType": "uint256",
          "name": "",
          "type": "uint256"
        }
      ],
      "payable": false,
      "stateMutability": "nonpayable",
      "type": "function"
    },
    {
      "constant": false,
      "inputs": [
        {
          "internalType": "uint256",
          "name": "_gladiatorId",
          "type": "uint256"
        }
      ],
      "name": "calcDef",
      "outputs": [
        {
          "internalType": "uint256",
          "name": "",
          "type": "uint256"
        }
      ],
      "payable": false,
      "stateMutability": "nonpayable",
      "type": "function"
    },
    {
      "constant": false,
      "inputs": [
        {
          "internalType": "uint256",
          "name": "_gladiatorId",
          "type": "uint256"
        }
      ],
      "name": "calcAtt",
      "outputs": [
        {
          "internalType": "uint256",
          "name": "",
          "type": "uint256"
        }
      ],
      "payable": false,
      "stateMutability": "nonpayable",
      "type": "function"
    },
    {
      "constant": false,
      "inputs": [
        {
          "internalType": "uint256",
          "name": "_gladiatorId",
          "type": "uint256"
        }
      ],
      "name": "calcPower",
      "outputs": [
        {
          "internalType": "uint256",
          "name": "",
          "type": "uint256"
        }
      ],
      "payable": false,
      "stateMutability": "nonpayable",
      "type": "function"
    },
    {
      "constant": false,
      "inputs": [
        {
          "internalType": "uint256",
          "name": "_gladiatorId1",
          "type": "uint256"
        },
        {
          "internalType": "uint256",
          "name": "_gladiatorId2",
          "type": "uint256"
        }
      ],
      "name": "fight",
      "outputs": [],
      "payable": false,
      "stateMutability": "nonpayable",
      "type": "function"
    },
    {
      "constant": false,
      "inputs": [
        {
          "internalType": "uint256",
          "name": "_gladiatorId",
          "type": "uint256"
        }
      ],
      "name": "signInForArena",
      "outputs": [],
      "payable": false,
      "stateMutability": "nonpayable",
      "type": "function"
    },
    {
      "constant": false,
      "inputs": [],
      "name": "prepArenaParticipants",
      "outputs": [],
      "payable": false,
      "stateMutability": "nonpayable",
      "type": "function"
    },
    {
      "constant": false,
      "inputs": [
        {
          "internalType": "uint256",
          "name": "_round",
          "type": "uint256"
        }
      ],
      "name": "arenaRound",
      "outputs": [],
      "payable": false,
      "stateMutability": "nonpayable",
      "type": "function"
    },
    {
      "constant": true,
      "inputs": [
        {
          "internalType": "uint256",
          "name": "v",
          "type": "uint256"
        },
        {
          "internalType": "bool",
          "name": "scientific",
          "type": "bool"
        }
      ],
      "name": "uintToString",
      "outputs": [
        {
          "internalType": "string",
          "name": "str",
          "type": "string"
        }
      ],
      "payable": false,
      "stateMutability": "pure",
      "type": "function"
    },
    {
      "constant": false,
      "inputs": [
        {
          "internalType": "uint256",
          "name": "a",
          "type": "uint256"
        },
        {
          "internalType": "uint256",
          "name": "b",
          "type": "uint256"
        }
      ],
      "name": "test_safeAdd",
      "outputs": [],
      "payable": false,
      "stateMutability": "nonpayable",
      "type": "function"
    },
    {
      "constant": false,
      "inputs": [
        {
          "internalType": "uint256",
          "name": "a",
          "type": "uint256"
        },
        {
          "internalType": "uint256",
          "name": "b",
          "type": "uint256"
        }
      ],
      "name": "test_safeSub",
      "outputs": [],
      "payable": false,
      "stateMutability": "nonpayable",
      "type": "function"
    },
    {
      "constant": false,
      "inputs": [
        {
          "internalType": "uint256",
          "name": "a",
          "type": "uint256"
        },
        {
          "internalType": "uint256",
          "name": "b",
          "type": "uint256"
        }
      ],
      "name": "test_safeMul",
      "outputs": [],
      "payable": false,
      "stateMutability": "nonpayable",
      "type": "function"
    },
    {
      "constant": false,
      "inputs": [
        {
          "internalType": "uint256",
          "name": "a",
          "type": "uint256"
        },
        {
          "internalType": "uint256",
          "name": "b",
          "type": "uint256"
        }
      ],
      "name": "test_safeDiv",
      "outputs": [],
      "payable": false,
      "stateMutability": "nonpayable",
      "type": "function"
    },
    {
      "constant": false,
      "inputs": [
        {
          "internalType": "uint256",
          "name": "_gladiatorId",
          "type": "uint256"
        }
      ],
      "name": "test_calc_power",
      "outputs": [],
      "payable": false,
      "stateMutability": "nonpayable",
      "type": "function"
    },
    {
      "constant": false,
      "inputs": [],
      "name": "test_delete",
      "outputs": [],
      "payable": false,
      "stateMutability": "nonpayable",
      "type": "function"
    }
  ],
  "bytecode": "0x6080604052600060055560006006553480156200001b57600080fd5b50604051620054b8380380620054b8833981810160405260208110156200004157600080fd5b81019080805190602001909291905050506200006a6301ffc9a760e01b6200011560201b60201c565b620000826380ac58cd60e01b6200011560201b60201c565b33600760006101000a81548173ffffffffffffffffffffffffffffffffffffffff021916908373ffffffffffffffffffffffffffffffffffffffff16021790555080600b60006101000a81548173ffffffffffffffffffffffffffffffffffffffff021916908373ffffffffffffffffffffffffffffffffffffffff16021790555060784201600881905550506200021e565b63ffffffff60e01b817bffffffffffffffffffffffffffffffffffffffffffffffffffffffff19161415620001b2576040517f08c379a000000000000000000000000000000000000000000000000000000000815260040180806020018281038252601c8152602001807f4552433136353a20696e76616c696420696e746572666163652069640000000081525060200191505060405180910390fd5b6001600080837bffffffffffffffffffffffffffffffffffffffffffffffffffffffff19167bffffffffffffffffffffffffffffffffffffffffffffffffffffffff1916815260200190815260200160002060006101000a81548160ff02191690831515021790555050565b61528a806200022e6000396000f3fe608060405234801561001057600080fd5b50600436106102bb5760003560e01c80638da5cb5b11610182578063c0e45e28116100e9578063e6cb9013116100a2578063ee57da861161007c578063ee57da86146111ec578063f211789914611224578063f70dc69d14611292578063fa9d871314611395576102bb565b8063e6cb90131461100b578063e985e9c514611057578063edf764a3146110d3576102bb565b8063c0e45e2814610db2578063ca39e5ef14610dea578063d05c78da14610e22578063d1fa1c3414610e6e578063d4e9e80014610eb0578063de114fa414610ef2576102bb565b8063b18bceb41161013b578063b18bceb414610b9b578063b25dab8714610bc9578063b5931f7c14610c0b578063b88d4fde14610c57578063bb2880d014610d5c578063bcae1b8014610d7a576102bb565b80638da5cb5b14610a21578063a22cb46514610a6b578063a293d1e814610abb578063a404568c14610b07578063ab35ad3f14610b35578063ae8a3d6b14610b63576102bb565b806342842e0e11610226578063672f0c4b116101df578063672f0c4b1461079557806370a082311461082e5780637632e0c71461088657806376cdb03b146108de57806385e0ebaf14610928578063863ac85c1461096e576102bb565b806342842e0e146105af57806347a1b3871461061d57806350d5a0d11461067557806356681652146106b757806358d7ea29146106e55780636352211e14610727576102bb565b806321327b8d1161027857806321327b8d1461046b57806323b872dd146104895780632405c3a4146104f75780633c808e02146105015780633d57b68b146105435780634254270c146105a5576102bb565b806301ffc9a7146102c0578063081812fc14610325578063095ea7b3146103935780631302c505146103e157806313487ab31461040f5780631e41611f1461043d575b600080fd5b61030b600480360360208110156102d657600080fd5b8101908080357bffffffffffffffffffffffffffffffffffffffffffffffffffffffff191690602001909291905050506113c3565b604051808215151515815260200191505060405180910390f35b6103516004803603602081101561033b57600080fd5b810190808035906020019092919050505061142a565b604051808273ffffffffffffffffffffffffffffffffffffffff1673ffffffffffffffffffffffffffffffffffffffff16815260200191505060405180910390f35b6103df600480360360408110156103a957600080fd5b81019080803573ffffffffffffffffffffffffffffffffffffffff16906020019092919080359060200190929190505050611479565b005b61040d600480360360208110156103f757600080fd5b81019080803590602001909291905050506115ba565b005b61043b6004803603602081101561042557600080fd5b81019080803590602001909291905050506115f3565b005b6104696004803603602081101561045357600080fd5b8101908080359060200190929190505050611699565b005b610473611a8a565b6040518082815260200191505060405180910390f35b6104f56004803603606081101561049f57600080fd5b81019080803573ffffffffffffffffffffffffffffffffffffffff169060200190929190803573ffffffffffffffffffffffffffffffffffffffff16906020019092919080359060200190929190505050611a90565b005b6104ff611b5b565b005b61052d6004803603602081101561051757600080fd5b8101908080359060200190929190505050611bfb565b6040518082815260200191505060405180910390f35b61058f6004803603608081101561055957600080fd5b81019080803590602001909291908035906020019092919080359060200190929190803515159060200190929190505050611c63565b6040518082815260200191505060405180910390f35b6105ad611cb9565b005b61061b600480360360608110156105c557600080fd5b81019080803573ffffffffffffffffffffffffffffffffffffffff169060200190929190803573ffffffffffffffffffffffffffffffffffffffff16906020019092919080359060200190929190505050611eeb565b005b61065f6004803603602081101561063357600080fd5b81019080803573ffffffffffffffffffffffffffffffffffffffff169060200190929190505050611f0b565b6040518082815260200191505060405180910390f35b6106a16004803603602081101561068b57600080fd5b8101908080359060200190929190505050611f54565b6040518082815260200191505060405180910390f35b6106e3600480360360208110156106cd57600080fd5b810190808035906020019092919050505061203f565b005b610711600480360360208110156106fb57600080fd5b810190808035906020019092919050505061247e565b6040518082815260200191505060405180910390f35b6107536004803603602081101561073d57600080fd5b81019080803590602001909291905050506124de565b604051808273ffffffffffffffffffffffffffffffffffffffff1673ffffffffffffffffffffffffffffffffffffffff16815260200191505060405180910390f35b6107d7600480360360208110156107ab57600080fd5b81019080803573ffffffffffffffffffffffffffffffffffffffff16906020019092919050505061255a565b6040518080602001828103825283818151815260200191508051906020019060200280838360005b8381101561081a5780820151818401526020810190506107ff565b505050509050019250505060405180910390f35b6108706004803603602081101561084457600080fd5b81019080803573ffffffffffffffffffffffffffffffffffffffff169060200190929190505050612657565b6040518082815260200191505060405180910390f35b6108c86004803603602081101561089c57600080fd5b81019080803573ffffffffffffffffffffffffffffffffffffffff1690602001909291905050506126d9565b6040518082815260200191505060405180910390f35b6108e66126f1565b604051808273ffffffffffffffffffffffffffffffffffffffff1673ffffffffffffffffffffffffffffffffffffffff16815260200191505060405180910390f35b6109546004803603602081101561093e57600080fd5b8101908080359060200190929190505050612717565b604051808215151515815260200191505060405180910390f35b6109a66004803603604081101561098457600080fd5b8101908080359060200190929190803515159060200190929190505050612b0c565b6040518080602001828103825283818151815260200191508051906020019080838360005b838110156109e65780820151818401526020810190506109cb565b50505050905090810190601f168015610a135780820380516001836020036101000a031916815260200191505b509250505060405180910390f35b610a29612e7b565b604051808273ffffffffffffffffffffffffffffffffffffffff1673ffffffffffffffffffffffffffffffffffffffff16815260200191505060405180910390f35b610ab960048036036040811015610a8157600080fd5b81019080803573ffffffffffffffffffffffffffffffffffffffff169060200190929190803515159060200190929190505050612ea1565b005b610af160048036036040811015610ad157600080fd5b810190808035906020019092919080359060200190929190505050612fdb565b6040518082815260200191505060405180910390f35b610b3360048036036020811015610b1d57600080fd5b810190808035906020019092919050505061305e565b005b610b6160048036036020811015610b4b57600080fd5b810190808035906020019092919050505061349b565b005b610b9960048036036040811015610b7957600080fd5b810190808035906020019092919080359060200190929190505050613560565b005b610bc760048036036020811015610bb157600080fd5b8101908080359060200190929190505050613627565b005b610bf560048036036020811015610bdf57600080fd5b8101908080359060200190929190505050613a63565b6040518082815260200191505060405180910390f35b610c4160048036036040811015610c2157600080fd5b810190808035906020019092919080359060200190929190505050613b4e565b6040518082815260200191505060405180910390f35b610d5a60048036036080811015610c6d57600080fd5b81019080803573ffffffffffffffffffffffffffffffffffffffff169060200190929190803573ffffffffffffffffffffffffffffffffffffffff1690602001909291908035906020019092919080359060200190640100000000811115610cd457600080fd5b820183602082011115610ce657600080fd5b80359060200191846001830284011164010000000083111715610d0857600080fd5b91908080601f016020809104026020016040519081016040528093929190818152602001838380828437600081840152601f19601f820116905080830192505050505050509192919290505050613bd7565b005b610d64613be8565b6040518082815260200191505060405180910390f35b610db060048036036040811015610d9057600080fd5b810190808035906020019092919080359060200190929190505050613bee565b005b610de860048036036040811015610dc857600080fd5b810190808035906020019092919080359060200190929190505050613cb5565b005b610e2060048036036040811015610e0057600080fd5b810190808035906020019092919080359060200190929190505050613d7c565b005b610e5860048036036040811015610e3857600080fd5b810190808035906020019092919080359060200190929190505050613e0c565b6040518082815260200191505060405180910390f35b610e9a60048036036020811015610e8457600080fd5b8101908080359060200190929190505050613ea2565b6040518082815260200191505060405180910390f35b610edc60048036036020811015610ec657600080fd5b8101908080359060200190929190505050613f0a565b6040518082815260200191505060405180910390f35b610f1e60048036036020811015610f0857600080fd5b8101908080359060200190929190505050613f93565b60405180806020018c81526020018b81526020018a81526020018981526020018881526020018781526020018681526020018581526020018473ffffffffffffffffffffffffffffffffffffffff1673ffffffffffffffffffffffffffffffffffffffff16815260200183815260200182810382528d818151815260200191508051906020019080838360005b83811015610fc6578082015181840152602081019050610fab565b50505050905090810190601f168015610ff35780820380516001836020036101000a031916815260200191505b509c5050505050505050505050505060405180910390f35b6110416004803603604081101561102157600080fd5b8101908080359060200190929190803590602001909291905050506140b2565b6040518082815260200191505060405180910390f35b6110b96004803603604081101561106d57600080fd5b81019080803573ffffffffffffffffffffffffffffffffffffffff169060200190929190803573ffffffffffffffffffffffffffffffffffffffff169060200190929190505050614135565b604051808215151515815260200191505060405180910390f35b6110ff600480360360208110156110e957600080fd5b81019080803590602001909291905050506141c9565b60405180806020018c81526020018b81526020018a81526020018981526020018881526020018781526020018681526020018581526020018473ffffffffffffffffffffffffffffffffffffffff1673ffffffffffffffffffffffffffffffffffffffff16815260200183815260200182810382528d818151815260200191508051906020019080838360005b838110156111a757808201518184015260208101905061118c565b50505050905090810190601f1680156111d45780820380516001836020036101000a031916815260200191505b509c5050505050505050505050505060405180910390f35b6112226004803603604081101561120257600080fd5b8101908080359060200190929190803590602001909291905050506142e8565b005b6112506004803603602081101561123a57600080fd5b81019080803590602001909291905050506143af565b604051808273ffffffffffffffffffffffffffffffffffffffff1673ffffffffffffffffffffffffffffffffffffffff16815260200191505060405180910390f35b611393600480360360c08110156112a857600080fd5b81019080803573ffffffffffffffffffffffffffffffffffffffff169060200190929190803590602001906401000000008111156112e557600080fd5b8201836020820111156112f757600080fd5b8035906020019184600183028401116401000000008311171561131957600080fd5b91908080601f016020809104026020016040519081016040528093929190818152602001838380828437600081840152601f19601f820116905080830192505050505050509192919290803590602001909291908035906020019092919080359060200190929190803590602001909291905050506143e2565b005b6113c1600480360360208110156113ab57600080fd5b8101908080359060200190929190505050614745565b005b6000806000837bffffffffffffffffffffffffffffffffffffffffffffffffffffffff19167bffffffffffffffffffffffffffffffffffffffffffffffffffffffff1916815260200190815260200160002060009054906101000a900460ff169050919050565b600061143582614b35565b61143e57600080fd5b6002600083815260200190815260200160002060009054906101000a900473ffffffffffffffffffffffffffffffffffffffff169050919050565b6000611484826124de565b90508073ffffffffffffffffffffffffffffffffffffffff168373ffffffffffffffffffffffffffffffffffffffff1614156114bf57600080fd5b8073ffffffffffffffffffffffffffffffffffffffff163373ffffffffffffffffffffffffffffffffffffffff1614806114ff57506114fe8133614135565b5b61150857600080fd5b826002600084815260200190815260200160002060006101000a81548173ffffffffffffffffffffffffffffffffffffffff021916908373ffffffffffffffffffffffffffffffffffffffff160217905550818373ffffffffffffffffffffffffffffffffffffffff168273ffffffffffffffffffffffffffffffffffffffff167f8c5be1e5ebec7d5bd14f71427d1e84f3dd0314c0f7b2291e5b200ac8c7c3b92560405160405180910390a4505050565b60018114156115f05760008090505b600a805490508110156115ee576115e38160018301613d7c565b6002810190506115c9565b505b50565b611674606461166f6009848154811061160857fe5b90600052602060002090600b02016006015461166a6009868154811061162a57fe5b90600052602060002090600b0201600501546116656009888154811061164c57fe5b90600052602060002090600b0201600401546003613e0c565b6140b2565b6140b2565b6140b2565b6009828154811061168157fe5b90600052602060002090600b02016003018190555050565b80600a80600b60009054906101000a900473ffffffffffffffffffffffffffffffffffffffff1673ffffffffffffffffffffffffffffffffffffffff16631a2b0eeb600c600086815260200190815260200160002060009054906101000a900473ffffffffffffffffffffffffffffffffffffffff166040518263ffffffff1660e01b8152600401808273ffffffffffffffffffffffffffffffffffffffff1673ffffffffffffffffffffffffffffffffffffffff16815260200191505060206040518083038186803b15801561176f57600080fd5b505afa158015611783573d6000803e3d6000fd5b505050506040513d602081101561179957600080fd5b810190808051906020019092919050505010156117b557600080fd5b8242600982815481106117c457fe5b90600052602060002090600b0201600a015411156117e157600080fd5b600a600985815481106117f057fe5b90600052602060002090600b02019080600181540180825580915050906001820390600052602060002090600b020160009091929091909150600082018160000190805460018160011615610100020316600290046118509291906150e1565b5060018201548160010155600282015481600201556003820154816003015560048201548160040155600582015481600501556006820154816006015560078201548160070155600882015481600801556009820160009054906101000a900473ffffffffffffffffffffffffffffffffffffffff168160090160006101000a81548173ffffffffffffffffffffffffffffffffffffffff021916908373ffffffffffffffffffffffffffffffffffffffff160217905550600a82015481600a0155505050600b60009054906101000a900473ffffffffffffffffffffffffffffffffffffffff1673ffffffffffffffffffffffffffffffffffffffff166323b872dd600c600087815260200190815260200160002060009054906101000a900473ffffffffffffffffffffffffffffffffffffffff16600760009054906101000a900473ffffffffffffffffffffffffffffffffffffffff16600a6040518463ffffffff1660e01b8152600401808473ffffffffffffffffffffffffffffffffffffffff1673ffffffffffffffffffffffffffffffffffffffff1681526020018373ffffffffffffffffffffffffffffffffffffffff1673ffffffffffffffffffffffffffffffffffffffff1681526020018281526020019350505050602060405180830381600087803b158015611a4857600080fd5b505af1158015611a5c573d6000803e3d6000fd5b505050506040513d6020811015611a7257600080fd5b81019080805190602001909291905050505050505050565b60085481565b611a9a3382614ba7565b611aa357600080fd5b600073ffffffffffffffffffffffffffffffffffffffff168273ffffffffffffffffffffffffffffffffffffffff161415611add57600080fd5b611ae78382614c3c565b611af18382614d3b565b611afb8282614e5f565b808273ffffffffffffffffffffffffffffffffffffffff168473ffffffffffffffffffffffffffffffffffffffff167fddf252ad1be2c89b69c2b068fc378daa952ba7f163c4a11628f55a4df523b3ef60405160405180910390a4505050565b600a600081548110611b6957fe5b90600052602060002090600b020160008082016000611b889190615168565b600182016000905560028201600090556003820160009055600482016000905560058201600090556006820160009055600782016000905560088201600090556009820160006101000a81549073ffffffffffffffffffffffffffffffffffffffff0219169055600a8201600090555050565b600080611c58611c2a60098581548110611c1157fe5b90600052602060002090600b0201600401546003613e0c565b611c5360098681548110611c3a57fe5b90600052602060002090600b0201600601546002613e0c565b6140b2565b905080915050919050565b60008115611c93576000611c7786866140b2565b905083811115611c8a5783915050611cb1565b80915050611cb1565b83851015611ca45760009050611cb1565b611cae8585612fdb565b90505b949350505050565b60006001600a805490500190505b6008811015611ee8576000611cdc6064614fae565b90506000611cea6064614fae565b90506000611cf8600a614fae565b90506000611d06600a614fae565b90506000611d14600a614fae565b90506000611d226064614fae565b90506000819050600a6040518061016001604052806040518060400160405280600381526020017f426f740000000000000000000000000000000000000000000000000000000000815250815260200160018152602001838152602001848152602001878152602001868152602001858152602001898152602001888152602001600760009054906101000a900473ffffffffffffffffffffffffffffffffffffffff1673ffffffffffffffffffffffffffffffffffffffff168152602001428152509080600181540180825580915050906001820390600052602060002090600b0201600090919290919091506000820151816000019080519060200190611e2c9291906151b0565b506020820151816001015560408201518160020155606082015181600301556080820151816004015560a0820151816005015560c0820151816006015560e0820151816007015561010082015181600801556101208201518160090160006101000a81548173ffffffffffffffffffffffffffffffffffffffff021916908373ffffffffffffffffffffffffffffffffffffffff16021790555061014082015181600a0155505050505050505050508080600101915050611cc7565b50565b611f0683838360405180602001604052806000815250613bd7565b505050565b6000600d60008373ffffffffffffffffffffffffffffffffffffffff1673ffffffffffffffffffffffffffffffffffffffff168152602001908152602001600020549050919050565b6000600a60098381548110611f6557fe5b90600052602060002090600b0201600201541015611f86576000905061203a565b600a60098381548110611f9557fe5b90600052602060002090600b02016007015410158015611fd35750603c60098381548110611fbf57fe5b90600052602060002090600b020160070154105b806120275750605060098381548110611fe857fe5b90600052602060002090600b020160070154118015612026575060646009838154811061201157fe5b90600052602060002090600b02016007015411155b5b15612035576001905061203a565b600290505b919050565b80600a80600b60009054906101000a900473ffffffffffffffffffffffffffffffffffffffff1673ffffffffffffffffffffffffffffffffffffffff16631a2b0eeb600c600086815260200190815260200160002060009054906101000a900473ffffffffffffffffffffffffffffffffffffffff166040518263ffffffff1660e01b8152600401808273ffffffffffffffffffffffffffffffffffffffff1673ffffffffffffffffffffffffffffffffffffffff16815260200191505060206040518083038186803b15801561211557600080fd5b505afa158015612129573d6000803e3d6000fd5b505050506040513d602081101561213f57600080fd5b8101908080519060200190929190505050101561215b57600080fd5b82426009828154811061216a57fe5b90600052602060002090600b0201600a0154111561218757600080fd5b6121b46009858154811061219757fe5b90600052602060002090600b020160050154600160326001611c63565b600985815481106121c157fe5b90600052602060002090600b020160050181905550612203600985815481106121e657fe5b90600052602060002090600b020160070154601460646000611c63565b6009858154811061221057fe5b90600052602060002090600b0201600701819055506122526009858154811061223557fe5b90600052602060002090600b020160080154601460646000611c63565b6009858154811061225f57fe5b90600052602060002090600b0201600801819055506122be6009858154811061228457fe5b90600052602060002090600b0201600201546005600987815481106122a557fe5b90600052602060002090600b0201600301546000611c63565b600985815481106122cb57fe5b90600052602060002090600b020160020181905550600f60b4420101600985815481106122f457fe5b90600052602060002090600b0201600a0181905550600b60009054906101000a900473ffffffffffffffffffffffffffffffffffffffff1673ffffffffffffffffffffffffffffffffffffffff166323b872dd600c600087815260200190815260200160002060009054906101000a900473ffffffffffffffffffffffffffffffffffffffff16600760009054906101000a900473ffffffffffffffffffffffffffffffffffffffff16600a6040518463ffffffff1660e01b8152600401808473ffffffffffffffffffffffffffffffffffffffff1673ffffffffffffffffffffffffffffffffffffffff1681526020018373ffffffffffffffffffffffffffffffffffffffff1673ffffffffffffffffffffffffffffffffffffffff1681526020018281526020019350505050602060405180830381600087803b15801561243c57600080fd5b505af1158015612450573d6000803e3d6000fd5b505050506040513d602081101561246657600080fd5b81019080805190602001909291905050505050505050565b6000806124d36124b46009858154811061249457fe5b90600052602060002090600b0201600201546124af86613f0a565b613e0c565b6124ce6124c086611bfb565b6124c987613ea2565b6140b2565b6140b2565b905080915050919050565b6000806001600084815260200190815260200160002060009054906101000a900473ffffffffffffffffffffffffffffffffffffffff169050600073ffffffffffffffffffffffffffffffffffffffff168173ffffffffffffffffffffffffffffffffffffffff16141561255157600080fd5b80915050919050565b6060806009805490506040519080825280602002602001820160405280156125915781602001602082028038833980820191505090505b509050600080905060008090505b60098054905081101561264c578473ffffffffffffffffffffffffffffffffffffffff16600c600083815260200190815260200160002060009054906101000a900473ffffffffffffffffffffffffffffffffffffffff1673ffffffffffffffffffffffffffffffffffffffff16141561263a578083838151811061262057fe5b6020026020010181815250506126378260016140b2565b91505b6126458160016140b2565b905061259f565b508192505050919050565b60008073ffffffffffffffffffffffffffffffffffffffff168273ffffffffffffffffffffffffffffffffffffffff16141561269257600080fd5b600360008373ffffffffffffffffffffffffffffffffffffffff1673ffffffffffffffffffffffffffffffffffffffff168152602001908152602001600020549050919050565b600d6020528060005260406000206000915090505481565b600b60009054906101000a900473ffffffffffffffffffffffffffffffffffffffff1681565b600081600a80600b60009054906101000a900473ffffffffffffffffffffffffffffffffffffffff1673ffffffffffffffffffffffffffffffffffffffff16631a2b0eeb600c600086815260200190815260200160002060009054906101000a900473ffffffffffffffffffffffffffffffffffffffff166040518263ffffffff1660e01b8152600401808273ffffffffffffffffffffffffffffffffffffffff1673ffffffffffffffffffffffffffffffffffffffff16815260200191505060206040518083038186803b1580156127ef57600080fd5b505afa158015612803573d6000803e3d6000fd5b505050506040513d602081101561281957600080fd5b8101908080519060200190929190505050101561283557600080fd5b83426009828154811061284457fe5b90600052602060002090600b0201600a0154111561286157600080fd5b61288e6009868154811061287157fe5b90600052602060002090600b020160080154601960646001611c63565b6009868154811061289b57fe5b90600052602060002090600b0201600801819055506128dd600986815481106128c057fe5b90600052602060002090600b020160070154600a60646000611c63565b600986815481106128ea57fe5b90600052602060002090600b0201600701819055506129496009868154811061290f57fe5b90600052602060002090600b02016002015460056009888154811061293057fe5b90600052602060002090600b0201600301546001611c63565b6009868154811061295657fe5b90600052602060002090600b020160020181905550603c42016009868154811061297c57fe5b90600052602060002090600b0201600a0181905550600b60009054906101000a900473ffffffffffffffffffffffffffffffffffffffff1673ffffffffffffffffffffffffffffffffffffffff166323b872dd600c600088815260200190815260200160002060009054906101000a900473ffffffffffffffffffffffffffffffffffffffff16600760009054906101000a900473ffffffffffffffffffffffffffffffffffffffff16600a6040518463ffffffff1660e01b8152600401808473ffffffffffffffffffffffffffffffffffffffff1673ffffffffffffffffffffffffffffffffffffffff1681526020018373ffffffffffffffffffffffffffffffffffffffff1673ffffffffffffffffffffffffffffffffffffffff1681526020018281526020019350505050602060405180830381600087803b158015612ac457600080fd5b505af1158015612ad8573d6000803e3d6000fd5b505050506040513d6020811015612aee57600080fd5b81019080805190602001909291905050505060019350505050919050565b60606000831415612b54576040518060400160405280600181526020017f30000000000000000000000000000000000000000000000000000000000000008152509050612e75565b6000606490506060816040519080825280601f01601f191660200182016040528015612b8f5781602001600182028038833980820191505090505b50905060008090505b60008614612c0a576000600a8781612bac57fe5b069050600a8781612bb957fe5b0496508060300160f81b838380600101945081518110612bd557fe5b60200101907effffffffffffffffffffffffffffffffffffffffffffffffffffffffffffff1916908160001a90535050612b98565b60008090508515612ca45760008090505b82811015612ca2577f3000000000000000000000000000000000000000000000000000000000000000848281518110612c5057fe5b602001015160f81c60f81b7effffffffffffffffffffffffffffffffffffffffffffffffffffffffffffff19161415612c90578180600101925050612c95565b612ca2565b8080600101915050612c1b565b505b600060028211612cb5576000612cb7565b815b830390506060816040519080825280601f01601f191660200182016040528015612cf05781602001600182028038833980820191505090505b50905060008090505b82811015612d65578560018287030381518110612d1257fe5b602001015160f81c60f81b828281518110612d2957fe5b60200101907effffffffffffffffffffffffffffffffffffffffffffffffffffffffffffff1916908160001a9053508080600101915050612cf9565b50809650878015612d765750600283115b15612e6e5780612d87846000612b0c565b6040516020018083805190602001908083835b60208310612dbd5780518252602082019150602081019050602083039250612d9a565b6001836020036101000a038019825116818451168082178552505050505050905001807f650000000000000000000000000000000000000000000000000000000000000081525060010182805190602001908083835b60208310612e365780518252602082019150602081019050602083039250612e13565b6001836020036101000a0380198251168184511680821785525050505050509050019250505060405160208183030381529060405296505b5050505050505b92915050565b600760009054906101000a900473ffffffffffffffffffffffffffffffffffffffff1681565b3373ffffffffffffffffffffffffffffffffffffffff168273ffffffffffffffffffffffffffffffffffffffff161415612eda57600080fd5b80600460003373ffffffffffffffffffffffffffffffffffffffff1673ffffffffffffffffffffffffffffffffffffffff16815260200190815260200160002060008473ffffffffffffffffffffffffffffffffffffffff1673ffffffffffffffffffffffffffffffffffffffff16815260200190815260200160002060006101000a81548160ff0219169083151502179055508173ffffffffffffffffffffffffffffffffffffffff163373ffffffffffffffffffffffffffffffffffffffff167f17307eab39ab6107e8899845ad3d59bd9653f200f220920489ca2b5937696c3183604051808215151515815260200191505060405180910390a35050565b600082821115613053576040517f08c379a00000000000000000000000000000000000000000000000000000000081526004018080602001828103825260088152602001807f736166652073756200000000000000000000000000000000000000000000000081525060200191505060405180910390fd5b818303905092915050565b80600a80600b60009054906101000a900473ffffffffffffffffffffffffffffffffffffffff1673ffffffffffffffffffffffffffffffffffffffff16631a2b0eeb600c600086815260200190815260200160002060009054906101000a900473ffffffffffffffffffffffffffffffffffffffff166040518263ffffffff1660e01b8152600401808273ffffffffffffffffffffffffffffffffffffffff1673ffffffffffffffffffffffffffffffffffffffff16815260200191505060206040518083038186803b15801561313457600080fd5b505afa158015613148573d6000803e3d6000fd5b505050506040513d602081101561315e57600080fd5b8101908080519060200190929190505050101561317a57600080fd5b82426009828154811061318957fe5b90600052602060002090600b0201600a015411156131a657600080fd5b6131d3600985815481106131b657fe5b90600052602060002090600b020160040154600160326001611c63565b600985815481106131e057fe5b90600052602060002090600b0201600401819055506132226009858154811061320557fe5b90600052602060002090600b020160070154601460646000611c63565b6009858154811061322f57fe5b90600052602060002090600b0201600701819055506132716009858154811061325457fe5b90600052602060002090600b020160080154601460646000611c63565b6009858154811061327e57fe5b90600052602060002090600b0201600801819055506132dd600985815481106132a357fe5b90600052602060002090600b0201600201546005600987815481106132c457fe5b90600052602060002090600b0201600301546000611c63565b600985815481106132ea57fe5b90600052602060002090600b02016002018190555061012c42016009858154811061331157fe5b90600052602060002090600b0201600a0181905550600b60009054906101000a900473ffffffffffffffffffffffffffffffffffffffff1673ffffffffffffffffffffffffffffffffffffffff166323b872dd600c600087815260200190815260200160002060009054906101000a900473ffffffffffffffffffffffffffffffffffffffff16600760009054906101000a900473ffffffffffffffffffffffffffffffffffffffff16600a6040518463ffffffff1660e01b8152600401808473ffffffffffffffffffffffffffffffffffffffff1673ffffffffffffffffffffffffffffffffffffffff1681526020018373ffffffffffffffffffffffffffffffffffffffff1673ffffffffffffffffffffffffffffffffffffffff1681526020018281526020019350505050602060405180830381600087803b15801561345957600080fd5b505af115801561346d573d6000803e3d6000fd5b505050506040513d602081101561348357600080fd5b81019080805190602001909291905050505050505050565b60606134b06134a98361247e565b6001612b0c565b90506000819061355b576040517f08c379a00000000000000000000000000000000000000000000000000000000081526004018080602001828103825283818151815260200191508051906020019080838360005b83811015613520578082015181840152602081019050613505565b50505050905090810190601f16801561354d5780820380516001836020036101000a031916815260200191505b509250505060405180910390fd5b505050565b606061357661356f84846140b2565b6001612b0c565b905060008190613621576040517f08c379a00000000000000000000000000000000000000000000000000000000081526004018080602001828103825283818151815260200191508051906020019080838360005b838110156135e65780820151818401526020810190506135cb565b50505050905090810190601f1680156136135780820380516001836020036101000a031916815260200191505b509250505060405180910390fd5b50505050565b80600a80600b60009054906101000a900473ffffffffffffffffffffffffffffffffffffffff1673ffffffffffffffffffffffffffffffffffffffff16631a2b0eeb600c600086815260200190815260200160002060009054906101000a900473ffffffffffffffffffffffffffffffffffffffff166040518263ffffffff1660e01b8152600401808273ffffffffffffffffffffffffffffffffffffffff1673ffffffffffffffffffffffffffffffffffffffff16815260200191505060206040518083038186803b1580156136fd57600080fd5b505afa158015613711573d6000803e3d6000fd5b505050506040513d602081101561372757600080fd5b8101908080519060200190929190505050101561374357600080fd5b82426009828154811061375257fe5b90600052602060002090600b0201600a0154111561376f57600080fd5b61379c6009858154811061377f57fe5b90600052602060002090600b020160060154600160326001611c63565b600985815481106137a957fe5b90600052602060002090600b0201600601819055506137eb600985815481106137ce57fe5b90600052602060002090600b020160070154601460646000611c63565b600985815481106137f857fe5b90600052602060002090600b02016007018190555061383a6009858154811061381d57fe5b90600052602060002090600b020160080154601460646000611c63565b6009858154811061384757fe5b90600052602060002090600b0201600801819055506138a66009858154811061386c57fe5b90600052602060002090600b02016002015460056009878154811061388d57fe5b90600052602060002090600b0201600301546000611c63565b600985815481106138b357fe5b90600052602060002090600b02016002018190555060784201600985815481106138d957fe5b90600052602060002090600b0201600a0181905550600b60009054906101000a900473ffffffffffffffffffffffffffffffffffffffff1673ffffffffffffffffffffffffffffffffffffffff166323b872dd600c600087815260200190815260200160002060009054906101000a900473ffffffffffffffffffffffffffffffffffffffff16600760009054906101000a900473ffffffffffffffffffffffffffffffffffffffff16600a6040518463ffffffff1660e01b8152600401808473ffffffffffffffffffffffffffffffffffffffff1673ffffffffffffffffffffffffffffffffffffffff1681526020018373ffffffffffffffffffffffffffffffffffffffff1673ffffffffffffffffffffffffffffffffffffffff1681526020018281526020019350505050602060405180830381600087803b158015613a2157600080fd5b505af1158015613a35573d6000803e3d6000fd5b505050506040513d6020811015613a4b57600080fd5b81019080805190602001909291905050505050505050565b6000600560098381548110613a7457fe5b90600052602060002090600b0201600701541015613a955760009050613b49565b600560098381548110613aa457fe5b90600052602060002090600b02016007015410158015613ae25750603260098381548110613ace57fe5b90600052602060002090600b020160070154105b80613b365750604b60098381548110613af757fe5b90600052602060002090600b020160070154118015613b355750606460098381548110613b2057fe5b90600052602060002090600b02016007015411155b5b15613b445760019050613b49565b600290505b919050565b6000808211613bc5576040517f08c379a00000000000000000000000000000000000000000000000000000000081526004018080602001828103825260088152602001807f736166652064697600000000000000000000000000000000000000000000000081525060200191505060405180910390fd5b818381613bce57fe5b04905092915050565b613be2848484611a90565b50505050565b60065481565b6060613c04613bfd8484612fdb565b6001612b0c565b905060008190613caf576040517f08c379a00000000000000000000000000000000000000000000000000000000081526004018080602001828103825283818151815260200191508051906020019080838360005b83811015613c74578082015181840152602081019050613c59565b50505050905090810190601f168015613ca15780820380516001836020036101000a031916815260200191505b509250505060405180910390fd5b50505050565b6060613ccb613cc48484613e0c565b6001612b0c565b905060008190613d76576040517f08c379a00000000000000000000000000000000000000000000000000000000081526004018080602001828103825283818151815260200191508051906020019080838360005b83811015613d3b578082015181840152602081019050613d20565b50505050905090810190601f168015613d685780820380516001836020036101000a031916815260200191505b509250505060405180910390fd5b50505050565b613d858161247e565b613d8e8361247e565b1015613dd0577fbb3d2435d73ea44ac623b225c6c58edec133edbcc0326a6f1e9d1d5b438252ff816040518082815260200191505060405180910390a1613e08565b7fbb3d2435d73ea44ac623b225c6c58edec133edbcc0326a6f1e9d1d5b438252ff826040518082815260200191505060405180910390a15b5050565b600081830290506000831480613e2a575081838281613e2757fe5b04145b613e9c576040517f08c379a00000000000000000000000000000000000000000000000000000000081526004018080602001828103825260088152602001807f73616665204d756c00000000000000000000000000000000000000000000000081525060200191505060405180910390fd5b92915050565b600080613eff613ed160098581548110613eb857fe5b90600052602060002090600b0201600501546003613e0c565b613efa60098681548110613ee157fe5b90600052602060002090600b0201600601546002613e0c565b6140b2565b905080915050919050565b6000600a60098381548110613f1b57fe5b90600052602060002090600b0201600201541015613f3c5760009050613f8e565b60098281548110613f4957fe5b90600052602060002090600b02016003015460098381548110613f6857fe5b90600052602060002090600b0201600201541415613f895760029050613f8e565b600190505b919050565b600a8181548110613fa057fe5b90600052602060002090600b0201600091509050806000018054600181600116156101000203166002900480601f01602080910402602001604051908101604052809291908181526020018280546001816001161561010002031660029004801561404c5780601f106140215761010080835404028352916020019161404c565b820191906000526020600020905b81548152906001019060200180831161402f57829003601f168201915b5050505050908060010154908060020154908060030154908060040154908060050154908060060154908060070154908060080154908060090160009054906101000a900473ffffffffffffffffffffffffffffffffffffffff169080600a015490508b565b600081830190508281101561412f576040517f08c379a00000000000000000000000000000000000000000000000000000000081526004018080602001828103825260088152602001807f736166652061646400000000000000000000000000000000000000000000000081525060200191505060405180910390fd5b92915050565b6000600460008473ffffffffffffffffffffffffffffffffffffffff1673ffffffffffffffffffffffffffffffffffffffff16815260200190815260200160002060008373ffffffffffffffffffffffffffffffffffffffff1673ffffffffffffffffffffffffffffffffffffffff16815260200190815260200160002060009054906101000a900460ff16905092915050565b600981815481106141d657fe5b90600052602060002090600b0201600091509050806000018054600181600116156101000203166002900480601f0160208091040260200160405190810160405280929190818152602001828054600181600116156101000203166002900480156142825780601f1061425757610100808354040283529160200191614282565b820191906000526020600020905b81548152906001019060200180831161426557829003601f168201915b5050505050908060010154908060020154908060030154908060040154908060050154908060060154908060070154908060080154908060090160009054906101000a900473ffffffffffffffffffffffffffffffffffffffff169080600a015490508b565b60606142fe6142f78484613b4e565b6001612b0c565b9050600081906143a9576040517f08c379a00000000000000000000000000000000000000000000000000000000081526004018080602001828103825283818151815260200191508051906020019080838360005b8381101561436e578082015181840152602081019050614353565b50505050905090810190601f16801561439b5780820380516001836020036101000a031916815260200191505b509250505060405180910390fd5b50505050565b600c6020528060005260406000206000915054906101000a900473ffffffffffffffffffffffffffffffffffffffff1681565b60006001600960405180610160016040528089815260200160018152602001614414600161440f88614fae565b6140b2565b815260200185815260200188815260200187815260200186815260200161443b6064614fae565b815260200161444a6064614fae565b81526020018a73ffffffffffffffffffffffffffffffffffffffff168152602001428152509080600181540180825580915050906001820390600052602060002090600b02016000909192909190915060008201518160000190805190602001906144b69291906151b0565b506020820151816001015560408201518160020155606082015181600301556080820151816004015560a0820151816005015560c0820151816006015560e0820151816007015561010082015181600801556101208201518160090160006101000a81548173ffffffffffffffffffffffffffffffffffffffff021916908373ffffffffffffffffffffffffffffffffffffffff16021790555061014082015181600a0155505003905086600c600083815260200190815260200160002060006101000a81548173ffffffffffffffffffffffffffffffffffffffff021916908373ffffffffffffffffffffffffffffffffffffffff16021790555080600d60008973ffffffffffffffffffffffffffffffffffffffff1673ffffffffffffffffffffffffffffffffffffffff16815260200190815260200160002081905550600b60009054906101000a900473ffffffffffffffffffffffffffffffffffffffff1673ffffffffffffffffffffffffffffffffffffffff166323b872dd600760009054906101000a900473ffffffffffffffffffffffffffffffffffffffff168960326040518463ffffffff1660e01b8152600401808473ffffffffffffffffffffffffffffffffffffffff1673ffffffffffffffffffffffffffffffffffffffff1681526020018373ffffffffffffffffffffffffffffffffffffffff1673ffffffffffffffffffffffffffffffffffffffff1681526020018281526020019350505050602060405180830381600087803b1580156146f657600080fd5b505af115801561470a573d6000803e3d6000fd5b505050506040513d602081101561472057600080fd5b81019080805190602001909291905050505061473c878261503d565b50505050505050565b80600a80600b60009054906101000a900473ffffffffffffffffffffffffffffffffffffffff1673ffffffffffffffffffffffffffffffffffffffff16631a2b0eeb600c600086815260200190815260200160002060009054906101000a900473ffffffffffffffffffffffffffffffffffffffff166040518263ffffffff1660e01b8152600401808273ffffffffffffffffffffffffffffffffffffffff1673ffffffffffffffffffffffffffffffffffffffff16815260200191505060206040518083038186803b15801561481b57600080fd5b505afa15801561482f573d6000803e3d6000fd5b505050506040513d602081101561484557600080fd5b8101908080519060200190929190505050101561486157600080fd5b82426009828154811061487057fe5b90600052602060002090600b0201600a0154111561488d57600080fd5b6148ba6009858154811061489d57fe5b90600052602060002090600b020160070154601960646001611c63565b600985815481106148c757fe5b90600052602060002090600b020160070181905550614909600985815481106148ec57fe5b90600052602060002090600b020160080154600a60646000611c63565b6009858154811061491657fe5b90600052602060002090600b0201600801819055506149756009858154811061493b57fe5b90600052602060002090600b02016002015460146009878154811061495c57fe5b90600052602060002090600b0201600301546001611c63565b6009858154811061498257fe5b90600052602060002090600b020160020181905550601e603c420101600985815481106149ab57fe5b90600052602060002090600b0201600a0181905550600b60009054906101000a900473ffffffffffffffffffffffffffffffffffffffff1673ffffffffffffffffffffffffffffffffffffffff166323b872dd600c600087815260200190815260200160002060009054906101000a900473ffffffffffffffffffffffffffffffffffffffff16600760009054906101000a900473ffffffffffffffffffffffffffffffffffffffff16600a6040518463ffffffff1660e01b8152600401808473ffffffffffffffffffffffffffffffffffffffff1673ffffffffffffffffffffffffffffffffffffffff1681526020018373ffffffffffffffffffffffffffffffffffffffff1673ffffffffffffffffffffffffffffffffffffffff1681526020018281526020019350505050602060405180830381600087803b158015614af357600080fd5b505af1158015614b07573d6000803e3d6000fd5b505050506040513d6020811015614b1d57600080fd5b81019080805190602001909291905050505050505050565b6000806001600084815260200190815260200160002060009054906101000a900473ffffffffffffffffffffffffffffffffffffffff169050600073ffffffffffffffffffffffffffffffffffffffff168173ffffffffffffffffffffffffffffffffffffffff161415915050919050565b600080614bb3836124de565b90508073ffffffffffffffffffffffffffffffffffffffff168473ffffffffffffffffffffffffffffffffffffffff161480614c2257508373ffffffffffffffffffffffffffffffffffffffff16614c0a8461142a565b73ffffffffffffffffffffffffffffffffffffffff16145b80614c335750614c328185614135565b5b91505092915050565b8173ffffffffffffffffffffffffffffffffffffffff16614c5c826124de565b73ffffffffffffffffffffffffffffffffffffffff1614614c7c57600080fd5b600073ffffffffffffffffffffffffffffffffffffffff166002600083815260200190815260200160002060009054906101000a900473ffffffffffffffffffffffffffffffffffffffff1673ffffffffffffffffffffffffffffffffffffffff1614614d375760006002600083815260200190815260200160002060006101000a81548173ffffffffffffffffffffffffffffffffffffffff021916908373ffffffffffffffffffffffffffffffffffffffff1602179055505b5050565b8173ffffffffffffffffffffffffffffffffffffffff16614d5b826124de565b73ffffffffffffffffffffffffffffffffffffffff1614614d7b57600080fd5b614dc5600360008473ffffffffffffffffffffffffffffffffffffffff1673ffffffffffffffffffffffffffffffffffffffff168152602001908152602001600020546001612fdb565b600360008473ffffffffffffffffffffffffffffffffffffffff1673ffffffffffffffffffffffffffffffffffffffff1681526020019081526020016000208190555060006001600083815260200190815260200160002060006101000a81548173ffffffffffffffffffffffffffffffffffffffff021916908373ffffffffffffffffffffffffffffffffffffffff1602179055505050565b600073ffffffffffffffffffffffffffffffffffffffff166001600083815260200190815260200160002060009054906101000a900473ffffffffffffffffffffffffffffffffffffffff1673ffffffffffffffffffffffffffffffffffffffff1614614ecb57600080fd5b816001600083815260200190815260200160002060006101000a81548173ffffffffffffffffffffffffffffffffffffffff021916908373ffffffffffffffffffffffffffffffffffffffff160217905550614f67600360008473ffffffffffffffffffffffffffffffffffffffff1673ffffffffffffffffffffffffffffffffffffffff1681526020019081526020016000205460016140b2565b600360008473ffffffffffffffffffffffffffffffffffffffff1673ffffffffffffffffffffffffffffffffffffffff168152602001908152602001600020819055505050565b6000600560008154809291906001019190505550814233600554604051602001808481526020018373ffffffffffffffffffffffffffffffffffffffff1673ffffffffffffffffffffffffffffffffffffffff1660601b815260140182815260200193505050506040516020818303038152906040528051906020012060001c8161503557fe5b069050919050565b600073ffffffffffffffffffffffffffffffffffffffff168273ffffffffffffffffffffffffffffffffffffffff16141561507757600080fd5b6150818282614e5f565b808273ffffffffffffffffffffffffffffffffffffffff16600073ffffffffffffffffffffffffffffffffffffffff167fddf252ad1be2c89b69c2b068fc378daa952ba7f163c4a11628f55a4df523b3ef60405160405180910390a45050565b828054600181600116156101000203166002900490600052602060002090601f016020900481019282601f1061511a5780548555615157565b8280016001018555821561515757600052602060002091601f016020900482015b8281111561515657825482559160010191906001019061513b565b5b5090506151649190615230565b5090565b50805460018160011615610100020316600290046000825580601f1061518e57506151ad565b601f0160209004906000526020600020908101906151ac9190615230565b5b50565b828054600181600116156101000203166002900490600052602060002090601f016020900481019282601f106151f157805160ff191683800117855561521f565b8280016001018555821561521f579182015b8281111561521e578251825591602001919060010190615203565b5b50905061522c9190615230565b5090565b61525291905b8082111561524e576000816000905550600101615236565b5090565b9056fea265627a7a72315820c25d287bf7bb671b95262d82ab5d4aa30cafadc9dc38fc0abe100de0fa35bbfe64736f6c63430005100032",
  "source": "pragma solidity ^0.5.0;\r\n\r\nimport \"./ERC721.sol\";\r\nimport \"./ERC20.sol\";\r\n\r\ncontract CryptoGame is ERC721 {\r\n    uint256 constant LEVEL_UP = 1;\r\n    uint256 constant MIN_AMOUNT = 5;\r\n    uint256 constant LOW_AMOUNT = 10;\r\n    uint256 constant STANDARD_AMOUNT = 20;\r\n    uint256 constant HIGH_AMOUNT = 25;\r\n\r\n    uint256 constant MAX_LEVEL = 20;\r\n    uint256 constant MAX_STAMINA = 50;\r\n    uint256 constant MAX_STRENGTH = 50;\r\n    uint256 constant MAX_DEXTERITY = 50;\r\n    uint256 constant MAX_VIGOR = 100;\r\n    uint256 constant MAX_SATIATION = 100;\r\n\r\n    struct Gladiator {\r\n        string name;\r\n        uint256 level;\r\n        uint256 hp;\r\n        uint256 max_hp;\r\n        uint256 stamina;\r\n        uint256 strength;\r\n        uint256 dexterity;\r\n        uint256 vigor;\r\n        uint256 satiation;\r\n        address boss;\r\n        uint256 cooldownTime;\r\n    }\r\n\r\n    uint256 randNonce = 0;\r\n    uint256 public numGladiators = 0;\r\n    address public owner;\r\n    uint256 public arenaTime;\r\n\r\n    Gladiator[] public gladiators;\r\n    Gladiator[] public gladiatorsForArena;\r\n    ERC20 public bank;\r\n\r\n    mapping(uint256 => address) public gladiatorToOwner;\r\n    mapping(address => uint256) public ownerToGladiator;\r\n\r\n    event Winner(uint256 _winnerId);\r\n\r\n    modifier onlyOwnerOf(address _owner) {\r\n        require(msg.sender == _owner);\r\n        _;\r\n    }\r\n\r\n    modifier onlyOwner(address _owner) {\r\n        require(owner == _owner);\r\n        _;\r\n    }\r\n\r\n    modifier canAfford(uint256 _id, uint256 _cost) {\r\n        require(bank.thebalanceOf(gladiatorToOwner[_id]) >= _cost);\r\n        _;\r\n    }\r\n\r\n    modifier isBusy(uint256 _id) {\r\n        require(gladiators[_id].cooldownTime <= now);\r\n        _;\r\n    }\r\n\r\n    constructor(ERC20 tokens) public {\r\n        owner = msg.sender;\r\n        bank = tokens;\r\n        arenaTime = now + 2 minutes;\r\n    }\r\n\r\n    function randMod(uint256 _modulus) internal returns (uint256) {\r\n        randNonce++;\r\n        return\r\n            uint256(keccak256(abi.encodePacked(now, msg.sender, randNonce))) %\r\n            _modulus;\r\n    }\r\n\r\n    function getMyGladiator(address _owner) public returns (uint256) {\r\n        return ownerToGladiator[_owner];\r\n    }\r\n\r\n    function recruitGladiator(\r\n        address _owner,\r\n        string memory _name,\r\n        uint256 _stamina,\r\n        uint256 _strength,\r\n        uint256 _dexterity,\r\n        uint256 _maxHp\r\n    ) public {\r\n        uint256 id =\r\n            gladiators.push(\r\n                Gladiator(\r\n                    _name,\r\n                    1,\r\n                    safeAdd(1, randMod(_maxHp)),\r\n                    _maxHp,\r\n                    _stamina,\r\n                    _strength,\r\n                    _dexterity,\r\n                    randMod(100),\r\n                    randMod(100),\r\n                    _owner,\r\n                    now\r\n                )\r\n            ) - 1;\r\n        gladiatorToOwner[id] = _owner;\r\n        ownerToGladiator[_owner] = id;\r\n        bank.transferFrom(owner, _owner, 50);\r\n        _mint(_owner, id);\r\n    }\r\n\r\n    function getGladiatorsByOwner(address _owner)\r\n        public\r\n        view\r\n        returns (uint256[] memory)\r\n    {\r\n        uint256[] memory result = new uint256[](gladiators.length);\r\n        uint256 counter = 0;\r\n        for (uint256 i = 0; i < gladiators.length; i = safeAdd(i, 1)) {\r\n            if (gladiatorToOwner[i] == _owner) {\r\n                result[counter] = i;\r\n                counter = safeAdd(counter, 1);\r\n            }\r\n        }\r\n        return result;\r\n    }\r\n\r\n    // new functions:\r\n    function updateMaxHP(uint256 _gladiatorId) public {\r\n        gladiators[_gladiatorId].max_hp = safeAdd(\r\n            100,\r\n            safeAdd(\r\n                gladiators[_gladiatorId].dexterity,\r\n                safeAdd(\r\n                    gladiators[_gladiatorId].strength,\r\n                    safeMul(gladiators[_gladiatorId].stamina, 3)\r\n                )\r\n            )\r\n        );\r\n    }\r\n\r\n    function checkLimits(\r\n        uint256 score,\r\n        uint256 amount,\r\n        uint256 max,\r\n        bool isAddition\r\n    ) public returns (uint256) {\r\n        if (isAddition) {\r\n            uint256 res = safeAdd(score, amount);\r\n            if (res > max) {\r\n                return max;\r\n            } else {\r\n                return res;\r\n            }\r\n        } else {\r\n            if (score < amount) {\r\n                return 0;\r\n            } else {\r\n                return safeSub(score, amount);\r\n            }\r\n        }\r\n    }\r\n\r\n    function eat(uint256 _gladiatorId)\r\n        public\r\n        canAfford(_gladiatorId, 10)\r\n        isBusy(_gladiatorId)\r\n        returns (bool)\r\n    {\r\n        // cost - ingame currency\r\n        // time - add a hour for each use.\r\n        //require(gladiators[_gladiatorId].cooldownTime <= now);\r\n        gladiators[_gladiatorId].satiation = checkLimits(\r\n            gladiators[_gladiatorId].satiation,\r\n            HIGH_AMOUNT,\r\n            MAX_SATIATION,\r\n            true\r\n        );\r\n\r\n        gladiators[_gladiatorId].vigor = checkLimits(\r\n            gladiators[_gladiatorId].vigor,\r\n            LOW_AMOUNT,\r\n            MAX_VIGOR,\r\n            false\r\n        );\r\n\r\n        gladiators[_gladiatorId].hp = checkLimits(\r\n            gladiators[_gladiatorId].hp,\r\n            MIN_AMOUNT,\r\n            gladiators[_gladiatorId].max_hp,\r\n            true\r\n        );\r\n\r\n        gladiators[_gladiatorId].cooldownTime = now + 1 minutes;\r\n        bank.transferFrom(gladiatorToOwner[_gladiatorId], owner, 10);\r\n        return true;\r\n    }\r\n\r\n    function sleep(uint256 _gladiatorId)\r\n        public\r\n        canAfford(_gladiatorId, 10)\r\n        isBusy(_gladiatorId)\r\n    {\r\n        // cost - ingame currency\r\n        // time - add a hour for each use.\r\n\r\n        gladiators[_gladiatorId].vigor = checkLimits(\r\n            gladiators[_gladiatorId].vigor,\r\n            HIGH_AMOUNT,\r\n            MAX_VIGOR,\r\n            true\r\n        );\r\n\r\n        gladiators[_gladiatorId].satiation = checkLimits(\r\n            gladiators[_gladiatorId].satiation,\r\n            LOW_AMOUNT,\r\n            MAX_SATIATION,\r\n            false\r\n        );\r\n\r\n        gladiators[_gladiatorId].hp = checkLimits(\r\n            gladiators[_gladiatorId].hp,\r\n            STANDARD_AMOUNT,\r\n            gladiators[_gladiatorId].max_hp,\r\n            true\r\n        );\r\n\r\n        gladiators[_gladiatorId].cooldownTime = now + 1 minutes + 30 seconds;\r\n        bank.transferFrom(gladiatorToOwner[_gladiatorId], owner, 10);\r\n    }\r\n\r\n    // Strength\r\n    function muscleTraining(uint256 _gladiatorId)\r\n        public\r\n        canAfford(_gladiatorId, 10)\r\n        isBusy(_gladiatorId)\r\n    {\r\n        // cost - ingame currency\r\n        // time - add a hour for each use.\r\n\r\n        gladiators[_gladiatorId].strength = checkLimits(\r\n            gladiators[_gladiatorId].strength,\r\n            LEVEL_UP,\r\n            MAX_STRENGTH,\r\n            true\r\n        );\r\n\r\n        gladiators[_gladiatorId].vigor = checkLimits(\r\n            gladiators[_gladiatorId].vigor,\r\n            STANDARD_AMOUNT,\r\n            MAX_VIGOR,\r\n            false\r\n        );\r\n\r\n        gladiators[_gladiatorId].satiation = checkLimits(\r\n            gladiators[_gladiatorId].satiation,\r\n            STANDARD_AMOUNT,\r\n            MAX_SATIATION,\r\n            false\r\n        );\r\n\r\n        gladiators[_gladiatorId].hp = checkLimits(\r\n            gladiators[_gladiatorId].hp,\r\n            MIN_AMOUNT,\r\n            gladiators[_gladiatorId].max_hp,\r\n            false\r\n        );\r\n\r\n        gladiators[_gladiatorId].cooldownTime = now + 3 minutes + 15 seconds;\r\n        bank.transferFrom(gladiatorToOwner[_gladiatorId], owner, 10);\r\n    }\r\n\r\n    // Stamina\r\n    function enduranceTraining(uint256 _gladiatorId)\r\n        public\r\n        canAfford(_gladiatorId, 10)\r\n        isBusy(_gladiatorId)\r\n    {\r\n        // cost - ingame currency\r\n        // time - add a hour for each use.\r\n\r\n        gladiators[_gladiatorId].stamina = checkLimits(\r\n            gladiators[_gladiatorId].stamina,\r\n            LEVEL_UP,\r\n            MAX_STAMINA,\r\n            true\r\n        );\r\n\r\n        gladiators[_gladiatorId].vigor = checkLimits(\r\n            gladiators[_gladiatorId].vigor,\r\n            STANDARD_AMOUNT,\r\n            MAX_VIGOR,\r\n            false\r\n        );\r\n\r\n        gladiators[_gladiatorId].satiation = checkLimits(\r\n            gladiators[_gladiatorId].satiation,\r\n            STANDARD_AMOUNT,\r\n            MAX_SATIATION,\r\n            false\r\n        );\r\n\r\n        gladiators[_gladiatorId].hp = checkLimits(\r\n            gladiators[_gladiatorId].hp,\r\n            MIN_AMOUNT,\r\n            gladiators[_gladiatorId].max_hp,\r\n            false\r\n        );\r\n\r\n        gladiators[_gladiatorId].cooldownTime = now + 5 minutes;\r\n        bank.transferFrom(gladiatorToOwner[_gladiatorId], owner, 10);\r\n    }\r\n\r\n    // Dexterity\r\n    function flexibilityTraining(uint256 _gladiatorId)\r\n        public\r\n        canAfford(_gladiatorId, 10)\r\n        isBusy(_gladiatorId)\r\n    {\r\n        // cost - ingame currency\r\n        // time - add a hour for each use.\r\n        gladiators[_gladiatorId].dexterity = checkLimits(\r\n            gladiators[_gladiatorId].dexterity,\r\n            LEVEL_UP,\r\n            MAX_DEXTERITY,\r\n            true\r\n        );\r\n\r\n        gladiators[_gladiatorId].vigor = checkLimits(\r\n            gladiators[_gladiatorId].vigor,\r\n            STANDARD_AMOUNT,\r\n            MAX_VIGOR,\r\n            false\r\n        );\r\n\r\n        gladiators[_gladiatorId].satiation = checkLimits(\r\n            gladiators[_gladiatorId].satiation,\r\n            STANDARD_AMOUNT,\r\n            MAX_SATIATION,\r\n            false\r\n        );\r\n\r\n        gladiators[_gladiatorId].hp = checkLimits(\r\n            gladiators[_gladiatorId].hp,\r\n            MIN_AMOUNT,\r\n            gladiators[_gladiatorId].max_hp,\r\n            false\r\n        );\r\n\r\n        gladiators[_gladiatorId].cooldownTime = now + 2 minutes;\r\n        bank.transferFrom(gladiatorToOwner[_gladiatorId], owner, 10);\r\n    }\r\n\r\n    function hpStatusModifier(uint256 _gladiatorId) public returns (uint256) {\r\n        if (gladiators[_gladiatorId].hp < 10) {\r\n            // below 10 -> no benefit to power.\r\n            return 0;\r\n        } else if (\r\n            gladiators[_gladiatorId].hp == gladiators[_gladiatorId].max_hp\r\n        ) {\r\n            // double benefit\r\n            return 2;\r\n        } else {\r\n            // normal benefit\r\n            return 1;\r\n        }\r\n    }\r\n\r\n    function vigorStatus(uint256 _gladiatorId) public returns (uint256) {\r\n        if (gladiators[_gladiatorId].vigor < 5) {\r\n            // The Gladiator is exhausted -> no benefit to power.\r\n            return 0;\r\n        } else if (\r\n            (gladiators[_gladiatorId].vigor >= 5 &&\r\n                gladiators[_gladiatorId].vigor < 50) ||\r\n            (gladiators[_gladiatorId].vigor > 75 &&\r\n                gladiators[_gladiatorId].vigor <= 100)\r\n        ) {\r\n            // fatigue or hypersomnia/oversleeping\r\n            return 1;\r\n        } else {\r\n            // optimal wakefulness\r\n            return 2;\r\n        }\r\n    }\r\n\r\n    function satiationStatus(uint256 _gladiatorId) public returns (uint256) {\r\n        if (gladiators[_gladiatorId].hp < 10) {\r\n            // The Gladiator is famished -> no benefit to power.\r\n            return 0;\r\n        } else if (\r\n            (gladiators[_gladiatorId].vigor >= 10 &&\r\n                gladiators[_gladiatorId].vigor < 60) ||\r\n            (gladiators[_gladiatorId].vigor > 80 &&\r\n                gladiators[_gladiatorId].vigor <= 100)\r\n        ) {\r\n            // undereating or overeating\r\n            return 1;\r\n        } else {\r\n            // optimal food consumption\r\n            return 2;\r\n        }\r\n    }\r\n\r\n    function calcDef(uint256 _gladiatorId) public returns (uint256) {\r\n        uint256 def =\r\n            safeAdd(\r\n                safeMul(gladiators[_gladiatorId].stamina, 3),\r\n                safeMul(gladiators[_gladiatorId].dexterity, 2)\r\n            );\r\n        return def;\r\n    }\r\n\r\n    function calcAtt(uint256 _gladiatorId) public returns (uint256) {\r\n        uint256 att =\r\n            safeAdd(\r\n                safeMul(gladiators[_gladiatorId].strength, 3),\r\n                safeMul(gladiators[_gladiatorId].dexterity, 2)\r\n            );\r\n        return att;\r\n    }\r\n\r\n    function calcPower(uint256 _gladiatorId) public returns (uint256) {\r\n        uint256 power =\r\n            safeAdd(\r\n                safeMul(\r\n                    gladiators[_gladiatorId].hp,\r\n                    hpStatusModifier(_gladiatorId)\r\n                ),\r\n                safeAdd(calcDef(_gladiatorId), calcAtt(_gladiatorId))\r\n            );\r\n        return power;\r\n    }\r\n\r\n    function fight(uint256 _gladiatorId1, uint256 _gladiatorId2) public {\r\n        // Compare the power of both gladiators.\r\n        if (calcPower(_gladiatorId1) < calcPower(_gladiatorId2)) {\r\n            // player 2 wins!\r\n            //delete gladiatorsForArena[_gladiatorId1];\r\n            emit Winner(_gladiatorId2);\r\n        } else {\r\n            // // player 1 wins!\r\n\r\n            emit Winner(_gladiatorId1);\r\n        }\r\n    }\r\n\r\n    function signInForArena(uint256 _gladiatorId)\r\n        public\r\n        canAfford(_gladiatorId, 10)\r\n        isBusy(_gladiatorId)\r\n    {\r\n        gladiatorsForArena.push(gladiators[_gladiatorId]);\r\n        bank.transferFrom(gladiatorToOwner[_gladiatorId], owner, 10);\r\n    }\r\n\r\n    function prepArenaParticipants() public {\r\n        // assume 8 gladiators participate\r\n        // cost - ingame currency\r\n\r\n        for (uint256 i = gladiatorsForArena.length + 1; i < 8; i++) {\r\n            uint256 vigor = randMod(100);\r\n            uint256 satiation = randMod(100);\r\n            uint256 stamina = randMod(10);\r\n            uint256 strength = randMod(10);\r\n            uint256 dexterity = randMod(10);\r\n            uint256 max_hp = randMod(100);\r\n            uint256 hp = max_hp;\r\n            gladiatorsForArena.push(\r\n                Gladiator(\r\n                    \"Bot\",\r\n                    1,\r\n                    hp,\r\n                    max_hp,\r\n                    stamina,\r\n                    strength,\r\n                    dexterity,\r\n                    vigor,\r\n                    satiation,\r\n                    owner,\r\n                    now\r\n                )\r\n            );\r\n        }\r\n    }\r\n\r\n    function arenaRound(uint256 _round) public {\r\n        if (_round == 1) {\r\n            for (uint256 i = 0; i < gladiatorsForArena.length; i += 2) {\r\n                fight(i, i + 1);\r\n            }\r\n        }\r\n    }\r\n\r\n    // testing stuff: will be deleted\r\n    function uintToString(uint256 v, bool scientific)\r\n        public\r\n        pure\r\n        returns (string memory str)\r\n    {\r\n        if (v == 0) {\r\n            return \"0\";\r\n        }\r\n\r\n        uint256 maxlength = 100;\r\n        bytes memory reversed = new bytes(maxlength);\r\n        uint256 i = 0;\r\n\r\n        while (v != 0) {\r\n            uint256 remainder = v % 10;\r\n            v = v / 10;\r\n            reversed[i++] = bytes1(uint8(48 + remainder));\r\n        }\r\n\r\n        uint256 zeros = 0;\r\n        if (scientific) {\r\n            for (uint256 k = 0; k < i; k++) {\r\n                if (reversed[k] == \"0\") {\r\n                    zeros++;\r\n                } else {\r\n                    break;\r\n                }\r\n            }\r\n        }\r\n\r\n        uint256 len = i - (zeros > 2 ? zeros : 0);\r\n        bytes memory s = new bytes(len);\r\n        for (uint256 j = 0; j < len; j++) {\r\n            s[j] = reversed[i - j - 1];\r\n        }\r\n\r\n        str = string(s);\r\n\r\n        if (scientific && zeros > 2) {\r\n            str = string(abi.encodePacked(s, \"e\", uintToString(zeros, false)));\r\n        }\r\n    }\r\n\r\n    function test_safeAdd(uint256 a, uint256 b) public {\r\n        string memory result = uintToString(safeAdd(a, b), true);\r\n        require(false, result);\r\n    }\r\n\r\n    function test_safeSub(uint256 a, uint256 b) public {\r\n        string memory result = uintToString(safeSub(a, b), true);\r\n        require(false, result);\r\n    }\r\n\r\n    function test_safeMul(uint256 a, uint256 b) public {\r\n        string memory result = uintToString(safeMul(a, b), true);\r\n        require(false, result);\r\n    }\r\n\r\n    function test_safeDiv(uint256 a, uint256 b) public {\r\n        string memory result = uintToString(safeDiv(a, b), true);\r\n        require(false, result);\r\n    }\r\n\r\n    function test_calc_power(uint256 _gladiatorId) public {\r\n        string memory result = uintToString(calcPower(_gladiatorId), true);\r\n        require(false, result);\r\n    }\r\n\r\n    function test_delete() public {\r\n        delete gladiatorsForArena[0];\r\n    }\r\n}\r\n",
  "sourcePath": "D:/Homework/Y4S1/Blockchain/Projects/GladShop/contracts/CryptoGame.sol",
  "compiler": {
    "name": "solc",
    "version": "0.5.16+commit.9c3226ce.Emscripten.clang"
  },
  "schemaVersion": "3.3.3",
  "updatedAt": "2021-02-07T21:00:21.994Z",
  "networkType": "ethereum",
  "devdoc": {
    "methods": {}
  },
  "userdoc": {
    "methods": {}
  }
}