{
  "contractName": "CryptoGame",
  "abi": [
    {
      "inputs": [
        {
          "internalType": "contract ERC20",
          "name": "_tokens",
          "type": "address"
        }
      ],
      "payable": false,
      "stateMutability": "nonpayable",
      "type": "constructor"
    },
    {
      "anonymous": false,
      "inputs": [
        {
          "indexed": true,
          "internalType": "address",
          "name": "owner",
          "type": "address"
        },
        {
          "indexed": true,
          "internalType": "address",
          "name": "approved",
          "type": "address"
        },
        {
          "indexed": true,
          "internalType": "uint256",
          "name": "tokenId",
          "type": "uint256"
        }
      ],
      "name": "Approval",
      "type": "event"
    },
    {
      "anonymous": false,
      "inputs": [
        {
          "indexed": true,
          "internalType": "address",
          "name": "owner",
          "type": "address"
        },
        {
          "indexed": true,
          "internalType": "address",
          "name": "operator",
          "type": "address"
        },
        {
          "indexed": false,
          "internalType": "bool",
          "name": "approved",
          "type": "bool"
        }
      ],
      "name": "ApprovalForAll",
      "type": "event"
    },
    {
      "anonymous": false,
      "inputs": [
        {
          "indexed": true,
          "internalType": "address",
          "name": "from",
          "type": "address"
        },
        {
          "indexed": true,
          "internalType": "address",
          "name": "to",
          "type": "address"
        },
        {
          "indexed": true,
          "internalType": "uint256",
          "name": "tokenId",
          "type": "uint256"
        }
      ],
      "name": "Transfer",
      "type": "event"
    },
    {
      "anonymous": false,
      "inputs": [
        {
          "indexed": true,
          "internalType": "uint256",
          "name": "gladiatorId",
          "type": "uint256"
        }
      ],
      "name": "recruitedGladiatorEvent",
      "type": "event"
    },
    {
      "constant": false,
      "inputs": [
        {
          "internalType": "address",
          "name": "to",
          "type": "address"
        },
        {
          "internalType": "uint256",
          "name": "tokenId",
          "type": "uint256"
        }
      ],
      "name": "approve",
      "outputs": [],
      "payable": false,
      "stateMutability": "nonpayable",
      "type": "function"
    },
    {
      "constant": true,
      "inputs": [
        {
          "internalType": "address",
          "name": "owner",
          "type": "address"
        }
      ],
      "name": "balanceOf",
      "outputs": [
        {
          "internalType": "uint256",
          "name": "",
          "type": "uint256"
        }
      ],
      "payable": false,
      "stateMutability": "view",
      "type": "function"
    },
    {
      "constant": true,
      "inputs": [
        {
          "internalType": "uint256",
          "name": "tokenId",
          "type": "uint256"
        }
      ],
      "name": "getApproved",
      "outputs": [
        {
          "internalType": "address",
          "name": "",
          "type": "address"
        }
      ],
      "payable": false,
      "stateMutability": "view",
      "type": "function"
    },
    {
      "constant": true,
      "inputs": [
        {
          "internalType": "uint256",
          "name": "",
          "type": "uint256"
        }
      ],
      "name": "gladiatorToOwner",
      "outputs": [
        {
          "internalType": "address",
          "name": "",
          "type": "address"
        }
      ],
      "payable": false,
      "stateMutability": "view",
      "type": "function"
    },
    {
      "constant": true,
      "inputs": [
        {
          "internalType": "uint256",
          "name": "",
          "type": "uint256"
        }
      ],
      "name": "gladiators",
      "outputs": [
        {
          "internalType": "string",
          "name": "name",
          "type": "string"
        },
        {
          "internalType": "uint256",
          "name": "level",
          "type": "uint256"
        },
        {
          "internalType": "uint256",
          "name": "hp",
          "type": "uint256"
        },
        {
          "internalType": "uint256",
          "name": "max_hp",
          "type": "uint256"
        },
        {
          "internalType": "uint256",
          "name": "stamina",
          "type": "uint256"
        },
        {
          "internalType": "uint256",
          "name": "strength",
          "type": "uint256"
        },
        {
          "internalType": "uint256",
          "name": "dexterity",
          "type": "uint256"
        },
        {
          "internalType": "uint256",
          "name": "vigor",
          "type": "uint256"
        },
        {
          "internalType": "uint256",
          "name": "satiation",
          "type": "uint256"
        }
      ],
      "payable": false,
      "stateMutability": "view",
      "type": "function"
    },
    {
      "constant": true,
      "inputs": [
        {
          "internalType": "address",
          "name": "owner",
          "type": "address"
        },
        {
          "internalType": "address",
          "name": "operator",
          "type": "address"
        }
      ],
      "name": "isApprovedForAll",
      "outputs": [
        {
          "internalType": "bool",
          "name": "",
          "type": "bool"
        }
      ],
      "payable": false,
      "stateMutability": "view",
      "type": "function"
    },
    {
      "constant": true,
      "inputs": [],
      "name": "numGladiators",
      "outputs": [
        {
          "internalType": "uint256",
          "name": "",
          "type": "uint256"
        }
      ],
      "payable": false,
      "stateMutability": "view",
      "type": "function"
    },
    {
      "constant": true,
      "inputs": [],
      "name": "owner",
      "outputs": [
        {
          "internalType": "address",
          "name": "",
          "type": "address"
        }
      ],
      "payable": false,
      "stateMutability": "view",
      "type": "function"
    },
    {
      "constant": true,
      "inputs": [
        {
          "internalType": "uint256",
          "name": "tokenId",
          "type": "uint256"
        }
      ],
      "name": "ownerOf",
      "outputs": [
        {
          "internalType": "address",
          "name": "",
          "type": "address"
        }
      ],
      "payable": false,
      "stateMutability": "view",
      "type": "function"
    },
    {
      "constant": true,
      "inputs": [
        {
          "internalType": "address",
          "name": "",
          "type": "address"
        }
      ],
      "name": "ownerToGladiator",
      "outputs": [
        {
          "internalType": "uint256",
          "name": "",
          "type": "uint256"
        }
      ],
      "payable": false,
      "stateMutability": "view",
      "type": "function"
    },
    {
      "constant": true,
      "inputs": [
        {
          "internalType": "uint256",
          "name": "a",
          "type": "uint256"
        },
        {
          "internalType": "uint256",
          "name": "b",
          "type": "uint256"
        }
      ],
      "name": "safeAdd",
      "outputs": [
        {
          "internalType": "uint256",
          "name": "c",
          "type": "uint256"
        }
      ],
      "payable": false,
      "stateMutability": "pure",
      "type": "function"
    },
    {
      "constant": true,
      "inputs": [
        {
          "internalType": "uint256",
          "name": "a",
          "type": "uint256"
        },
        {
          "internalType": "uint256",
          "name": "b",
          "type": "uint256"
        }
      ],
      "name": "safeDiv",
      "outputs": [
        {
          "internalType": "uint256",
          "name": "c",
          "type": "uint256"
        }
      ],
      "payable": false,
      "stateMutability": "pure",
      "type": "function"
    },
    {
      "constant": true,
      "inputs": [
        {
          "internalType": "uint256",
          "name": "a",
          "type": "uint256"
        },
        {
          "internalType": "uint256",
          "name": "b",
          "type": "uint256"
        }
      ],
      "name": "safeMul",
      "outputs": [
        {
          "internalType": "uint256",
          "name": "c",
          "type": "uint256"
        }
      ],
      "payable": false,
      "stateMutability": "pure",
      "type": "function"
    },
    {
      "constant": true,
      "inputs": [
        {
          "internalType": "uint256",
          "name": "a",
          "type": "uint256"
        },
        {
          "internalType": "uint256",
          "name": "b",
          "type": "uint256"
        }
      ],
      "name": "safeSub",
      "outputs": [
        {
          "internalType": "uint256",
          "name": "c",
          "type": "uint256"
        }
      ],
      "payable": false,
      "stateMutability": "pure",
      "type": "function"
    },
    {
      "constant": false,
      "inputs": [
        {
          "internalType": "address",
          "name": "from",
          "type": "address"
        },
        {
          "internalType": "address",
          "name": "to",
          "type": "address"
        },
        {
          "internalType": "uint256",
          "name": "tokenId",
          "type": "uint256"
        }
      ],
      "name": "safeTransferFrom",
      "outputs": [],
      "payable": false,
      "stateMutability": "nonpayable",
      "type": "function"
    },
    {
      "constant": false,
      "inputs": [
        {
          "internalType": "address",
          "name": "from",
          "type": "address"
        },
        {
          "internalType": "address",
          "name": "to",
          "type": "address"
        },
        {
          "internalType": "uint256",
          "name": "tokenId",
          "type": "uint256"
        },
        {
          "internalType": "bytes",
          "name": "_data",
          "type": "bytes"
        }
      ],
      "name": "safeTransferFrom",
      "outputs": [],
      "payable": false,
      "stateMutability": "nonpayable",
      "type": "function"
    },
    {
      "constant": false,
      "inputs": [
        {
          "internalType": "address",
          "name": "to",
          "type": "address"
        },
        {
          "internalType": "bool",
          "name": "approved",
          "type": "bool"
        }
      ],
      "name": "setApprovalForAll",
      "outputs": [],
      "payable": false,
      "stateMutability": "nonpayable",
      "type": "function"
    },
    {
      "constant": true,
      "inputs": [
        {
          "internalType": "bytes4",
          "name": "interfaceId",
          "type": "bytes4"
        }
      ],
      "name": "supportsInterface",
      "outputs": [
        {
          "internalType": "bool",
          "name": "",
          "type": "bool"
        }
      ],
      "payable": false,
      "stateMutability": "view",
      "type": "function"
    },
    {
      "constant": true,
      "inputs": [],
      "name": "tokens",
      "outputs": [
        {
          "internalType": "contract ERC20",
          "name": "",
          "type": "address"
        }
      ],
      "payable": false,
      "stateMutability": "view",
      "type": "function"
    },
    {
      "constant": false,
      "inputs": [
        {
          "internalType": "address",
          "name": "from",
          "type": "address"
        },
        {
          "internalType": "address",
          "name": "to",
          "type": "address"
        },
        {
          "internalType": "uint256",
          "name": "tokenId",
          "type": "uint256"
        }
      ],
      "name": "transferFrom",
      "outputs": [],
      "payable": false,
      "stateMutability": "nonpayable",
      "type": "function"
    },
    {
      "constant": false,
      "inputs": [
        {
          "internalType": "address",
          "name": "_owner",
          "type": "address"
        },
        {
          "internalType": "string",
          "name": "_name",
          "type": "string"
        }
      ],
      "name": "recruiteGladiator",
      "outputs": [],
      "payable": false,
      "stateMutability": "nonpayable",
      "type": "function"
    },
    {
      "constant": false,
      "inputs": [
        {
          "internalType": "string",
          "name": "a",
          "type": "string"
        },
        {
          "internalType": "string",
          "name": "b",
          "type": "string"
        }
      ],
      "name": "compare_strings",
      "outputs": [
        {
          "internalType": "bool",
          "name": "",
          "type": "bool"
        }
      ],
      "payable": false,
      "stateMutability": "nonpayable",
      "type": "function"
    },
    {
      "constant": false,
      "inputs": [
        {
          "internalType": "uint256",
          "name": "res",
          "type": "uint256"
        },
        {
          "internalType": "uint256",
          "name": "max",
          "type": "uint256"
        }
      ],
      "name": "update_score",
      "outputs": [
        {
          "internalType": "uint256",
          "name": "",
          "type": "uint256"
        }
      ],
      "payable": false,
      "stateMutability": "nonpayable",
      "type": "function"
    },
    {
      "constant": false,
      "inputs": [
        {
          "internalType": "uint256",
          "name": "_gladiatorId",
          "type": "uint256"
        },
        {
          "internalType": "uint256",
          "name": "amount",
          "type": "uint256"
        },
        {
          "internalType": "string",
          "name": "_name",
          "type": "string"
        }
      ],
      "name": "type_to_update",
      "outputs": [
        {
          "internalType": "uint256",
          "name": "",
          "type": "uint256"
        }
      ],
      "payable": false,
      "stateMutability": "nonpayable",
      "type": "function"
    },
    {
      "constant": false,
      "inputs": [
        {
          "internalType": "uint256",
          "name": "_gladiatorId",
          "type": "uint256"
        }
      ],
      "name": "eat",
      "outputs": [],
      "payable": false,
      "stateMutability": "nonpayable",
      "type": "function"
    },
    {
      "constant": true,
      "inputs": [
        {
          "internalType": "address",
          "name": "_owner",
          "type": "address"
        }
      ],
      "name": "getGladiatorsByOwner",
      "outputs": [
        {
          "internalType": "uint256[]",
          "name": "",
          "type": "uint256[]"
        }
      ],
      "payable": false,
      "stateMutability": "view",
      "type": "function"
    }
  ],
  "bytecode": "0x6080604052600060055560006006556040516200001c9062000280565b604051809103906000f08015801562000039573d6000803e3d6000fd5b50600860006101000a81548173ffffffffffffffffffffffffffffffffffffffff021916908373ffffffffffffffffffffffffffffffffffffffff1602179055503480156200008757600080fd5b506040516200383d3803806200383d83398181016040526020811015620000ad57600080fd5b8101908080519060200190929190505050620000d66301ffc9a760e01b6200017760201b60201c565b620000ee6380ac58cd60e01b6200017760201b60201c565b33600760006101000a81548173ffffffffffffffffffffffffffffffffffffffff021916908373ffffffffffffffffffffffffffffffffffffffff16021790555080600860006101000a81548173ffffffffffffffffffffffffffffffffffffffff021916908373ffffffffffffffffffffffffffffffffffffffff160217905550506200028e565b63ffffffff60e01b817bffffffffffffffffffffffffffffffffffffffffffffffffffffffff1916141562000214576040517f08c379a000000000000000000000000000000000000000000000000000000000815260040180806020018281038252601c8152602001807f4552433136353a20696e76616c696420696e746572666163652069640000000081525060200191505060405180910390fd5b6001600080837bffffffffffffffffffffffffffffffffffffffffffffffffffffffff19167bffffffffffffffffffffffffffffffffffffffffffffffffffffffff1916815260200190815260200160002060006101000a81548160ff02191690831515021790555050565b61107b80620027c283390190565b612524806200029e6000396000f3fe608060405234801561001057600080fd5b506004361061018e5760003560e01c80639d63848a116100de578063ba3a531111610097578063e6cb901311610071578063e6cb901314610bd4578063e985e9c514610c20578063edf764a314610c9c578063f211789914610d7b5761018e565b8063ba3a531114610b1e578063bb2880d014610b6a578063d05c78da14610b885761018e565b80639d63848a1461077d578063a22cb465146107c7578063a293d1e814610817578063afc3342e14610863578063b5931f7c146109cd578063b88d4fde14610a195761018e565b8063672f0c4b1161014b5780637632e0c7116101255780637632e0c7146105ca5780637a5b16241461062257806385e0ebaf146107055780638da5cb5b146107335761018e565b8063672f0c4b146103fe57806370a082311461049757806374d29818146104ef5761018e565b806301ffc9a714610193578063081812fc146101f8578063095ea7b31461026657806323b872dd146102b457806342842e0e146103225780636352211e14610390575b600080fd5b6101de600480360360208110156101a957600080fd5b8101908080357bffffffffffffffffffffffffffffffffffffffffffffffffffffffff19169060200190929190505050610de9565b604051808215151515815260200191505060405180910390f35b6102246004803603602081101561020e57600080fd5b8101908080359060200190929190505050610e50565b604051808273ffffffffffffffffffffffffffffffffffffffff1673ffffffffffffffffffffffffffffffffffffffff16815260200191505060405180910390f35b6102b26004803603604081101561027c57600080fd5b81019080803573ffffffffffffffffffffffffffffffffffffffff16906020019092919080359060200190929190505050610e9f565b005b610320600480360360608110156102ca57600080fd5b81019080803573ffffffffffffffffffffffffffffffffffffffff169060200190929190803573ffffffffffffffffffffffffffffffffffffffff16906020019092919080359060200190929190505050610fe0565b005b61038e6004803603606081101561033857600080fd5b81019080803573ffffffffffffffffffffffffffffffffffffffff169060200190929190803573ffffffffffffffffffffffffffffffffffffffff169060200190929190803590602001909291905050506110ab565b005b6103bc600480360360208110156103a657600080fd5b81019080803590602001909291905050506110cb565b604051808273ffffffffffffffffffffffffffffffffffffffff1673ffffffffffffffffffffffffffffffffffffffff16815260200191505060405180910390f35b6104406004803603602081101561041457600080fd5b81019080803573ffffffffffffffffffffffffffffffffffffffff169060200190929190505050611147565b6040518080602001828103825283818151815260200191508051906020019060200280838360005b83811015610483578082015181840152602081019050610468565b505050509050019250505060405180910390f35b6104d9600480360360208110156104ad57600080fd5b81019080803573ffffffffffffffffffffffffffffffffffffffff169060200190929190505050611244565b6040518082815260200191505060405180910390f35b6105c86004803603604081101561050557600080fd5b81019080803573ffffffffffffffffffffffffffffffffffffffff1690602001909291908035906020019064010000000081111561054257600080fd5b82018360208201111561055457600080fd5b8035906020019184600183028401116401000000008311171561057657600080fd5b91908080601f016020809104026020016040519081016040528093929190818152602001838380828437600081840152601f19601f8201169050808301925050505050505091929192905050506112c6565b005b61060c600480360360208110156105e057600080fd5b81019080803573ffffffffffffffffffffffffffffffffffffffff1690602001909291905050506114b0565b6040518082815260200191505060405180910390f35b6106ef6004803603606081101561063857600080fd5b8101908080359060200190929190803590602001909291908035906020019064010000000081111561066957600080fd5b82018360208201111561067b57600080fd5b8035906020019184600183028401116401000000008311171561069d57600080fd5b91908080601f016020809104026020016040519081016040528093929190818152602001838380828437600081840152601f19601f8201169050808301925050505050505091929192905050506114c8565b6040518082815260200191505060405180910390f35b6107316004803603602081101561071b57600080fd5b81019080803590602001909291905050506117b8565b005b61073b611806565b604051808273ffffffffffffffffffffffffffffffffffffffff1673ffffffffffffffffffffffffffffffffffffffff16815260200191505060405180910390f35b61078561182c565b604051808273ffffffffffffffffffffffffffffffffffffffff1673ffffffffffffffffffffffffffffffffffffffff16815260200191505060405180910390f35b610815600480360360408110156107dd57600080fd5b81019080803573ffffffffffffffffffffffffffffffffffffffff169060200190929190803515159060200190929190505050611852565b005b61084d6004803603604081101561082d57600080fd5b81019080803590602001909291908035906020019092919050505061198c565b6040518082815260200191505060405180910390f35b6109b36004803603604081101561087957600080fd5b810190808035906020019064010000000081111561089657600080fd5b8201836020820111156108a857600080fd5b803590602001918460018302840111640100000000831117156108ca57600080fd5b91908080601f016020809104026020016040519081016040528093929190818152602001838380828437600081840152601f19601f8201169050808301925050505050505091929192908035906020019064010000000081111561092d57600080fd5b82018360208201111561093f57600080fd5b8035906020019184600183028401116401000000008311171561096157600080fd5b91908080601f016020809104026020016040519081016040528093929190818152602001838380828437600081840152601f19601f820116905080830192505050505050509192919290505050611a0f565b604051808215151515815260200191505060405180910390f35b610a03600480360360408110156109e357600080fd5b810190808035906020019092919080359060200190929190505050611afe565b6040518082815260200191505060405180910390f35b610b1c60048036036080811015610a2f57600080fd5b81019080803573ffffffffffffffffffffffffffffffffffffffff169060200190929190803573ffffffffffffffffffffffffffffffffffffffff1690602001909291908035906020019092919080359060200190640100000000811115610a9657600080fd5b820183602082011115610aa857600080fd5b80359060200191846001830284011164010000000083111715610aca57600080fd5b91908080601f016020809104026020016040519081016040528093929190818152602001838380828437600081840152601f19601f820116905080830192505050505050509192919290505050611b87565b005b610b5460048036036040811015610b3457600080fd5b810190808035906020019092919080359060200190929190505050611b98565b6040518082815260200191505060405180910390f35b610b72611bc5565b6040518082815260200191505060405180910390f35b610bbe60048036036040811015610b9e57600080fd5b810190808035906020019092919080359060200190929190505050611bcb565b6040518082815260200191505060405180910390f35b610c0a60048036036040811015610bea57600080fd5b810190808035906020019092919080359060200190929190505050611c61565b6040518082815260200191505060405180910390f35b610c8260048036036040811015610c3657600080fd5b81019080803573ffffffffffffffffffffffffffffffffffffffff169060200190929190803573ffffffffffffffffffffffffffffffffffffffff169060200190929190505050611ce4565b604051808215151515815260200191505060405180910390f35b610cc860048036036020811015610cb257600080fd5b8101908080359060200190929190505050611d78565b60405180806020018a815260200189815260200188815260200187815260200186815260200185815260200184815260200183815260200182810382528b818151815260200191508051906020019080838360005b83811015610d38578082015181840152602081019050610d1d565b50505050905090810190601f168015610d655780820380516001836020036101000a031916815260200191505b509a505050505050505050505060405180910390f35b610da760048036036020811015610d9157600080fd5b8101908080359060200190929190505050611e6b565b604051808273ffffffffffffffffffffffffffffffffffffffff1673ffffffffffffffffffffffffffffffffffffffff16815260200191505060405180910390f35b6000806000837bffffffffffffffffffffffffffffffffffffffffffffffffffffffff19167bffffffffffffffffffffffffffffffffffffffffffffffffffffffff1916815260200190815260200160002060009054906101000a900460ff169050919050565b6000610e5b82611e9e565b610e6457600080fd5b6002600083815260200190815260200160002060009054906101000a900473ffffffffffffffffffffffffffffffffffffffff169050919050565b6000610eaa826110cb565b90508073ffffffffffffffffffffffffffffffffffffffff168373ffffffffffffffffffffffffffffffffffffffff161415610ee557600080fd5b8073ffffffffffffffffffffffffffffffffffffffff163373ffffffffffffffffffffffffffffffffffffffff161480610f255750610f248133611ce4565b5b610f2e57600080fd5b826002600084815260200190815260200160002060006101000a81548173ffffffffffffffffffffffffffffffffffffffff021916908373ffffffffffffffffffffffffffffffffffffffff160217905550818373ffffffffffffffffffffffffffffffffffffffff168273ffffffffffffffffffffffffffffffffffffffff167f8c5be1e5ebec7d5bd14f71427d1e84f3dd0314c0f7b2291e5b200ac8c7c3b92560405160405180910390a4505050565b610fea3382611f10565b610ff357600080fd5b600073ffffffffffffffffffffffffffffffffffffffff168273ffffffffffffffffffffffffffffffffffffffff16141561102d57600080fd5b6110378382611fa5565b61104183826120a4565b61104b82826121c8565b808273ffffffffffffffffffffffffffffffffffffffff168473ffffffffffffffffffffffffffffffffffffffff167fddf252ad1be2c89b69c2b068fc378daa952ba7f163c4a11628f55a4df523b3ef60405160405180910390a4505050565b6110c683838360405180602001604052806000815250611b87565b505050565b6000806001600084815260200190815260200160002060009054906101000a900473ffffffffffffffffffffffffffffffffffffffff169050600073ffffffffffffffffffffffffffffffffffffffff168173ffffffffffffffffffffffffffffffffffffffff16141561113e57600080fd5b80915050919050565b60608060098054905060405190808252806020026020018201604052801561117e5781602001602082028038833980820191505090505b509050600080905060008090505b600980549050811015611239578473ffffffffffffffffffffffffffffffffffffffff16600a600083815260200190815260200160002060009054906101000a900473ffffffffffffffffffffffffffffffffffffffff1673ffffffffffffffffffffffffffffffffffffffff161415611227578083838151811061120d57fe5b602002602001018181525050611224826001611c61565b91505b611232816001611c61565b905061118c565b508192505050919050565b60008073ffffffffffffffffffffffffffffffffffffffff168273ffffffffffffffffffffffffffffffffffffffff16141561127f57600080fd5b600360008373ffffffffffffffffffffffffffffffffffffffff1673ffffffffffffffffffffffffffffffffffffffff168152602001908152602001600020549050919050565b60006112d26064612317565b905060006112e06064612317565b905060006112ee600a612317565b905060006112fc600a612317565b9050600061130a600a612317565b905060006113186064612317565b905060008190506000600160096040518061012001604052808c8152602001600181526020018581526020018681526020018981526020018881526020018781526020018b81526020018a8152509080600181540180825580915050906001820390600052602060002090600902016000909192909190915060008201518160000190805190602001906113ad92919061244a565b506020820151816001015560408201518160020155606082015181600301556080820151816004015560a0820151816005015560c0820151816006015560e082015181600701556101008201518160080155505003905089600a600083815260200190815260200160002060006101000a81548173ffffffffffffffffffffffffffffffffffffffff021916908373ffffffffffffffffffffffffffffffffffffffff16021790555080600b60008c73ffffffffffffffffffffffffffffffffffffffff1673ffffffffffffffffffffffffffffffffffffffff168152602001908152602001600020819055506114a48a826123a6565b50505050505050505050565b600b6020528060005260406000206000915090505481565b600080600061150c846040518060400160405280600281526020017f6870000000000000000000000000000000000000000000000000000000000000815250611a0f565b1561156f576115396009878154811061152157fe5b90600052602060002090600902016002015486611c61565b91506009868154811061154857fe5b90600052602060002090600902016003015490506115668282611b98565b925050506117b1565b6115ae846040518060400160405280600781526020017f7374616d696e6100000000000000000000000000000000000000000000000000815250611a0f565b156115f1576115db600987815481106115c357fe5b90600052602060002090600902016004015486611c61565b91506115e8826032611b98565b925050506117b1565b611630846040518060400160405280600881526020017f737472656e677468000000000000000000000000000000000000000000000000815250611a0f565b156116735761165d6009878154811061164557fe5b90600052602060002090600902016005015486611c61565b915061166a826032611b98565b925050506117b1565b6116b2846040518060400160405280600981526020017f6465787465726974790000000000000000000000000000000000000000000000815250611a0f565b156116f5576116df600987815481106116c757fe5b90600052602060002090600902016006015486611c61565b91506116ec826032611b98565b925050506117b1565b611734846040518060400160405280600581526020017f7669676f72000000000000000000000000000000000000000000000000000000815250611a0f565b15611777576117616009878154811061174957fe5b90600052602060002090600902016007015486611c61565b915061176e826064611b98565b925050506117b1565b61179f6009878154811061178757fe5b90600052602060002090600902016008015486611c61565b91506117ac826064611b98565b925050505b9392505050565b6117e16019600983815481106117ca57fe5b906000526020600020906009020160080154611c61565b600982815481106117ee57fe5b90600052602060002090600902016008018190555050565b600760009054906101000a900473ffffffffffffffffffffffffffffffffffffffff1681565b600860009054906101000a900473ffffffffffffffffffffffffffffffffffffffff1681565b3373ffffffffffffffffffffffffffffffffffffffff168273ffffffffffffffffffffffffffffffffffffffff16141561188b57600080fd5b80600460003373ffffffffffffffffffffffffffffffffffffffff1673ffffffffffffffffffffffffffffffffffffffff16815260200190815260200160002060008473ffffffffffffffffffffffffffffffffffffffff1673ffffffffffffffffffffffffffffffffffffffff16815260200190815260200160002060006101000a81548160ff0219169083151502179055508173ffffffffffffffffffffffffffffffffffffffff163373ffffffffffffffffffffffffffffffffffffffff167f17307eab39ab6107e8899845ad3d59bd9653f200f220920489ca2b5937696c3183604051808215151515815260200191505060405180910390a35050565b600082821115611a04576040517f08c379a00000000000000000000000000000000000000000000000000000000081526004018080602001828103825260088152602001807f736166652073756200000000000000000000000000000000000000000000000081525060200191505060405180910390fd5b818303905092915050565b6000816040516020018082805190602001908083835b60208310611a485780518252602082019150602081019050602083039250611a25565b6001836020036101000a03801982511681845116808217855250505050505090500191505060405160208183030381529060405280519060200120836040516020018082805190602001908083835b60208310611aba5780518252602082019150602081019050602083039250611a97565b6001836020036101000a0380198251168184511680821785525050505050509050019150506040516020818303038152906040528051906020012014905092915050565b6000808211611b75576040517f08c379a00000000000000000000000000000000000000000000000000000000081526004018080602001828103825260088152602001807f736166652064697600000000000000000000000000000000000000000000000081525060200191505060405180910390fd5b818381611b7e57fe5b04905092915050565b611b92848484610fe0565b50505050565b600080831015611bab5760009050611bbf565b81831115611bbb57819050611bbf565b8290505b92915050565b60065481565b600081830290506000831480611be9575081838281611be657fe5b04145b611c5b576040517f08c379a00000000000000000000000000000000000000000000000000000000081526004018080602001828103825260088152602001807f73616665204d756c00000000000000000000000000000000000000000000000081525060200191505060405180910390fd5b92915050565b6000818301905082811015611cde576040517f08c379a00000000000000000000000000000000000000000000000000000000081526004018080602001828103825260088152602001807f736166652061646400000000000000000000000000000000000000000000000081525060200191505060405180910390fd5b92915050565b6000600460008473ffffffffffffffffffffffffffffffffffffffff1673ffffffffffffffffffffffffffffffffffffffff16815260200190815260200160002060008373ffffffffffffffffffffffffffffffffffffffff1673ffffffffffffffffffffffffffffffffffffffff16815260200190815260200160002060009054906101000a900460ff16905092915050565b60098181548110611d8557fe5b9060005260206000209060090201600091509050806000018054600181600116156101000203166002900480601f016020809104026020016040519081016040528092919081815260200182805460018160011615610100020316600290048015611e315780601f10611e0657610100808354040283529160200191611e31565b820191906000526020600020905b815481529060010190602001808311611e1457829003601f168201915b5050505050908060010154908060020154908060030154908060040154908060050154908060060154908060070154908060080154905089565b600a6020528060005260406000206000915054906101000a900473ffffffffffffffffffffffffffffffffffffffff1681565b6000806001600084815260200190815260200160002060009054906101000a900473ffffffffffffffffffffffffffffffffffffffff169050600073ffffffffffffffffffffffffffffffffffffffff168173ffffffffffffffffffffffffffffffffffffffff161415915050919050565b600080611f1c836110cb565b90508073ffffffffffffffffffffffffffffffffffffffff168473ffffffffffffffffffffffffffffffffffffffff161480611f8b57508373ffffffffffffffffffffffffffffffffffffffff16611f7384610e50565b73ffffffffffffffffffffffffffffffffffffffff16145b80611f9c5750611f9b8185611ce4565b5b91505092915050565b8173ffffffffffffffffffffffffffffffffffffffff16611fc5826110cb565b73ffffffffffffffffffffffffffffffffffffffff1614611fe557600080fd5b600073ffffffffffffffffffffffffffffffffffffffff166002600083815260200190815260200160002060009054906101000a900473ffffffffffffffffffffffffffffffffffffffff1673ffffffffffffffffffffffffffffffffffffffff16146120a05760006002600083815260200190815260200160002060006101000a81548173ffffffffffffffffffffffffffffffffffffffff021916908373ffffffffffffffffffffffffffffffffffffffff1602179055505b5050565b8173ffffffffffffffffffffffffffffffffffffffff166120c4826110cb565b73ffffffffffffffffffffffffffffffffffffffff16146120e457600080fd5b61212e600360008473ffffffffffffffffffffffffffffffffffffffff1673ffffffffffffffffffffffffffffffffffffffff16815260200190815260200160002054600161198c565b600360008473ffffffffffffffffffffffffffffffffffffffff1673ffffffffffffffffffffffffffffffffffffffff1681526020019081526020016000208190555060006001600083815260200190815260200160002060006101000a81548173ffffffffffffffffffffffffffffffffffffffff021916908373ffffffffffffffffffffffffffffffffffffffff1602179055505050565b600073ffffffffffffffffffffffffffffffffffffffff166001600083815260200190815260200160002060009054906101000a900473ffffffffffffffffffffffffffffffffffffffff1673ffffffffffffffffffffffffffffffffffffffff161461223457600080fd5b816001600083815260200190815260200160002060006101000a81548173ffffffffffffffffffffffffffffffffffffffff021916908373ffffffffffffffffffffffffffffffffffffffff1602179055506122d0600360008473ffffffffffffffffffffffffffffffffffffffff1673ffffffffffffffffffffffffffffffffffffffff168152602001908152602001600020546001611c61565b600360008473ffffffffffffffffffffffffffffffffffffffff1673ffffffffffffffffffffffffffffffffffffffff168152602001908152602001600020819055505050565b6000600560008154809291906001019190505550814233600554604051602001808481526020018373ffffffffffffffffffffffffffffffffffffffff1673ffffffffffffffffffffffffffffffffffffffff1660601b815260140182815260200193505050506040516020818303038152906040528051906020012060001c8161239e57fe5b069050919050565b600073ffffffffffffffffffffffffffffffffffffffff168273ffffffffffffffffffffffffffffffffffffffff1614156123e057600080fd5b6123ea82826121c8565b808273ffffffffffffffffffffffffffffffffffffffff16600073ffffffffffffffffffffffffffffffffffffffff167fddf252ad1be2c89b69c2b068fc378daa952ba7f163c4a11628f55a4df523b3ef60405160405180910390a45050565b828054600181600116156101000203166002900490600052602060002090601f016020900481019282601f1061248b57805160ff19168380011785556124b9565b828001600101855582156124b9579182015b828111156124b857825182559160200191906001019061249d565b5b5090506124c691906124ca565b5090565b6124ec91905b808211156124e85760008160009055506001016124d0565b5090565b9056fea265627a7a7231582035f320bffe8f6cc370f21a53c809b6c422589805d23f427119e6747a922b2fd764736f6c63430005100032608060405234801561001057600080fd5b506040518060400160405280600d81526020017f476f6c64436f696e546f6b656e000000000000000000000000000000000000008152506000908051906020019061005c929190610119565b506040518060400160405280600381526020017f4743540000000000000000000000000000000000000000000000000000000000815250600190805190602001906100a8929190610119565b506012600260006101000a81548160ff021916908360ff1602179055506103e8600381905550600354600460003373ffffffffffffffffffffffffffffffffffffffff1673ffffffffffffffffffffffffffffffffffffffff168152602001908152602001600020819055506101be565b828054600181600116156101000203166002900490600052602060002090601f016020900481019282601f1061015a57805160ff1916838001178555610188565b82800160010185558215610188579182015b8281111561018757825182559160200191906001019061016c565b5b5090506101959190610199565b5090565b6101bb91905b808211156101b757600081600090555060010161019f565b5090565b90565b610ead80620001ce6000396000f3fe608060405234801561001057600080fd5b50600436106100ea5760003560e01c806395d89b411161008c578063b5931f7c11610066578063b5931f7c1461044b578063d05c78da14610497578063dd62ed3e146104e3578063e6cb90131461055b576100ea565b806395d89b4114610316578063a293d1e814610399578063a9059cbb146103e5576100ea565b80631a2b0eeb116100c85780631a2b0eeb146101f657806323b872dd1461024e578063313ce567146102d45780633eaaf86b146102f8576100ea565b806306fdde03146100ef578063095ea7b31461017257806318160ddd146101d8575b600080fd5b6100f76105a7565b6040518080602001828103825283818151815260200191508051906020019080838360005b8381101561013757808201518184015260208101905061011c565b50505050905090810190601f1680156101645780820380516001836020036101000a031916815260200191505b509250505060405180910390f35b6101be6004803603604081101561018857600080fd5b81019080803573ffffffffffffffffffffffffffffffffffffffff16906020019092919080359060200190929190505050610645565b604051808215151515815260200191505060405180910390f35b6101e0610737565b6040518082815260200191505060405180910390f35b6102386004803603602081101561020c57600080fd5b81019080803573ffffffffffffffffffffffffffffffffffffffff169060200190929190505050610782565b6040518082815260200191505060405180910390f35b6102ba6004803603606081101561026457600080fd5b81019080803573ffffffffffffffffffffffffffffffffffffffff169060200190929190803573ffffffffffffffffffffffffffffffffffffffff169060200190929190803590602001909291905050506107cb565b604051808215151515815260200191505060405180910390f35b6102dc610955565b604051808260ff1660ff16815260200191505060405180910390f35b610300610968565b6040518082815260200191505060405180910390f35b61031e61096e565b6040518080602001828103825283818151815260200191508051906020019080838360005b8381101561035e578082015181840152602081019050610343565b50505050905090810190601f16801561038b5780820380516001836020036101000a031916815260200191505b509250505060405180910390f35b6103cf600480360360408110156103af57600080fd5b810190808035906020019092919080359060200190929190505050610a0c565b6040518082815260200191505060405180910390f35b610431600480360360408110156103fb57600080fd5b81019080803573ffffffffffffffffffffffffffffffffffffffff16906020019092919080359060200190929190505050610a8f565b604051808215151515815260200191505060405180910390f35b6104816004803603604081101561046157600080fd5b810190808035906020019092919080359060200190929190505050610c4f565b6040518082815260200191505060405180910390f35b6104cd600480360360408110156104ad57600080fd5b810190808035906020019092919080359060200190929190505050610cd8565b6040518082815260200191505060405180910390f35b610545600480360360408110156104f957600080fd5b81019080803573ffffffffffffffffffffffffffffffffffffffff169060200190929190803573ffffffffffffffffffffffffffffffffffffffff169060200190929190505050610d6e565b6040518082815260200191505060405180910390f35b6105916004803603604081101561057157600080fd5b810190808035906020019092919080359060200190929190505050610df5565b6040518082815260200191505060405180910390f35b60008054600181600116156101000203166002900480601f01602080910402602001604051908101604052809291908181526020018280546001816001161561010002031660029004801561063d5780601f106106125761010080835404028352916020019161063d565b820191906000526020600020905b81548152906001019060200180831161062057829003601f168201915b505050505081565b600081600560003373ffffffffffffffffffffffffffffffffffffffff1673ffffffffffffffffffffffffffffffffffffffff16815260200190815260200160002060008573ffffffffffffffffffffffffffffffffffffffff1673ffffffffffffffffffffffffffffffffffffffff168152602001908152602001600020819055508273ffffffffffffffffffffffffffffffffffffffff163373ffffffffffffffffffffffffffffffffffffffff167f8c5be1e5ebec7d5bd14f71427d1e84f3dd0314c0f7b2291e5b200ac8c7c3b925846040518082815260200191505060405180910390a36001905092915050565b6000600460008073ffffffffffffffffffffffffffffffffffffffff1673ffffffffffffffffffffffffffffffffffffffff1681526020019081526020016000205460035403905090565b6000600460008373ffffffffffffffffffffffffffffffffffffffff1673ffffffffffffffffffffffffffffffffffffffff168152602001908152602001600020549050919050565b6000610816600460008673ffffffffffffffffffffffffffffffffffffffff1673ffffffffffffffffffffffffffffffffffffffff1681526020019081526020016000205483610a0c565b600460008673ffffffffffffffffffffffffffffffffffffffff1673ffffffffffffffffffffffffffffffffffffffff168152602001908152602001600020819055506108a2600460008573ffffffffffffffffffffffffffffffffffffffff1673ffffffffffffffffffffffffffffffffffffffff1681526020019081526020016000205483610df5565b600460008573ffffffffffffffffffffffffffffffffffffffff1673ffffffffffffffffffffffffffffffffffffffff168152602001908152602001600020819055508273ffffffffffffffffffffffffffffffffffffffff168473ffffffffffffffffffffffffffffffffffffffff167fddf252ad1be2c89b69c2b068fc378daa952ba7f163c4a11628f55a4df523b3ef846040518082815260200191505060405180910390a3600190509392505050565b600260009054906101000a900460ff1681565b60035481565b60018054600181600116156101000203166002900480601f016020809104026020016040519081016040528092919081815260200182805460018160011615610100020316600290048015610a045780601f106109d957610100808354040283529160200191610a04565b820191906000526020600020905b8154815290600101906020018083116109e757829003601f168201915b505050505081565b600082821115610a84576040517f08c379a00000000000000000000000000000000000000000000000000000000081526004018080602001828103825260088152602001807f736166652073756200000000000000000000000000000000000000000000000081525060200191505060405180910390fd5b818303905092915050565b600081600460003373ffffffffffffffffffffffffffffffffffffffff1673ffffffffffffffffffffffffffffffffffffffff168152602001908152602001600020541015610b46576040517f08c379a000000000000000000000000000000000000000000000000000000000815260040180806020018281038252600e8152602001807f6572726f72207472616e7366657200000000000000000000000000000000000081525060200191505060405180910390fd5b81600460003373ffffffffffffffffffffffffffffffffffffffff1673ffffffffffffffffffffffffffffffffffffffff1681526020019081526020016000206000828254039250508190555081600460008573ffffffffffffffffffffffffffffffffffffffff1673ffffffffffffffffffffffffffffffffffffffff168152602001908152602001600020600082825401925050819055508273ffffffffffffffffffffffffffffffffffffffff163373ffffffffffffffffffffffffffffffffffffffff167fddf252ad1be2c89b69c2b068fc378daa952ba7f163c4a11628f55a4df523b3ef846040518082815260200191505060405180910390a36001905092915050565b6000808211610cc6576040517f08c379a00000000000000000000000000000000000000000000000000000000081526004018080602001828103825260088152602001807f736166652064697600000000000000000000000000000000000000000000000081525060200191505060405180910390fd5b818381610ccf57fe5b04905092915050565b600081830290506000831480610cf6575081838281610cf357fe5b04145b610d68576040517f08c379a00000000000000000000000000000000000000000000000000000000081526004018080602001828103825260088152602001807f73616665204d756c00000000000000000000000000000000000000000000000081525060200191505060405180910390fd5b92915050565b6000600560008473ffffffffffffffffffffffffffffffffffffffff1673ffffffffffffffffffffffffffffffffffffffff16815260200190815260200160002060008373ffffffffffffffffffffffffffffffffffffffff1673ffffffffffffffffffffffffffffffffffffffff16815260200190815260200160002054905092915050565b6000818301905082811015610e72576040517f08c379a00000000000000000000000000000000000000000000000000000000081526004018080602001828103825260088152602001807f736166652061646400000000000000000000000000000000000000000000000081525060200191505060405180910390fd5b9291505056fea265627a7a72315820ef825fe09d714f34b5972ebbf231169bf238379d4cab9ca2c0594d19d4a7dab564736f6c63430005100032",
  "source": "pragma solidity ^0.5.0;\r\n\r\nimport \"./ERC721.sol\";\r\nimport \"./ERC20.sol\";\r\n\r\ncontract CryptoGame is ERC721 {\r\n    uint256 constant LEVEL_UP = 1;\r\n    uint256 constant MIN_AMOUNT = 5;\r\n    uint256 constant LOW_AMOUNT = 10;\r\n    uint256 constant STANDARD_AMOUNT = 20;\r\n    uint256 constant HIGH_AMOUNT = 25;\r\n\r\n    uint256 constant MAX_LEVEL = 20;\r\n    uint256 constant MAX_STAMINA = 50;\r\n    uint256 constant MAX_STRENGTH = 50;\r\n    uint256 constant MAX_DEXTERITY = 50;\r\n    uint256 constant MAX_VIGOR = 100;\r\n    uint256 constant MAX_SATIATION = 100;\r\n\r\n    struct Gladiator {\r\n        string name;\r\n        uint256 level;\r\n        uint256 hp;\r\n        uint256 max_hp;\r\n        uint256 stamina;\r\n        uint256 strength;\r\n        uint256 dexterity;\r\n        uint256 vigor;\r\n        uint256 satiation;\r\n    }\r\n\r\n    event recruitedGladiatorEvent(uint256 indexed gladiatorId);\r\n\r\n    uint256 randNonce = 0;\r\n    uint256 public numGladiators = 0;\r\n    address public owner;\r\n    ERC20 public tokens = new ERC20();\r\n    Gladiator[] public gladiators;\r\n    // GoldCoinToken public money = new GoldCoinToken();\r\n\r\n    mapping(uint256 => address) public gladiatorToOwner;\r\n    mapping(address => uint256) public ownerToGladiator;\r\n\r\n    modifier onlyOwnerOf(uint256 _gladiatorId) {\r\n        require(msg.sender == gladiatorToOwner[_gladiatorId]);\r\n        _;\r\n    }\r\n\r\n    modifier onlyOwner(address _owner) {\r\n        require(owner == _owner);\r\n        _;\r\n    }\r\n\r\n    constructor(ERC20 _tokens) public {\r\n        owner = msg.sender;\r\n        tokens = _tokens;\r\n    }\r\n\r\n    /*function setWallet() public {\r\n        money = new GoldCoinToken();\r\n    }*/\r\n\r\n    function randMod(uint256 _modulus) internal returns (uint256) {\r\n        randNonce++;\r\n        return\r\n            uint256(keccak256(abi.encodePacked(now, msg.sender, randNonce))) %\r\n            _modulus;\r\n    }\r\n\r\n    function recruiteGladiator(address _owner, string memory _name)\r\n        public\r\n    //onlyOwner(_owner)\r\n    {\r\n        uint256 vigor = randMod(100);\r\n        uint256 satiation = randMod(100);\r\n        uint256 stamina = randMod(10);\r\n        uint256 strength = randMod(10);\r\n        uint256 dexterity = randMod(10);\r\n        uint256 max_hp = randMod(100);\r\n        uint256 hp = max_hp;\r\n        //gladiators[numGladiators] = Gladiator(1, _name, hp, stamina, att, def);\r\n        uint256 id =\r\n            gladiators.push(\r\n                Gladiator(\r\n                    _name,\r\n                    1,\r\n                    hp,\r\n                    max_hp,\r\n                    stamina,\r\n                    strength,\r\n                    dexterity,\r\n                    vigor,\r\n                    satiation\r\n                )\r\n            ) - 1;\r\n        gladiatorToOwner[id] = _owner;\r\n        ownerToGladiator[_owner] = id;\r\n        _mint(_owner, id);\r\n    }\r\n\r\n    function compare_strings(string memory a, string memory b)\r\n        public\r\n        returns (bool)\r\n    {\r\n        return keccak256(abi.encodePacked(a)) == keccak256(abi.encodePacked(b));\r\n    }\r\n\r\n    function update_score(uint256 res, uint256 max) public returns (uint256) {\r\n        if (res < 0) {\r\n            return 0;\r\n        } else if (res > max) {\r\n            return max;\r\n        } else {\r\n            return res;\r\n        }\r\n    }\r\n\r\n    function type_to_update(\r\n        uint256 _gladiatorId,\r\n        uint256 amount,\r\n        string memory _name\r\n    ) public returns (uint256) {\r\n        uint256 res;\r\n        uint256 max;\r\n        if (compare_strings(_name, \"hp\")) {\r\n            res = safeAdd(gladiators[_gladiatorId].hp, amount);\r\n            max = gladiators[_gladiatorId].max_hp;\r\n            return update_score(res, max);\r\n        }\r\n        if (compare_strings(_name, \"stamina\")) {\r\n            res = safeAdd(gladiators[_gladiatorId].stamina, amount);\r\n            return update_score(res, MAX_STAMINA);\r\n        }\r\n        if (compare_strings(_name, \"strength\")) {\r\n            res = safeAdd(gladiators[_gladiatorId].strength, amount);\r\n            return update_score(res, MAX_STRENGTH);\r\n        }\r\n        if (compare_strings(_name, \"dexterity\")) {\r\n            res = safeAdd(gladiators[_gladiatorId].dexterity, amount);\r\n            return update_score(res, MAX_DEXTERITY);\r\n        }\r\n        if (compare_strings(_name, \"vigor\")) {\r\n            res = safeAdd(gladiators[_gladiatorId].vigor, amount);\r\n            return update_score(res, MAX_VIGOR);\r\n        } else {\r\n            //satiation\r\n            res = safeAdd(gladiators[_gladiatorId].satiation, amount);\r\n            return update_score(res, MAX_SATIATION);\r\n        }\r\n    }\r\n\r\n    function eat(uint256 _gladiatorId) public {\r\n        //gladiators[_gladiatorId].hp = 2000;\r\n        gladiators[_gladiatorId].satiation = safeAdd(\r\n            HIGH_AMOUNT,\r\n            gladiators[_gladiatorId].satiation\r\n        );\r\n        /*gladiators[_gladiatorId].satiation = type_to_update(\r\n            _gladiatorId,\r\n            HIGH_AMOUNT,\r\n            \"satiation\"\r\n        );\r\n        gladiators[_gladiatorId].vigor = type_to_update(\r\n            _gladiatorId,\r\n            -LOW_AMOUNT,\r\n            \"vigor\"\r\n        );\r\n        gladiators[_gladiatorId].hp = type_to_update(\r\n            _gladiatorId,\r\n            MIN_AMOUNT,\r\n            \"hp\"\r\n        );*/\r\n    }\r\n\r\n    /*  function recruitGladiator() public {\r\n        uint256 id = gladiators.push(Gladiator(1, \"Ivan\", 1, 1, 1, 1, 1)) - 1;\r\n\r\n        emit recruitedGladiatorEvent(id);\r\n    }*/\r\n\r\n    function getGladiatorsByOwner(address _owner)\r\n        public\r\n        view\r\n        returns (uint256[] memory)\r\n    {\r\n        uint256[] memory result = new uint256[](gladiators.length);\r\n        uint256 counter = 0;\r\n        for (uint256 i = 0; i < gladiators.length; i = safeAdd(i, 1)) {\r\n            if (gladiatorToOwner[i] == _owner) {\r\n                result[counter] = i;\r\n                counter = safeAdd(counter, 1);\r\n            }\r\n        }\r\n        return result;\r\n    }\r\n}\r\n",
  "sourcePath": "D:/Homework/Y4S1/Blockchain/Projects/GladShop/contracts/CryptoGame.sol",
  "compiler": {
    "name": "solc",
    "version": "0.5.16+commit.9c3226ce.Emscripten.clang"
  },
  "schemaVersion": "3.3.3",
  "updatedAt": "2021-02-02T13:03:31.758Z",
  "networkType": "ethereum",
  "devdoc": {
    "methods": {}
  },
  "userdoc": {
    "methods": {}
  }
}