{
  "contractName": "Election",
  "abi": [
    {
      "inputs": [
        {
          "internalType": "contract ElectionToken",
          "name": "_hamamiContracrtToken",
          "type": "address"
        }
      ],
      "payable": false,
      "stateMutability": "nonpayable",
      "type": "constructor"
    },
    {
      "anonymous": false,
      "inputs": [
        {
          "indexed": true,
          "internalType": "uint256",
          "name": "_candidateId",
          "type": "uint256"
        }
      ],
      "name": "votedEvent",
      "type": "event"
    },
    {
      "constant": true,
      "inputs": [],
      "name": "admin",
      "outputs": [
        {
          "internalType": "address",
          "name": "",
          "type": "address"
        }
      ],
      "payable": false,
      "stateMutability": "view",
      "type": "function"
    },
    {
      "constant": true,
      "inputs": [
        {
          "internalType": "bytes32",
          "name": "",
          "type": "bytes32"
        }
      ],
      "name": "allowed_voters",
      "outputs": [
        {
          "internalType": "bool",
          "name": "",
          "type": "bool"
        }
      ],
      "payable": false,
      "stateMutability": "view",
      "type": "function"
    },
    {
      "constant": true,
      "inputs": [
        {
          "internalType": "uint256",
          "name": "",
          "type": "uint256"
        }
      ],
      "name": "candidates",
      "outputs": [
        {
          "internalType": "uint256",
          "name": "id",
          "type": "uint256"
        },
        {
          "internalType": "string",
          "name": "name",
          "type": "string"
        },
        {
          "internalType": "uint256",
          "name": "voteCount",
          "type": "uint256"
        },
        {
          "internalType": "string",
          "name": "link",
          "type": "string"
        }
      ],
      "payable": false,
      "stateMutability": "view",
      "type": "function"
    },
    {
      "constant": true,
      "inputs": [],
      "name": "candidatesCount",
      "outputs": [
        {
          "internalType": "uint256",
          "name": "",
          "type": "uint256"
        }
      ],
      "payable": false,
      "stateMutability": "view",
      "type": "function"
    },
    {
      "constant": true,
      "inputs": [],
      "name": "timeblock",
      "outputs": [
        {
          "internalType": "uint256",
          "name": "",
          "type": "uint256"
        }
      ],
      "payable": false,
      "stateMutability": "view",
      "type": "function"
    },
    {
      "constant": true,
      "inputs": [],
      "name": "tokenContract",
      "outputs": [
        {
          "internalType": "contract ElectionToken",
          "name": "",
          "type": "address"
        }
      ],
      "payable": false,
      "stateMutability": "view",
      "type": "function"
    },
    {
      "constant": true,
      "inputs": [
        {
          "internalType": "address",
          "name": "",
          "type": "address"
        }
      ],
      "name": "voters",
      "outputs": [
        {
          "internalType": "bool",
          "name": "",
          "type": "bool"
        }
      ],
      "payable": false,
      "stateMutability": "view",
      "type": "function"
    },
    {
      "constant": false,
      "inputs": [
        {
          "internalType": "uint256",
          "name": "_candidateId",
          "type": "uint256"
        }
      ],
      "name": "vote",
      "outputs": [],
      "payable": false,
      "stateMutability": "nonpayable",
      "type": "function"
    }
  ],
  "bytecode": "0x608060405261821442016004553480156200001957600080fd5b506040516200173138038062001731833981810160405260208110156200003f57600080fd5b810190808051906020019092919050505033600560006101000a81548173ffffffffffffffffffffffffffffffffffffffff021916908373ffffffffffffffffffffffffffffffffffffffff16021790555080600660006101000a81548173ffffffffffffffffffffffffffffffffffffffff021916908373ffffffffffffffffffffffffffffffffffffffff160217905550620001326040518060400160405280600481526020017f42696269000000000000000000000000000000000000000000000000000000008152506040518060a00160405280606781526020016200148960679139620003e960201b60201c565b620001926040518060400160405280600581526020017f47616e747a000000000000000000000000000000000000000000000000000000815250604051806080016040528060438152602001620015f560439139620003e960201b60201c565b620001f26040518060400160405280600a81526020017f41796d616e204f64656800000000000000000000000000000000000000000000815250604051806080016040528060558152602001620016dc60559139620003e960201b60201c565b620002526040518060400160405280600b81526020017f416d69722050657265747a000000000000000000000000000000000000000000815250604051806080016040528060498152602001620015ac60499139620003e960201b60201c565b620002b26040518060400160405280600e81526020017f5961616b6f76204c69747a6d616e0000000000000000000000000000000000008152506040518060800160405280605581526020016200163860559139620003e960201b60201c565b620003126040518060400160405280600a81526020017f41727965682044657269000000000000000000000000000000000000000000008152506040518060800160405280604f81526020016200168d604f9139620003e960201b60201c565b620003726040518060400160405280600f81526020017f4e616674616c692042656e6e65747400000000000000000000000000000000008152506040518060800160405280604f8152602001620014f0604f9139620003e960201b60201c565b620003d26040518060400160405280601181526020017f41766967646f72204c69656265726d616e0000000000000000000000000000008152506040518060a00160405280606d81526020016200153f606d9139620003e960201b60201c565b620003e26200048d60201b60201c565b5062000a72565b6003600081548092919060010191905055506040518060800160405280600354815260200183815260200160008152602001828152506002600060035481526020019081526020016000206000820151816000015560208201518160010190805190602001906200045c929190620009c3565b5060408201518160020155606082015181600301908051906020019062000485929190620009c3565b509050505050565b600180600073ac9ffd6ed95725965623354a416478c4ad5e236d604051602001808273ffffffffffffffffffffffffffffffffffffffff1673ffffffffffffffffffffffffffffffffffffffff1660601b815260140191505060405160208183030381529060405280519060200120815260200190815260200160002060006101000a81548160ff021916908315150217905550600180600073be44fabcb03630ba316d106f442681d96c60f549604051602001808273ffffffffffffffffffffffffffffffffffffffff1673ffffffffffffffffffffffffffffffffffffffff1660601b815260140191505060405160208183030381529060405280519060200120815260200190815260200160002060006101000a81548160ff021916908315150217905550600180600073aa720620e16ec1e43caa85370607e34fea437e2c604051602001808273ffffffffffffffffffffffffffffffffffffffff1673ffffffffffffffffffffffffffffffffffffffff1660601b815260140191505060405160208183030381529060405280519060200120815260200190815260200160002060006101000a81548160ff0219169083151502179055506001806000735826747a6d26314ed3ea4ae22af7ad99f6e34af4604051602001808273ffffffffffffffffffffffffffffffffffffffff1673ffffffffffffffffffffffffffffffffffffffff1660601b815260140191505060405160208183030381529060405280519060200120815260200190815260200160002060006101000a81548160ff0219169083151502179055506001806000731009106eff5346246829d7cf9939b6915b1529e5604051602001808273ffffffffffffffffffffffffffffffffffffffff1673ffffffffffffffffffffffffffffffffffffffff1660601b815260140191505060405160208183030381529060405280519060200120815260200190815260200160002060006101000a81548160ff0219169083151502179055506001806000738ef6066ba41f5cd44837c460440f76316572b02c604051602001808273ffffffffffffffffffffffffffffffffffffffff1673ffffffffffffffffffffffffffffffffffffffff1660601b815260140191505060405160208183030381529060405280519060200120815260200190815260200160002060006101000a81548160ff021916908315150217905550600180600073ca24b10d7527763d2b56cb9bbebdc738cfe0d790604051602001808273ffffffffffffffffffffffffffffffffffffffff1673ffffffffffffffffffffffffffffffffffffffff1660601b815260140191505060405160208183030381529060405280519060200120815260200190815260200160002060006101000a81548160ff0219169083151502179055506001806000733a5a14d0fea07623b857bdf6bb8d464b1be78c1d604051602001808273ffffffffffffffffffffffffffffffffffffffff1673ffffffffffffffffffffffffffffffffffffffff1660601b815260140191505060405160208183030381529060405280519060200120815260200190815260200160002060006101000a81548160ff0219169083151502179055506001806000738d028e7a4010f485777f382df6c2a8f1f5e7ace7604051602001808273ffffffffffffffffffffffffffffffffffffffff1673ffffffffffffffffffffffffffffffffffffffff1660601b815260140191505060405160208183030381529060405280519060200120815260200190815260200160002060006101000a81548160ff021916908315150217905550565b828054600181600116156101000203166002900490600052602060002090601f016020900481019282601f1062000a0657805160ff191683800117855562000a37565b8280016001018555821562000a37579182015b8281111562000a3657825182559160200191906001019062000a19565b5b50905062000a46919062000a4a565b5090565b62000a6f91905b8082111562000a6b57600081600090555060010162000a51565b5090565b90565b610a078062000a826000396000f3fe608060405234801561001057600080fd5b50600436106100885760003560e01c806355a373d61161005b57806355a373d61461024057806371103a611461028a578063a3ec138d146102a8578063f851a4401461030457610088565b80630121b93f1461008d5780632d35a8a2146100bb5780633477ee2e146100d95780634657ae5f146101fa575b600080fd5b6100b9600480360360208110156100a357600080fd5b810190808035906020019092919050505061034e565b005b6100c36107da565b6040518082815260200191505060405180910390f35b610105600480360360208110156100ef57600080fd5b81019080803590602001909291905050506107e0565b604051808581526020018060200184815260200180602001838103835286818151815260200191508051906020019080838360005b8381101561015557808201518184015260208101905061013a565b50505050905090810190601f1680156101825780820380516001836020036101000a031916815260200191505b50838103825284818151815260200191508051906020019080838360005b838110156101bb5780820151818401526020810190506101a0565b50505050905090810190601f1680156101e85780820380516001836020036101000a031916815260200191505b50965050505050505060405180910390f35b6102266004803603602081101561021057600080fd5b8101908080359060200190929190505050610940565b604051808215151515815260200191505060405180910390f35b610248610960565b604051808273ffffffffffffffffffffffffffffffffffffffff1673ffffffffffffffffffffffffffffffffffffffff16815260200191505060405180910390f35b610292610986565b6040518082815260200191505060405180910390f35b6102ea600480360360208110156102be57600080fd5b81019080803573ffffffffffffffffffffffffffffffffffffffff16906020019092919050505061098c565b604051808215151515815260200191505060405180910390f35b61030c6109ac565b604051808273ffffffffffffffffffffffffffffffffffffffff1673ffffffffffffffffffffffffffffffffffffffff16815260200191505060405180910390f35b6000803373ffffffffffffffffffffffffffffffffffffffff1673ffffffffffffffffffffffffffffffffffffffff16815260200190815260200160002060009054906101000a900460ff161561040d576040517f08c379a000000000000000000000000000000000000000000000000000000000815260040180806020018281038252600d8152602001807f616c726561647920766f7465640000000000000000000000000000000000000081525060200191505060405180910390fd5b60008111801561041f57506003548111155b610491576040517f08c379a00000000000000000000000000000000000000000000000000000000081526004018080602001828103825260158152602001807f4e6f7420612076616c69642063616e646964617465000000000000000000000081525060200191505060405180910390fd5b600454421115610509576040517f08c379a00000000000000000000000000000000000000000000000000000000081526004018080602001828103825260148152602001807f54696d6520746f20766f746520656c617073656400000000000000000000000081525060200191505060405180910390fd5b6001600033604051602001808273ffffffffffffffffffffffffffffffffffffffff1673ffffffffffffffffffffffffffffffffffffffff1660601b815260140191505060405160208183030381529060405280519060200120815260200190815260200160002060009054906101000a900460ff166105f1576040517f08c379a00000000000000000000000000000000000000000000000000000000081526004018080602001828103825260138152602001807f4e6f7420616c6c6f77656420746f20766f74650000000000000000000000000081525060200191505060405180910390fd5b600660009054906101000a900473ffffffffffffffffffffffffffffffffffffffff1673ffffffffffffffffffffffffffffffffffffffff166323b872dd600560009054906101000a900473ffffffffffffffffffffffffffffffffffffffff163360146040518463ffffffff1660e01b8152600401808473ffffffffffffffffffffffffffffffffffffffff1673ffffffffffffffffffffffffffffffffffffffff1681526020018373ffffffffffffffffffffffffffffffffffffffff1673ffffffffffffffffffffffffffffffffffffffff1681526020018281526020019350505050602060405180830381600087803b1580156106f157600080fd5b505af1158015610705573d6000803e3d6000fd5b505050506040513d602081101561071b57600080fd5b81019080805190602001909291905050505060016000803373ffffffffffffffffffffffffffffffffffffffff1673ffffffffffffffffffffffffffffffffffffffff16815260200190815260200160002060006101000a81548160ff0219169083151502179055506002600082815260200190815260200160002060020160008154809291906001019190505550807ffff3c900d938d21d0990d786e819f29b8d05c1ef587b462b939609625b684b1660405160405180910390a250565b60035481565b6002602052806000526040600020600091509050806000015490806001018054600181600116156101000203166002900480601f0160208091040260200160405190810160405280929190818152602001828054600181600116156101000203166002900480156108925780601f1061086757610100808354040283529160200191610892565b820191906000526020600020905b81548152906001019060200180831161087557829003601f168201915b505050505090806002015490806003018054600181600116156101000203166002900480601f0160208091040260200160405190810160405280929190818152602001828054600181600116156101000203166002900480156109365780601f1061090b57610100808354040283529160200191610936565b820191906000526020600020905b81548152906001019060200180831161091957829003601f168201915b5050505050905084565b60016020528060005260406000206000915054906101000a900460ff1681565b600660009054906101000a900473ffffffffffffffffffffffffffffffffffffffff1681565b60045481565b60006020528060005260406000206000915054906101000a900460ff1681565b600560009054906101000a900473ffffffffffffffffffffffffffffffffffffffff168156fea265627a7a72315820f7639b91ed3ad9601c7c0805ad293f734c256a8eb9cd4768af59f23125c8d33f64736f6c6343000510003268747470733a2f2f68652e77696b6970656469612e6f72672f77696b692f2544372539312544372541302544372539392544372539452544372539392544372539465f25443725413025443725414125443725413025443725393925443725393425443725393568747470733a2f2f68652e77696b6970656469612e6f72672f77696b692f2544372541302544372541342544372541412544372539432544372539395f25443725393125443725413025443725393868747470733a2f2f68652e77696b6970656469612e6f72672f77696b692f2544372539302544372539312544372539392544372539322544372539332544372539352544372541385f25443725394325443725393925443725393125443725413825443725394525443725394668747470733a2f2f68652e77696b6970656469612e6f72672f77696b692f2544372541322544372539452544372539392544372541385f25443725413425443725413825443725413568747470733a2f2f68652e77696b6970656469612e6f72672f77696b692f2544372539312544372541302544372539395f25443725393225443725413025443725413568747470733a2f2f68652e77696b6970656469612e6f72672f77696b692f2544372539392544372541322544372541372544372539315f25443725394325443725393925443725413625443725394525443725394668747470733a2f2f68652e77696b6970656469612e6f72672f77696b692f2544372539302544372541382544372539392544372539345f25443725393325443725413825443725413225443725393968747470733a2f2f68652e77696b6970656469612e6f72672f77696b692f2544372539302544372539392544372539392544372539452544372539465f254437254132254437253935254437253933254437253934",
  "source": "pragma solidity ^0.5.0;\r\n\r\nimport \"./ElectionToken.sol\";\r\n\r\ncontract Election {\r\n    // Model a Candidate\r\n    struct Candidate {\r\n        uint256 id;\r\n        string name;\r\n        uint256 voteCount;\r\n        string link;\r\n    }\r\n\r\n    // Store accounts that have voted\r\n    mapping(address => bool) public voters;\r\n    // Store accounts that allowed to vote\r\n    mapping(bytes32 => bool) public allowed_voters;\r\n    // Read/write candidates\r\n    mapping(uint256 => Candidate) public candidates;\r\n\r\n    // Store Candidates Count\r\n    uint256 public candidatesCount;\r\n    // time for end of the election\r\n    uint256 public timeblock = block.timestamp + 555 minutes;\r\n\r\n    event votedEvent(uint256 indexed _candidateId);\r\n    /// Token Handle\r\n    address public admin;\r\n    ElectionToken public tokenContract;\r\n\r\n    constructor(ElectionToken _hamamiContracrtToken) public {\r\n        admin = msg.sender;\r\n        tokenContract = _hamamiContracrtToken;\r\n        addCandidate(\r\n            \"Bibi\",\r\n            \"https://he.wikipedia.org/wiki/%D7%91%D7%A0%D7%99%D7%9E%D7%99%D7%9F_%D7%A0%D7%AA%D7%A0%D7%99%D7%94%D7%95\"\r\n        );\r\n        addCandidate(\r\n            \"Gantz\",\r\n            \"https://he.wikipedia.org/wiki/%D7%91%D7%A0%D7%99_%D7%92%D7%A0%D7%A5\"\r\n        );\r\n        addCandidate(\r\n            \"Ayman Odeh\",\r\n            \"https://he.wikipedia.org/wiki/%D7%90%D7%99%D7%99%D7%9E%D7%9F_%D7%A2%D7%95%D7%93%D7%94\"\r\n        );\r\n        addCandidate(\r\n            \"Amir Peretz\",\r\n            \"https://he.wikipedia.org/wiki/%D7%A2%D7%9E%D7%99%D7%A8_%D7%A4%D7%A8%D7%A5\"\r\n        );\r\n        addCandidate(\r\n            \"Yaakov Litzman\",\r\n            \"https://he.wikipedia.org/wiki/%D7%99%D7%A2%D7%A7%D7%91_%D7%9C%D7%99%D7%A6%D7%9E%D7%9F\"\r\n        );\r\n        addCandidate(\r\n            \"Aryeh Deri\",\r\n            \"https://he.wikipedia.org/wiki/%D7%90%D7%A8%D7%99%D7%94_%D7%93%D7%A8%D7%A2%D7%99\"\r\n        );\r\n        addCandidate(\r\n            \"Naftali Bennett\",\r\n            \"https://he.wikipedia.org/wiki/%D7%A0%D7%A4%D7%AA%D7%9C%D7%99_%D7%91%D7%A0%D7%98\"\r\n        );\r\n        addCandidate(\r\n            \"Avigdor Lieberman\",\r\n            \"https://he.wikipedia.org/wiki/%D7%90%D7%91%D7%99%D7%92%D7%93%D7%95%D7%A8_%D7%9C%D7%99%D7%91%D7%A8%D7%9E%D7%9F\"\r\n        );\r\n        setVoter();\r\n    }\r\n\r\n    function addCandidate(string memory _name, string memory link) private {\r\n        candidatesCount++;\r\n        candidates[candidatesCount] = Candidate(\r\n            candidatesCount,\r\n            _name,\r\n            0,\r\n            link\r\n        );\r\n    }\r\n\r\n    function setVoter() private {\r\n        // With hash // map should be bytes32\r\n        allowed_voters[\r\n            keccak256(\r\n                abi.encodePacked(0xac9Ffd6ED95725965623354a416478c4aD5E236D)\r\n            )\r\n        ] = true; //0\r\n        allowed_voters[\r\n            keccak256(\r\n                abi.encodePacked(0xbe44FAbCb03630BA316D106F442681D96C60f549)\r\n            )\r\n        ] = true; //1\r\n        allowed_voters[\r\n            keccak256(\r\n                abi.encodePacked(0xAA720620E16ec1e43Caa85370607e34FEa437E2C)\r\n            )\r\n        ] = true; //2\r\n        allowed_voters[\r\n            keccak256(\r\n                abi.encodePacked(0x5826747a6d26314eD3Ea4Ae22AF7AD99F6E34af4)\r\n            )\r\n        ] = true; //3\r\n        allowed_voters[\r\n            keccak256(\r\n                abi.encodePacked(0x1009106EFF5346246829d7cf9939b6915B1529e5)\r\n            )\r\n        ] = true; //4\r\n        allowed_voters[\r\n            keccak256(\r\n                abi.encodePacked(0x8ef6066Ba41f5CD44837C460440f76316572B02c)\r\n            )\r\n        ] = true; //5\r\n        allowed_voters[\r\n            keccak256(\r\n                abi.encodePacked(0xCA24b10D7527763D2b56cb9bBeBdc738CFE0D790)\r\n            )\r\n        ] = true; //6\r\n        allowed_voters[\r\n            keccak256(\r\n                abi.encodePacked(0x3A5A14d0fEA07623B857bdF6bb8D464b1BE78C1D)\r\n            )\r\n        ] = true; //7\r\n        allowed_voters[\r\n            keccak256(\r\n                abi.encodePacked(0x8D028e7A4010f485777f382dF6C2a8f1F5e7ACe7)\r\n            )\r\n        ] = true; //8\r\n        // allowed_voters[keccak256(abi.encodePacked(0x9C34ed638d5688177C0B9A573Fb6F2EDdf806637))] = true; //9\r\n    }\r\n\r\n    function vote(uint256 _candidateId) public {\r\n        // require that they haven't voted before\r\n        require(!voters[msg.sender], \"already voted\");\r\n\r\n        // require a valid candidate\r\n        require(\r\n            _candidateId > 0 && _candidateId <= candidatesCount,\r\n            \"Not a valid candidate\"\r\n        );\r\n\r\n        // require that time of votes not elapsed\r\n        require(now <= timeblock, \"Time to vote elapsed\");\r\n\r\n        // require that the voter allow to vote\r\n        require(\r\n            allowed_voters[keccak256(abi.encodePacked(msg.sender))],\r\n            \"Not allowed to vote\"\r\n        );\r\n        // gift token to the account that vote.\r\n        tokenContract.transferFrom(admin, msg.sender, 20);\r\n\r\n        // record that voter has voted\r\n        voters[msg.sender] = true;\r\n\r\n        // update candidate vote Count\r\n        candidates[_candidateId].voteCount++;\r\n\r\n        // trigger voted event\r\n        emit votedEvent(_candidateId);\r\n    }\r\n}\r\n",
  "sourcePath": "D:/Homework/Y4S1/Blockchain/Projects/HTTYG/GladShop/contracts/Election.sol",
  "compiler": {
    "name": "solc",
    "version": "0.5.16+commit.9c3226ce.Emscripten.clang"
  },
  "schemaVersion": "3.3.3",
  "updatedAt": "2021-02-13T20:36:31.544Z",
  "devdoc": {
    "methods": {}
  },
  "userdoc": {
    "methods": {}
  }
}