{
  "contractName": "SafeMath",
  "abi": [
    {
      "constant": true,
      "inputs": [
        {
          "internalType": "uint256",
          "name": "a",
          "type": "uint256"
        },
        {
          "internalType": "uint256",
          "name": "b",
          "type": "uint256"
        }
      ],
      "name": "safeAdd",
      "outputs": [
        {
          "internalType": "uint256",
          "name": "c",
          "type": "uint256"
        }
      ],
      "payable": false,
      "stateMutability": "pure",
      "type": "function"
    },
    {
      "constant": true,
      "inputs": [
        {
          "internalType": "uint256",
          "name": "a",
          "type": "uint256"
        },
        {
          "internalType": "uint256",
          "name": "b",
          "type": "uint256"
        }
      ],
      "name": "safeSub",
      "outputs": [
        {
          "internalType": "uint256",
          "name": "c",
          "type": "uint256"
        }
      ],
      "payable": false,
      "stateMutability": "pure",
      "type": "function"
    },
    {
      "constant": true,
      "inputs": [
        {
          "internalType": "uint256",
          "name": "a",
          "type": "uint256"
        },
        {
          "internalType": "uint256",
          "name": "b",
          "type": "uint256"
        }
      ],
      "name": "safeMul",
      "outputs": [
        {
          "internalType": "uint256",
          "name": "c",
          "type": "uint256"
        }
      ],
      "payable": false,
      "stateMutability": "pure",
      "type": "function"
    },
    {
      "constant": true,
      "inputs": [
        {
          "internalType": "uint256",
          "name": "a",
          "type": "uint256"
        },
        {
          "internalType": "uint256",
          "name": "b",
          "type": "uint256"
        }
      ],
      "name": "safeDiv",
      "outputs": [
        {
          "internalType": "uint256",
          "name": "c",
          "type": "uint256"
        }
      ],
      "payable": false,
      "stateMutability": "pure",
      "type": "function"
    }
  ],
  "bytecode": "0x608060405234801561001057600080fd5b506103db806100206000396000f3fe608060405234801561001057600080fd5b506004361061004c5760003560e01c8063a293d1e814610051578063b5931f7c1461009d578063d05c78da146100e9578063e6cb901314610135575b600080fd5b6100876004803603604081101561006757600080fd5b810190808035906020019092919080359060200190929190505050610181565b6040518082815260200191505060405180910390f35b6100d3600480360360408110156100b357600080fd5b810190808035906020019092919080359060200190929190505050610204565b6040518082815260200191505060405180910390f35b61011f600480360360408110156100ff57600080fd5b81019080803590602001909291908035906020019092919050505061028d565b6040518082815260200191505060405180910390f35b61016b6004803603604081101561014b57600080fd5b810190808035906020019092919080359060200190929190505050610323565b6040518082815260200191505060405180910390f35b6000828211156101f9576040517f08c379a00000000000000000000000000000000000000000000000000000000081526004018080602001828103825260088152602001807f736166652073756200000000000000000000000000000000000000000000000081525060200191505060405180910390fd5b818303905092915050565b600080821161027b576040517f08c379a00000000000000000000000000000000000000000000000000000000081526004018080602001828103825260088152602001807f736166652064697600000000000000000000000000000000000000000000000081525060200191505060405180910390fd5b81838161028457fe5b04905092915050565b6000818302905060008314806102ab5750818382816102a857fe5b04145b61031d576040517f08c379a00000000000000000000000000000000000000000000000000000000081526004018080602001828103825260088152602001807f73616665204d756c00000000000000000000000000000000000000000000000081525060200191505060405180910390fd5b92915050565b60008183019050828110156103a0576040517f08c379a00000000000000000000000000000000000000000000000000000000081526004018080602001828103825260088152602001807f736166652061646400000000000000000000000000000000000000000000000081525060200191505060405180910390fd5b9291505056fea265627a7a7231582061d98a38bbe0d49fb501ba0a4448e2d2a9e7fb57e22a4b4c25fbff3caa4c319d64736f6c63430005100032",
  "source": "pragma solidity ^0.5.0;\r\n\r\ncontract SafeMath {\r\n    function safeAdd(uint256 a, uint256 b) public pure returns (uint256 c) {\r\n        c = a + b;\r\n        require(c >= a, \"safe add\");\r\n    }\r\n\r\n    function safeSub(uint256 a, uint256 b) public pure returns (uint256 c) {\r\n        require(b <= a, \"safe sub\");\r\n        c = a - b;\r\n    }\r\n\r\n    function safeMul(uint256 a, uint256 b) public pure returns (uint256 c) {\r\n        c = a * b;\r\n        require(a == 0 || c / a == b, \"safe Mul\");\r\n    }\r\n\r\n    function safeDiv(uint256 a, uint256 b) public pure returns (uint256 c) {\r\n        require(b > 0, \"safe div\");\r\n        c = a / b;\r\n    }\r\n}\r\n",
  "sourcePath": "D:\\Homework\\Y4S1\\Blockchain\\Projects\\GladShop\\contracts\\SafeMath.sol",
  "compiler": {
    "name": "solc",
    "version": "0.5.16+commit.9c3226ce.Emscripten.clang"
  },
  "schemaVersion": "3.3.3",
  "updatedAt": "2021-02-02T13:03:20.899Z",
  "devdoc": {
    "methods": {}
  },
  "userdoc": {
    "methods": {}
  }
}